{
	"Documents/GitHub/XRC-Airdrop/contracts/Airdrop.sol": {
		"Airdrop": {
			"abi": [
				{
					"inputs": [],
					"stateMutability": "nonpayable",
					"type": "constructor"
				},
				{
					"anonymous": false,
					"inputs": [
						{
							"indexed": true,
							"internalType": "address",
							"name": "oldOwner",
							"type": "address"
						},
						{
							"indexed": true,
							"internalType": "address",
							"name": "newOwner",
							"type": "address"
						}
					],
					"name": "OwnerSet",
					"type": "event"
				},
				{
					"inputs": [
						{
							"internalType": "address",
							"name": "_User",
							"type": "address"
						},
						{
							"internalType": "uint256",
							"name": "_amount",
							"type": "uint256"
						}
					],
					"name": "AddUser",
					"outputs": [
						{
							"internalType": "bool",
							"name": "",
							"type": "bool"
						}
					],
					"stateMutability": "nonpayable",
					"type": "function"
				},
				{
					"inputs": [],
					"name": "AirDropStatus",
					"outputs": [
						{
							"internalType": "bool",
							"name": "",
							"type": "bool"
						}
					],
					"stateMutability": "view",
					"type": "function"
				},
				{
					"inputs": [
						{
							"internalType": "bool",
							"name": "_status",
							"type": "bool"
						}
					],
					"name": "DeployAirDrop",
					"outputs": [
						{
							"internalType": "bool",
							"name": "",
							"type": "bool"
						}
					],
					"stateMutability": "nonpayable",
					"type": "function"
				},
				{
					"inputs": [
						{
							"internalType": "uint256",
							"name": "i",
							"type": "uint256"
						}
					],
					"name": "RedeemAirdrop",
					"outputs": [
						{
							"internalType": "bool",
							"name": "",
							"type": "bool"
						}
					],
					"stateMutability": "nonpayable",
					"type": "function"
				},
				{
					"inputs": [
						{
							"internalType": "contract IERC20",
							"name": "_Contract",
							"type": "address"
						}
					],
					"name": "Register_XRC_Contract",
					"outputs": [
						{
							"internalType": "bool",
							"name": "",
							"type": "bool"
						}
					],
					"stateMutability": "nonpayable",
					"type": "function"
				},
				{
					"inputs": [
						{
							"internalType": "uint256",
							"name": "_userCount",
							"type": "uint256"
						},
						{
							"internalType": "bool",
							"name": "_exist",
							"type": "bool"
						}
					],
					"name": "RemoveUser",
					"outputs": [
						{
							"internalType": "string",
							"name": "",
							"type": "string"
						}
					],
					"stateMutability": "nonpayable",
					"type": "function"
				},
				{
					"inputs": [],
					"name": "TotalAlocated",
					"outputs": [
						{
							"internalType": "uint256",
							"name": "",
							"type": "uint256"
						}
					],
					"stateMutability": "view",
					"type": "function"
				},
				{
					"inputs": [
						{
							"internalType": "uint256",
							"name": "_userCount",
							"type": "uint256"
						}
					],
					"name": "ViewUsers",
					"outputs": [
						{
							"internalType": "address",
							"name": "",
							"type": "address"
						},
						{
							"internalType": "uint256",
							"name": "",
							"type": "uint256"
						},
						{
							"internalType": "bool",
							"name": "",
							"type": "bool"
						}
					],
					"stateMutability": "view",
					"type": "function"
				},
				{
					"inputs": [],
					"name": "XRC_Contract",
					"outputs": [
						{
							"internalType": "contract IERC20",
							"name": "",
							"type": "address"
						}
					],
					"stateMutability": "view",
					"type": "function"
				},
				{
					"inputs": [],
					"name": "airdropCount",
					"outputs": [
						{
							"internalType": "uint256",
							"name": "",
							"type": "uint256"
						}
					],
					"stateMutability": "view",
					"type": "function"
				},
				{
					"inputs": [
						{
							"internalType": "address",
							"name": "newOwner",
							"type": "address"
						}
					],
					"name": "changeOwner",
					"outputs": [],
					"stateMutability": "nonpayable",
					"type": "function"
				},
				{
					"inputs": [],
					"name": "getOwner",
					"outputs": [
						{
							"internalType": "address",
							"name": "",
							"type": "address"
						}
					],
					"stateMutability": "view",
					"type": "function"
				},
				{
					"inputs": [],
					"name": "leftToBeAllocated",
					"outputs": [
						{
							"internalType": "uint256",
							"name": "",
							"type": "uint256"
						}
					],
					"stateMutability": "view",
					"type": "function"
				},
				{
					"inputs": [],
					"name": "viewBalanceInContract",
					"outputs": [
						{
							"internalType": "uint256",
							"name": "",
							"type": "uint256"
						}
					],
					"stateMutability": "view",
					"type": "function"
				}
			],
			"devdoc": {
				"kind": "dev",
				"methods": {},
				"version": 1
			},
			"evm": {
				"assembly": "    /* \"Documents/GitHub/XRC-Airdrop/contracts/Airdrop.sol\":692:4477  contract Airdrop is Airdrop_interface{... */\n  mstore(0x40, 0x80)\n    /* \"Documents/GitHub/XRC-Airdrop/contracts/Airdrop.sol\":812:813  0 */\n  0x00\n    /* \"Documents/GitHub/XRC-Airdrop/contracts/Airdrop.sol\":787:813  uint public airdropCount=0 */\n  0x01\n  sstore\n    /* \"Documents/GitHub/XRC-Airdrop/contracts/Airdrop.sol\":846:847  0 */\n  0x00\n    /* \"Documents/GitHub/XRC-Airdrop/contracts/Airdrop.sol\":820:847  uint public TotalAlocated=0 */\n  0x02\n  sstore\n    /* \"Documents/GitHub/XRC-Airdrop/contracts/Airdrop.sol\":1617:1707  constructor(){... */\n  callvalue\n  dup1\n  iszero\n  tag_1\n  jumpi\n  0x00\n  dup1\n  revert\ntag_1:\n  pop\n    /* \"Documents/GitHub/XRC-Airdrop/contracts/Airdrop.sol\":1648:1658  msg.sender */\n  caller\n    /* \"Documents/GitHub/XRC-Airdrop/contracts/Airdrop.sol\":1640:1645  owner */\n  0x00\n  dup1\n    /* \"Documents/GitHub/XRC-Airdrop/contracts/Airdrop.sol\":1640:1658  owner = msg.sender */\n  0x0100\n  exp\n  dup2\n  sload\n  dup2\n  0xffffffffffffffffffffffffffffffffffffffff\n  mul\n  not\n  and\n  swap1\n  dup4\n  0xffffffffffffffffffffffffffffffffffffffff\n  and\n  mul\n  or\n  swap1\n  sstore\n  pop\n    /* \"Documents/GitHub/XRC-Airdrop/contracts/Airdrop.sol\":1694:1699  owner */\n  0x00\n  dup1\n  sload\n  swap1\n  0x0100\n  exp\n  swap1\n  div\n  0xffffffffffffffffffffffffffffffffffffffff\n  and\n    /* \"Documents/GitHub/XRC-Airdrop/contracts/Airdrop.sol\":1673:1700  OwnerSet(address(0), owner) */\n  0xffffffffffffffffffffffffffffffffffffffff\n  and\n    /* \"Documents/GitHub/XRC-Airdrop/contracts/Airdrop.sol\":1690:1691  0 */\n  0x00\n    /* \"Documents/GitHub/XRC-Airdrop/contracts/Airdrop.sol\":1673:1700  OwnerSet(address(0), owner) */\n  0xffffffffffffffffffffffffffffffffffffffff\n  and\n  0x342827c97908e5e2f71151c08502a66d44b6f758e3ac2f1de95f02eb95f0a735\n  mload(0x40)\n  mload(0x40)\n  dup1\n  swap2\n  sub\n  swap1\n  log3\n    /* \"Documents/GitHub/XRC-Airdrop/contracts/Airdrop.sol\":692:4477  contract Airdrop is Airdrop_interface{... */\n  dataSize(sub_0)\n  dup1\n  dataOffset(sub_0)\n  0x00\n  codecopy\n  0x00\n  return\nstop\n\nsub_0: assembly {\n        /* \"Documents/GitHub/XRC-Airdrop/contracts/Airdrop.sol\":692:4477  contract Airdrop is Airdrop_interface{... */\n      mstore(0x40, 0x80)\n      callvalue\n      dup1\n      iszero\n      tag_1\n      jumpi\n      0x00\n      dup1\n      revert\n    tag_1:\n      pop\n      jumpi(tag_2, lt(calldatasize, 0x04))\n      shr(0xe0, calldataload(0x00))\n      dup1\n      0xa6f9dae1\n      gt\n      tag_17\n      jumpi\n      dup1\n      0xc24a58a1\n      gt\n      tag_18\n      jumpi\n      dup1\n      0xc24a58a1\n      eq\n      tag_13\n      jumpi\n      dup1\n      0xe1e46cba\n      eq\n      tag_14\n      jumpi\n      dup1\n      0xe952f74f\n      eq\n      tag_15\n      jumpi\n      dup1\n      0xf5084426\n      eq\n      tag_16\n      jumpi\n      jump(tag_2)\n    tag_18:\n      dup1\n      0xa6f9dae1\n      eq\n      tag_10\n      jumpi\n      dup1\n      0xaddfeee5\n      eq\n      tag_11\n      jumpi\n      dup1\n      0xb612dd02\n      eq\n      tag_12\n      jumpi\n      jump(tag_2)\n    tag_17:\n      dup1\n      0x85f0d3ca\n      gt\n      tag_19\n      jumpi\n      dup1\n      0x85f0d3ca\n      eq\n      tag_6\n      jumpi\n      dup1\n      0x893d20e8\n      eq\n      tag_7\n      jumpi\n      dup1\n      0x99e89649\n      eq\n      tag_8\n      jumpi\n      dup1\n      0x9f48e8ad\n      eq\n      tag_9\n      jumpi\n      jump(tag_2)\n    tag_19:\n      dup1\n      0x01f3978f\n      eq\n      tag_3\n      jumpi\n      dup1\n      0x03b93472\n      eq\n      tag_4\n      jumpi\n      dup1\n      0x6932ac5f\n      eq\n      tag_5\n      jumpi\n    tag_2:\n      0x00\n      dup1\n      revert\n        /* \"Documents/GitHub/XRC-Airdrop/contracts/Airdrop.sol\":884:913  uint public leftToBeAllocated */\n    tag_3:\n      tag_20\n      tag_21\n      jump\t// in\n    tag_20:\n      mload(0x40)\n      tag_22\n      swap2\n      swap1\n      tag_23\n      jump\t// in\n    tag_22:\n      mload(0x40)\n      dup1\n      swap2\n      sub\n      swap1\n      return\n        /* \"Documents/GitHub/XRC-Airdrop/contracts/Airdrop.sol\":919:945  IERC20 public XRC_Contract */\n    tag_4:\n      tag_24\n      tag_25\n      jump\t// in\n    tag_24:\n      mload(0x40)\n      tag_26\n      swap2\n      swap1\n      tag_27\n      jump\t// in\n    tag_26:\n      mload(0x40)\n      dup1\n      swap2\n      sub\n      swap1\n      return\n        /* \"Documents/GitHub/XRC-Airdrop/contracts/Airdrop.sol\":2002:2542  function AddUser(address _User,uint _amount)public isOwner preAirdrop returns(bool){... */\n    tag_5:\n      tag_28\n      0x04\n      dup1\n      calldatasize\n      sub\n      dup2\n      add\n      swap1\n      tag_29\n      swap2\n      swap1\n      tag_30\n      jump\t// in\n    tag_29:\n      tag_31\n      jump\t// in\n    tag_28:\n      mload(0x40)\n      tag_32\n      swap2\n      swap1\n      tag_33\n      jump\t// in\n    tag_32:\n      mload(0x40)\n      dup1\n      swap2\n      sub\n      swap1\n      return\n        /* \"Documents/GitHub/XRC-Airdrop/contracts/Airdrop.sol\":853:878  bool public AirDropStatus */\n    tag_6:\n      tag_34\n      tag_35\n      jump\t// in\n    tag_34:\n      mload(0x40)\n      tag_36\n      swap2\n      swap1\n      tag_33\n      jump\t// in\n    tag_36:\n      mload(0x40)\n      dup1\n      swap2\n      sub\n      swap1\n      return\n        /* \"Documents/GitHub/XRC-Airdrop/contracts/Airdrop.sol\":1890:1970  function getOwner() external view returns(address) {... */\n    tag_7:\n      tag_37\n      tag_38\n      jump\t// in\n    tag_37:\n      mload(0x40)\n      tag_39\n      swap2\n      swap1\n      tag_40\n      jump\t// in\n    tag_39:\n      mload(0x40)\n      dup1\n      swap2\n      sub\n      swap1\n      return\n        /* \"Documents/GitHub/XRC-Airdrop/contracts/Airdrop.sol\":3307:3457  function Register_XRC_Contract(IERC20 _Contract) public isOwner preAirdrop returns(bool){... */\n    tag_8:\n      tag_41\n      0x04\n      dup1\n      calldatasize\n      sub\n      dup2\n      add\n      swap1\n      tag_42\n      swap2\n      swap1\n      tag_43\n      jump\t// in\n    tag_42:\n      tag_44\n      jump\t// in\n    tag_41:\n      mload(0x40)\n      tag_45\n      swap2\n      swap1\n      tag_33\n      jump\t// in\n    tag_45:\n      mload(0x40)\n      dup1\n      swap2\n      sub\n      swap1\n      return\n        /* \"Documents/GitHub/XRC-Airdrop/contracts/Airdrop.sol\":820:847  uint public TotalAlocated=0 */\n    tag_9:\n      tag_46\n      tag_47\n      jump\t// in\n    tag_46:\n      mload(0x40)\n      tag_48\n      swap2\n      swap1\n      tag_23\n      jump\t// in\n    tag_48:\n      mload(0x40)\n      dup1\n      swap2\n      sub\n      swap1\n      return\n        /* \"Documents/GitHub/XRC-Airdrop/contracts/Airdrop.sol\":1731:1869  function changeOwner(address newOwner) public isOwner preAirdrop {... */\n    tag_10:\n      tag_49\n      0x04\n      dup1\n      calldatasize\n      sub\n      dup2\n      add\n      swap1\n      tag_50\n      swap2\n      swap1\n      tag_51\n      jump\t// in\n    tag_50:\n      tag_52\n      jump\t// in\n    tag_49:\n      stop\n        /* \"Documents/GitHub/XRC-Airdrop/contracts/Airdrop.sol\":3825:4184  function RedeemAirdrop(uint i)public postAirdrop returns(bool){... */\n    tag_11:\n      tag_53\n      0x04\n      dup1\n      calldatasize\n      sub\n      dup2\n      add\n      swap1\n      tag_54\n      swap2\n      swap1\n      tag_55\n      jump\t// in\n    tag_54:\n      tag_56\n      jump\t// in\n    tag_53:\n      mload(0x40)\n      tag_57\n      swap2\n      swap1\n      tag_33\n      jump\t// in\n    tag_57:\n      mload(0x40)\n      dup1\n      swap2\n      sub\n      swap1\n      return\n        /* \"Documents/GitHub/XRC-Airdrop/contracts/Airdrop.sol\":2572:3047  function RemoveUser(uint _userCount,bool _exist)public isOwner preAirdrop returns(string memory){... */\n    tag_12:\n      tag_58\n      0x04\n      dup1\n      calldatasize\n      sub\n      dup2\n      add\n      swap1\n      tag_59\n      swap2\n      swap1\n      tag_60\n      jump\t// in\n    tag_59:\n      tag_61\n      jump\t// in\n    tag_58:\n      mload(0x40)\n      tag_62\n      swap2\n      swap1\n      tag_63\n      jump\t// in\n    tag_62:\n      mload(0x40)\n      dup1\n      swap2\n      sub\n      swap1\n      return\n        /* \"Documents/GitHub/XRC-Airdrop/contracts/Airdrop.sol\":3483:3719  function DeployAirDrop(bool _status)public isOwner preAirdrop returns(bool){... */\n    tag_13:\n      tag_64\n      0x04\n      dup1\n      calldatasize\n      sub\n      dup2\n      add\n      swap1\n      tag_65\n      swap2\n      swap1\n      tag_66\n      jump\t// in\n    tag_65:\n      tag_67\n      jump\t// in\n    tag_64:\n      mload(0x40)\n      tag_68\n      swap2\n      swap1\n      tag_33\n      jump\t// in\n    tag_68:\n      mload(0x40)\n      dup1\n      swap2\n      sub\n      swap1\n      return\n        /* \"Documents/GitHub/XRC-Airdrop/contracts/Airdrop.sol\":4230:4475  function viewBalanceInContract()public view isOwner returns(uint){... */\n    tag_14:\n      tag_69\n      tag_70\n      jump\t// in\n    tag_69:\n      mload(0x40)\n      tag_71\n      swap2\n      swap1\n      tag_23\n      jump\t// in\n    tag_71:\n      mload(0x40)\n      dup1\n      swap2\n      sub\n      swap1\n      return\n        /* \"Documents/GitHub/XRC-Airdrop/contracts/Airdrop.sol\":787:813  uint public airdropCount=0 */\n    tag_15:\n      tag_72\n      tag_73\n      jump\t// in\n    tag_72:\n      mload(0x40)\n      tag_74\n      swap2\n      swap1\n      tag_23\n      jump\t// in\n    tag_74:\n      mload(0x40)\n      dup1\n      swap2\n      sub\n      swap1\n      return\n        /* \"Documents/GitHub/XRC-Airdrop/contracts/Airdrop.sol\":3093:3282  function ViewUsers(uint _userCount) public view returns(address,uint,bool){... */\n    tag_16:\n      tag_75\n      0x04\n      dup1\n      calldatasize\n      sub\n      dup2\n      add\n      swap1\n      tag_76\n      swap2\n      swap1\n      tag_55\n      jump\t// in\n    tag_76:\n      tag_77\n      jump\t// in\n    tag_75:\n      mload(0x40)\n      tag_78\n      swap4\n      swap3\n      swap2\n      swap1\n      tag_79\n      jump\t// in\n    tag_78:\n      mload(0x40)\n      dup1\n      swap2\n      sub\n      swap1\n      return\n        /* \"Documents/GitHub/XRC-Airdrop/contracts/Airdrop.sol\":884:913  uint public leftToBeAllocated */\n    tag_21:\n      sload(0x04)\n      dup2\n      jump\t// out\n        /* \"Documents/GitHub/XRC-Airdrop/contracts/Airdrop.sol\":919:945  IERC20 public XRC_Contract */\n    tag_25:\n      0x05\n      0x00\n      swap1\n      sload\n      swap1\n      0x0100\n      exp\n      swap1\n      div\n      0xffffffffffffffffffffffffffffffffffffffff\n      and\n      dup2\n      jump\t// out\n        /* \"Documents/GitHub/XRC-Airdrop/contracts/Airdrop.sol\":2002:2542  function AddUser(address _User,uint _amount)public isOwner preAirdrop returns(bool){... */\n    tag_31:\n        /* \"Documents/GitHub/XRC-Airdrop/contracts/Airdrop.sol\":2080:2084  bool */\n      0x00\n        /* \"Documents/GitHub/XRC-Airdrop/contracts/Airdrop.sol\":1118:1123  owner */\n      dup1\n      0x00\n      swap1\n      sload\n      swap1\n      0x0100\n      exp\n      swap1\n      div\n      0xffffffffffffffffffffffffffffffffffffffff\n      and\n        /* \"Documents/GitHub/XRC-Airdrop/contracts/Airdrop.sol\":1104:1123  msg.sender == owner */\n      0xffffffffffffffffffffffffffffffffffffffff\n      and\n        /* \"Documents/GitHub/XRC-Airdrop/contracts/Airdrop.sol\":1104:1114  msg.sender */\n      caller\n        /* \"Documents/GitHub/XRC-Airdrop/contracts/Airdrop.sol\":1104:1123  msg.sender == owner */\n      0xffffffffffffffffffffffffffffffffffffffff\n      and\n      eq\n        /* \"Documents/GitHub/XRC-Airdrop/contracts/Airdrop.sol\":1096:1147  require(msg.sender == owner, \"Caller is not owner\") */\n      tag_81\n      jumpi\n      mload(0x40)\n      0x08c379a000000000000000000000000000000000000000000000000000000000\n      dup2\n      mstore\n      0x04\n      add\n      tag_82\n      swap1\n      tag_83\n      jump\t// in\n    tag_82:\n      mload(0x40)\n      dup1\n      swap2\n      sub\n      swap1\n      revert\n    tag_81:\n        /* \"Documents/GitHub/XRC-Airdrop/contracts/Airdrop.sol\":1253:1258  false */\n      0x00\n        /* \"Documents/GitHub/XRC-Airdrop/contracts/Airdrop.sol\":1236:1258  AirDropStatus == false */\n      iszero\n      iszero\n        /* \"Documents/GitHub/XRC-Airdrop/contracts/Airdrop.sol\":1236:1249  AirDropStatus */\n      0x03\n      0x00\n      swap1\n      sload\n      swap1\n      0x0100\n      exp\n      swap1\n      div\n      0xff\n      and\n        /* \"Documents/GitHub/XRC-Airdrop/contracts/Airdrop.sol\":1236:1258  AirDropStatus == false */\n      iszero\n      iszero\n      eq\n        /* \"Documents/GitHub/XRC-Airdrop/contracts/Airdrop.sol\":1228:1291  require(AirDropStatus == false, \"Airdrop status must be false\") */\n      tag_85\n      jumpi\n      mload(0x40)\n      0x08c379a000000000000000000000000000000000000000000000000000000000\n      dup2\n      mstore\n      0x04\n      add\n      tag_86\n      swap1\n      tag_87\n      jump\t// in\n    tag_86:\n      mload(0x40)\n      dup1\n      swap2\n      sub\n      swap1\n      revert\n    tag_85:\n        /* \"Documents/GitHub/XRC-Airdrop/contracts/Airdrop.sol\":2141:2154  TotalAlocated */\n      sload(0x02)\n        /* \"Documents/GitHub/XRC-Airdrop/contracts/Airdrop.sol\":2115:2138  viewBalanceInContract() */\n      tag_89\n        /* \"Documents/GitHub/XRC-Airdrop/contracts/Airdrop.sol\":2115:2136  viewBalanceInContract */\n      tag_70\n        /* \"Documents/GitHub/XRC-Airdrop/contracts/Airdrop.sol\":2115:2138  viewBalanceInContract() */\n      jump\t// in\n    tag_89:\n        /* \"Documents/GitHub/XRC-Airdrop/contracts/Airdrop.sol\":2115:2154  viewBalanceInContract() - TotalAlocated */\n      tag_90\n      swap2\n      swap1\n      tag_91\n      jump\t// in\n    tag_90:\n        /* \"Documents/GitHub/XRC-Airdrop/contracts/Airdrop.sol\":2095:2112  leftToBeAllocated */\n      0x04\n        /* \"Documents/GitHub/XRC-Airdrop/contracts/Airdrop.sol\":2095:2154  leftToBeAllocated = viewBalanceInContract() - TotalAlocated */\n      dup2\n      swap1\n      sstore\n      pop\n        /* \"Documents/GitHub/XRC-Airdrop/contracts/Airdrop.sol\":2186:2187  0 */\n      0x00\n        /* \"Documents/GitHub/XRC-Airdrop/contracts/Airdrop.sol\":2167:2184  leftToBeAllocated */\n      sload(0x04)\n        /* \"Documents/GitHub/XRC-Airdrop/contracts/Airdrop.sol\":2167:2187  leftToBeAllocated >0 */\n      gt\n        /* \"Documents/GitHub/XRC-Airdrop/contracts/Airdrop.sol\":2167:2219  leftToBeAllocated >0 && _amount <= leftToBeAllocated */\n      dup1\n      iszero\n      tag_92\n      jumpi\n      pop\n        /* \"Documents/GitHub/XRC-Airdrop/contracts/Airdrop.sol\":2202:2219  leftToBeAllocated */\n      sload(0x04)\n        /* \"Documents/GitHub/XRC-Airdrop/contracts/Airdrop.sol\":2191:2198  _amount */\n      dup3\n        /* \"Documents/GitHub/XRC-Airdrop/contracts/Airdrop.sol\":2191:2219  _amount <= leftToBeAllocated */\n      gt\n      iszero\n        /* \"Documents/GitHub/XRC-Airdrop/contracts/Airdrop.sol\":2167:2219  leftToBeAllocated >0 && _amount <= leftToBeAllocated */\n    tag_92:\n        /* \"Documents/GitHub/XRC-Airdrop/contracts/Airdrop.sol\":2164:2536  if(leftToBeAllocated >0 && _amount <= leftToBeAllocated){... */\n      iszero\n      tag_93\n      jumpi\n        /* \"Documents/GitHub/XRC-Airdrop/contracts/Airdrop.sol\":2262:2291  AirDropDB(_User,_amount,true) */\n      mload(0x40)\n      dup1\n      0x60\n      add\n      0x40\n      mstore\n      dup1\n        /* \"Documents/GitHub/XRC-Airdrop/contracts/Airdrop.sol\":2272:2277  _User */\n      dup5\n        /* \"Documents/GitHub/XRC-Airdrop/contracts/Airdrop.sol\":2262:2291  AirDropDB(_User,_amount,true) */\n      0xffffffffffffffffffffffffffffffffffffffff\n      and\n      dup2\n      mstore\n      0x20\n      add\n        /* \"Documents/GitHub/XRC-Airdrop/contracts/Airdrop.sol\":2278:2285  _amount */\n      dup4\n        /* \"Documents/GitHub/XRC-Airdrop/contracts/Airdrop.sol\":2262:2291  AirDropDB(_User,_amount,true) */\n      dup2\n      mstore\n      0x20\n      add\n        /* \"Documents/GitHub/XRC-Airdrop/contracts/Airdrop.sol\":2286:2290  true */\n      0x01\n        /* \"Documents/GitHub/XRC-Airdrop/contracts/Airdrop.sol\":2262:2291  AirDropDB(_User,_amount,true) */\n      iszero\n      iszero\n      dup2\n      mstore\n      pop\n        /* \"Documents/GitHub/XRC-Airdrop/contracts/Airdrop.sol\":2234:2245  userAirdrop */\n      0x06\n        /* \"Documents/GitHub/XRC-Airdrop/contracts/Airdrop.sol\":2234:2259  userAirdrop[airdropCount] */\n      0x00\n        /* \"Documents/GitHub/XRC-Airdrop/contracts/Airdrop.sol\":2246:2258  airdropCount */\n      sload(0x01)\n        /* \"Documents/GitHub/XRC-Airdrop/contracts/Airdrop.sol\":2234:2259  userAirdrop[airdropCount] */\n      dup2\n      mstore\n      0x20\n      add\n      swap1\n      dup2\n      mstore\n      0x20\n      add\n      0x00\n      keccak256\n        /* \"Documents/GitHub/XRC-Airdrop/contracts/Airdrop.sol\":2234:2291  userAirdrop[airdropCount] = AirDropDB(_User,_amount,true) */\n      0x00\n      dup3\n      add\n      mload\n      dup2\n      0x00\n      add\n      exp(0x0100, 0x00)\n      dup2\n      sload\n      dup2\n      0xffffffffffffffffffffffffffffffffffffffff\n      mul\n      not\n      and\n      swap1\n      dup4\n      0xffffffffffffffffffffffffffffffffffffffff\n      and\n      mul\n      or\n      swap1\n      sstore\n      pop\n      0x20\n      dup3\n      add\n      mload\n      dup2\n      0x01\n      add\n      sstore\n      0x40\n      dup3\n      add\n      mload\n      dup2\n      0x02\n      add\n      exp(0x0100, 0x00)\n      dup2\n      sload\n      dup2\n      0xff\n      mul\n      not\n      and\n      swap1\n      dup4\n      iszero\n      iszero\n      mul\n      or\n      swap1\n      sstore\n      pop\n      swap1\n      pop\n      pop\n        /* \"Documents/GitHub/XRC-Airdrop/contracts/Airdrop.sol\":2305:2317  airdropCount */\n      0x01\n      0x00\n        /* \"Documents/GitHub/XRC-Airdrop/contracts/Airdrop.sol\":2305:2319  airdropCount++ */\n      dup2\n      sload\n      dup1\n      swap3\n      swap2\n      swap1\n      tag_94\n      swap1\n      tag_95\n      jump\t// in\n    tag_94:\n      swap2\n      swap1\n      pop\n      sstore\n      pop\n        /* \"Documents/GitHub/XRC-Airdrop/contracts/Airdrop.sol\":2365:2372  _amount */\n      dup2\n        /* \"Documents/GitHub/XRC-Airdrop/contracts/Airdrop.sol\":2349:2362  TotalAlocated */\n      sload(0x02)\n        /* \"Documents/GitHub/XRC-Airdrop/contracts/Airdrop.sol\":2349:2372  TotalAlocated + _amount */\n      tag_96\n      swap2\n      swap1\n      tag_97\n      jump\t// in\n    tag_96:\n        /* \"Documents/GitHub/XRC-Airdrop/contracts/Airdrop.sol\":2333:2346  TotalAlocated */\n      0x02\n        /* \"Documents/GitHub/XRC-Airdrop/contracts/Airdrop.sol\":2333:2372  TotalAlocated = TotalAlocated + _amount */\n      dup2\n      swap1\n      sstore\n      pop\n        /* \"Documents/GitHub/XRC-Airdrop/contracts/Airdrop.sol\":2436:2449  TotalAlocated */\n      sload(0x02)\n        /* \"Documents/GitHub/XRC-Airdrop/contracts/Airdrop.sol\":2410:2433  viewBalanceInContract() */\n      tag_98\n        /* \"Documents/GitHub/XRC-Airdrop/contracts/Airdrop.sol\":2410:2431  viewBalanceInContract */\n      tag_70\n        /* \"Documents/GitHub/XRC-Airdrop/contracts/Airdrop.sol\":2410:2433  viewBalanceInContract() */\n      jump\t// in\n    tag_98:\n        /* \"Documents/GitHub/XRC-Airdrop/contracts/Airdrop.sol\":2410:2449  viewBalanceInContract() - TotalAlocated */\n      tag_99\n      swap2\n      swap1\n      tag_91\n      jump\t// in\n    tag_99:\n        /* \"Documents/GitHub/XRC-Airdrop/contracts/Airdrop.sol\":2390:2407  leftToBeAllocated */\n      0x04\n        /* \"Documents/GitHub/XRC-Airdrop/contracts/Airdrop.sol\":2390:2449  leftToBeAllocated = viewBalanceInContract() - TotalAlocated */\n      dup2\n      swap1\n      sstore\n      pop\n        /* \"Documents/GitHub/XRC-Airdrop/contracts/Airdrop.sol\":2478:2482  true */\n      0x01\n        /* \"Documents/GitHub/XRC-Airdrop/contracts/Airdrop.sol\":2471:2482  return true */\n      swap1\n      pop\n      jump(tag_88)\n        /* \"Documents/GitHub/XRC-Airdrop/contracts/Airdrop.sol\":2164:2536  if(leftToBeAllocated >0 && _amount <= leftToBeAllocated){... */\n    tag_93:\n        /* \"Documents/GitHub/XRC-Airdrop/contracts/Airdrop.sol\":2520:2525  false */\n      0x00\n        /* \"Documents/GitHub/XRC-Airdrop/contracts/Airdrop.sol\":2513:2525  return false */\n      swap1\n      pop\n        /* \"Documents/GitHub/XRC-Airdrop/contracts/Airdrop.sol\":1301:1302  _ */\n    tag_88:\n        /* \"Documents/GitHub/XRC-Airdrop/contracts/Airdrop.sol\":2002:2542  function AddUser(address _User,uint _amount)public isOwner preAirdrop returns(bool){... */\n      swap3\n      swap2\n      pop\n      pop\n      jump\t// out\n        /* \"Documents/GitHub/XRC-Airdrop/contracts/Airdrop.sol\":853:878  bool public AirDropStatus */\n    tag_35:\n      0x03\n      0x00\n      swap1\n      sload\n      swap1\n      0x0100\n      exp\n      swap1\n      div\n      0xff\n      and\n      dup2\n      jump\t// out\n        /* \"Documents/GitHub/XRC-Airdrop/contracts/Airdrop.sol\":1890:1970  function getOwner() external view returns(address) {... */\n    tag_38:\n        /* \"Documents/GitHub/XRC-Airdrop/contracts/Airdrop.sol\":1932:1939  address */\n      0x00\n        /* \"Documents/GitHub/XRC-Airdrop/contracts/Airdrop.sol\":1958:1963  owner */\n      dup1\n      0x00\n      swap1\n      sload\n      swap1\n      0x0100\n      exp\n      swap1\n      div\n      0xffffffffffffffffffffffffffffffffffffffff\n      and\n        /* \"Documents/GitHub/XRC-Airdrop/contracts/Airdrop.sol\":1951:1963  return owner */\n      swap1\n      pop\n        /* \"Documents/GitHub/XRC-Airdrop/contracts/Airdrop.sol\":1890:1970  function getOwner() external view returns(address) {... */\n      swap1\n      jump\t// out\n        /* \"Documents/GitHub/XRC-Airdrop/contracts/Airdrop.sol\":3307:3457  function Register_XRC_Contract(IERC20 _Contract) public isOwner preAirdrop returns(bool){... */\n    tag_44:\n        /* \"Documents/GitHub/XRC-Airdrop/contracts/Airdrop.sol\":3390:3394  bool */\n      0x00\n        /* \"Documents/GitHub/XRC-Airdrop/contracts/Airdrop.sol\":1118:1123  owner */\n      dup1\n      0x00\n      swap1\n      sload\n      swap1\n      0x0100\n      exp\n      swap1\n      div\n      0xffffffffffffffffffffffffffffffffffffffff\n      and\n        /* \"Documents/GitHub/XRC-Airdrop/contracts/Airdrop.sol\":1104:1123  msg.sender == owner */\n      0xffffffffffffffffffffffffffffffffffffffff\n      and\n        /* \"Documents/GitHub/XRC-Airdrop/contracts/Airdrop.sol\":1104:1114  msg.sender */\n      caller\n        /* \"Documents/GitHub/XRC-Airdrop/contracts/Airdrop.sol\":1104:1123  msg.sender == owner */\n      0xffffffffffffffffffffffffffffffffffffffff\n      and\n      eq\n        /* \"Documents/GitHub/XRC-Airdrop/contracts/Airdrop.sol\":1096:1147  require(msg.sender == owner, \"Caller is not owner\") */\n      tag_103\n      jumpi\n      mload(0x40)\n      0x08c379a000000000000000000000000000000000000000000000000000000000\n      dup2\n      mstore\n      0x04\n      add\n      tag_104\n      swap1\n      tag_83\n      jump\t// in\n    tag_104:\n      mload(0x40)\n      dup1\n      swap2\n      sub\n      swap1\n      revert\n    tag_103:\n        /* \"Documents/GitHub/XRC-Airdrop/contracts/Airdrop.sol\":1253:1258  false */\n      0x00\n        /* \"Documents/GitHub/XRC-Airdrop/contracts/Airdrop.sol\":1236:1258  AirDropStatus == false */\n      iszero\n      iszero\n        /* \"Documents/GitHub/XRC-Airdrop/contracts/Airdrop.sol\":1236:1249  AirDropStatus */\n      0x03\n      0x00\n      swap1\n      sload\n      swap1\n      0x0100\n      exp\n      swap1\n      div\n      0xff\n      and\n        /* \"Documents/GitHub/XRC-Airdrop/contracts/Airdrop.sol\":1236:1258  AirDropStatus == false */\n      iszero\n      iszero\n      eq\n        /* \"Documents/GitHub/XRC-Airdrop/contracts/Airdrop.sol\":1228:1291  require(AirDropStatus == false, \"Airdrop status must be false\") */\n      tag_106\n      jumpi\n      mload(0x40)\n      0x08c379a000000000000000000000000000000000000000000000000000000000\n      dup2\n      mstore\n      0x04\n      add\n      tag_107\n      swap1\n      tag_87\n      jump\t// in\n    tag_107:\n      mload(0x40)\n      dup1\n      swap2\n      sub\n      swap1\n      revert\n    tag_106:\n        /* \"Documents/GitHub/XRC-Airdrop/contracts/Airdrop.sol\":3420:3429  _Contract */\n      dup2\n        /* \"Documents/GitHub/XRC-Airdrop/contracts/Airdrop.sol\":3405:3417  XRC_Contract */\n      0x05\n      0x00\n        /* \"Documents/GitHub/XRC-Airdrop/contracts/Airdrop.sol\":3405:3429  XRC_Contract = _Contract */\n      0x0100\n      exp\n      dup2\n      sload\n      dup2\n      0xffffffffffffffffffffffffffffffffffffffff\n      mul\n      not\n      and\n      swap1\n      dup4\n      0xffffffffffffffffffffffffffffffffffffffff\n      and\n      mul\n      or\n      swap1\n      sstore\n      pop\n        /* \"Documents/GitHub/XRC-Airdrop/contracts/Airdrop.sol\":3446:3450  true */\n      0x01\n        /* \"Documents/GitHub/XRC-Airdrop/contracts/Airdrop.sol\":3439:3450  return true */\n      swap1\n      pop\n        /* \"Documents/GitHub/XRC-Airdrop/contracts/Airdrop.sol\":3307:3457  function Register_XRC_Contract(IERC20 _Contract) public isOwner preAirdrop returns(bool){... */\n      swap2\n      swap1\n      pop\n      jump\t// out\n        /* \"Documents/GitHub/XRC-Airdrop/contracts/Airdrop.sol\":820:847  uint public TotalAlocated=0 */\n    tag_47:\n      sload(0x02)\n      dup2\n      jump\t// out\n        /* \"Documents/GitHub/XRC-Airdrop/contracts/Airdrop.sol\":1731:1869  function changeOwner(address newOwner) public isOwner preAirdrop {... */\n    tag_52:\n        /* \"Documents/GitHub/XRC-Airdrop/contracts/Airdrop.sol\":1118:1123  owner */\n      0x00\n      dup1\n      sload\n      swap1\n      0x0100\n      exp\n      swap1\n      div\n      0xffffffffffffffffffffffffffffffffffffffff\n      and\n        /* \"Documents/GitHub/XRC-Airdrop/contracts/Airdrop.sol\":1104:1123  msg.sender == owner */\n      0xffffffffffffffffffffffffffffffffffffffff\n      and\n        /* \"Documents/GitHub/XRC-Airdrop/contracts/Airdrop.sol\":1104:1114  msg.sender */\n      caller\n        /* \"Documents/GitHub/XRC-Airdrop/contracts/Airdrop.sol\":1104:1123  msg.sender == owner */\n      0xffffffffffffffffffffffffffffffffffffffff\n      and\n      eq\n        /* \"Documents/GitHub/XRC-Airdrop/contracts/Airdrop.sol\":1096:1147  require(msg.sender == owner, \"Caller is not owner\") */\n      tag_110\n      jumpi\n      mload(0x40)\n      0x08c379a000000000000000000000000000000000000000000000000000000000\n      dup2\n      mstore\n      0x04\n      add\n      tag_111\n      swap1\n      tag_83\n      jump\t// in\n    tag_111:\n      mload(0x40)\n      dup1\n      swap2\n      sub\n      swap1\n      revert\n    tag_110:\n        /* \"Documents/GitHub/XRC-Airdrop/contracts/Airdrop.sol\":1253:1258  false */\n      0x00\n        /* \"Documents/GitHub/XRC-Airdrop/contracts/Airdrop.sol\":1236:1258  AirDropStatus == false */\n      iszero\n      iszero\n        /* \"Documents/GitHub/XRC-Airdrop/contracts/Airdrop.sol\":1236:1249  AirDropStatus */\n      0x03\n      0x00\n      swap1\n      sload\n      swap1\n      0x0100\n      exp\n      swap1\n      div\n      0xff\n      and\n        /* \"Documents/GitHub/XRC-Airdrop/contracts/Airdrop.sol\":1236:1258  AirDropStatus == false */\n      iszero\n      iszero\n      eq\n        /* \"Documents/GitHub/XRC-Airdrop/contracts/Airdrop.sol\":1228:1291  require(AirDropStatus == false, \"Airdrop status must be false\") */\n      tag_113\n      jumpi\n      mload(0x40)\n      0x08c379a000000000000000000000000000000000000000000000000000000000\n      dup2\n      mstore\n      0x04\n      add\n      tag_114\n      swap1\n      tag_87\n      jump\t// in\n    tag_114:\n      mload(0x40)\n      dup1\n      swap2\n      sub\n      swap1\n      revert\n    tag_113:\n        /* \"Documents/GitHub/XRC-Airdrop/contracts/Airdrop.sol\":1827:1835  newOwner */\n      dup1\n        /* \"Documents/GitHub/XRC-Airdrop/contracts/Airdrop.sol\":1811:1836  OwnerSet(owner, newOwner) */\n      0xffffffffffffffffffffffffffffffffffffffff\n      and\n        /* \"Documents/GitHub/XRC-Airdrop/contracts/Airdrop.sol\":1820:1825  owner */\n      0x00\n      dup1\n      sload\n      swap1\n      0x0100\n      exp\n      swap1\n      div\n      0xffffffffffffffffffffffffffffffffffffffff\n      and\n        /* \"Documents/GitHub/XRC-Airdrop/contracts/Airdrop.sol\":1811:1836  OwnerSet(owner, newOwner) */\n      0xffffffffffffffffffffffffffffffffffffffff\n      and\n      0x342827c97908e5e2f71151c08502a66d44b6f758e3ac2f1de95f02eb95f0a735\n      mload(0x40)\n      mload(0x40)\n      dup1\n      swap2\n      sub\n      swap1\n      log3\n        /* \"Documents/GitHub/XRC-Airdrop/contracts/Airdrop.sol\":1854:1862  newOwner */\n      dup1\n        /* \"Documents/GitHub/XRC-Airdrop/contracts/Airdrop.sol\":1846:1851  owner */\n      0x00\n      dup1\n        /* \"Documents/GitHub/XRC-Airdrop/contracts/Airdrop.sol\":1846:1862  owner = newOwner */\n      0x0100\n      exp\n      dup2\n      sload\n      dup2\n      0xffffffffffffffffffffffffffffffffffffffff\n      mul\n      not\n      and\n      swap1\n      dup4\n      0xffffffffffffffffffffffffffffffffffffffff\n      and\n      mul\n      or\n      swap1\n      sstore\n      pop\n        /* \"Documents/GitHub/XRC-Airdrop/contracts/Airdrop.sol\":1731:1869  function changeOwner(address newOwner) public isOwner preAirdrop {... */\n      pop\n      jump\t// out\n        /* \"Documents/GitHub/XRC-Airdrop/contracts/Airdrop.sol\":3825:4184  function RedeemAirdrop(uint i)public postAirdrop returns(bool){... */\n    tag_56:\n        /* \"Documents/GitHub/XRC-Airdrop/contracts/Airdrop.sol\":3882:3886  bool */\n      0x00\n        /* \"Documents/GitHub/XRC-Airdrop/contracts/Airdrop.sol\":1399:1403  true */\n      0x01\n        /* \"Documents/GitHub/XRC-Airdrop/contracts/Airdrop.sol\":1382:1403  AirDropStatus == true */\n      iszero\n      iszero\n        /* \"Documents/GitHub/XRC-Airdrop/contracts/Airdrop.sol\":1382:1395  AirDropStatus */\n      0x03\n      0x00\n      swap1\n      sload\n      swap1\n      0x0100\n      exp\n      swap1\n      div\n      0xff\n      and\n        /* \"Documents/GitHub/XRC-Airdrop/contracts/Airdrop.sol\":1382:1403  AirDropStatus == true */\n      iszero\n      iszero\n      eq\n        /* \"Documents/GitHub/XRC-Airdrop/contracts/Airdrop.sol\":1374:1434  require(AirDropStatus == true,\"Airdrop status must be true\") */\n      tag_117\n      jumpi\n      mload(0x40)\n      0x08c379a000000000000000000000000000000000000000000000000000000000\n      dup2\n      mstore\n      0x04\n      add\n      tag_118\n      swap1\n      tag_119\n      jump\t// in\n    tag_118:\n      mload(0x40)\n      dup1\n      swap2\n      sub\n      swap1\n      revert\n    tag_117:\n        /* \"Documents/GitHub/XRC-Airdrop/contracts/Airdrop.sol\":3941:4156  for(i;i<=airdropCount;i++){... */\n    tag_121:\n        /* \"Documents/GitHub/XRC-Airdrop/contracts/Airdrop.sol\":3950:3962  airdropCount */\n      sload(0x01)\n        /* \"Documents/GitHub/XRC-Airdrop/contracts/Airdrop.sol\":3947:3948  i */\n      dup3\n        /* \"Documents/GitHub/XRC-Airdrop/contracts/Airdrop.sol\":3947:3962  i<=airdropCount */\n      gt\n        /* \"Documents/GitHub/XRC-Airdrop/contracts/Airdrop.sol\":3941:4156  for(i;i<=airdropCount;i++){... */\n      tag_122\n      jumpi\n        /* \"Documents/GitHub/XRC-Airdrop/contracts/Airdrop.sol\":4007:4017  msg.sender */\n      caller\n        /* \"Documents/GitHub/XRC-Airdrop/contracts/Airdrop.sol\":3984:4017  userAirdrop[i].User == msg.sender */\n      0xffffffffffffffffffffffffffffffffffffffff\n      and\n        /* \"Documents/GitHub/XRC-Airdrop/contracts/Airdrop.sol\":3984:3995  userAirdrop */\n      0x06\n        /* \"Documents/GitHub/XRC-Airdrop/contracts/Airdrop.sol\":3984:3998  userAirdrop[i] */\n      0x00\n        /* \"Documents/GitHub/XRC-Airdrop/contracts/Airdrop.sol\":3996:3997  i */\n      dup5\n        /* \"Documents/GitHub/XRC-Airdrop/contracts/Airdrop.sol\":3984:3998  userAirdrop[i] */\n      dup2\n      mstore\n      0x20\n      add\n      swap1\n      dup2\n      mstore\n      0x20\n      add\n      0x00\n      keccak256\n        /* \"Documents/GitHub/XRC-Airdrop/contracts/Airdrop.sol\":3984:4003  userAirdrop[i].User */\n      0x00\n      add\n      0x00\n      swap1\n      sload\n      swap1\n      0x0100\n      exp\n      swap1\n      div\n      0xffffffffffffffffffffffffffffffffffffffff\n      and\n        /* \"Documents/GitHub/XRC-Airdrop/contracts/Airdrop.sol\":3984:4017  userAirdrop[i].User == msg.sender */\n      0xffffffffffffffffffffffffffffffffffffffff\n      and\n      sub\n        /* \"Documents/GitHub/XRC-Airdrop/contracts/Airdrop.sol\":3981:4146  if(userAirdrop[i].User == msg.sender){... */\n      tag_124\n      jumpi\n        /* \"Documents/GitHub/XRC-Airdrop/contracts/Airdrop.sol\":4036:4048  XRC_Contract */\n      0x05\n      0x00\n      swap1\n      sload\n      swap1\n      0x0100\n      exp\n      swap1\n      div\n      0xffffffffffffffffffffffffffffffffffffffff\n      and\n        /* \"Documents/GitHub/XRC-Airdrop/contracts/Airdrop.sol\":4036:4057  XRC_Contract.transfer */\n      0xffffffffffffffffffffffffffffffffffffffff\n      and\n      0xa9059cbb\n        /* \"Documents/GitHub/XRC-Airdrop/contracts/Airdrop.sol\":4058:4063  owner */\n      0x00\n      dup1\n      sload\n      swap1\n      0x0100\n      exp\n      swap1\n      div\n      0xffffffffffffffffffffffffffffffffffffffff\n      and\n        /* \"Documents/GitHub/XRC-Airdrop/contracts/Airdrop.sol\":4064:4075  userAirdrop */\n      0x06\n        /* \"Documents/GitHub/XRC-Airdrop/contracts/Airdrop.sol\":4064:4078  userAirdrop[i] */\n      0x00\n        /* \"Documents/GitHub/XRC-Airdrop/contracts/Airdrop.sol\":4076:4077  i */\n      dup7\n        /* \"Documents/GitHub/XRC-Airdrop/contracts/Airdrop.sol\":4064:4078  userAirdrop[i] */\n      dup2\n      mstore\n      0x20\n      add\n      swap1\n      dup2\n      mstore\n      0x20\n      add\n      0x00\n      keccak256\n        /* \"Documents/GitHub/XRC-Airdrop/contracts/Airdrop.sol\":4064:4085  userAirdrop[i].amount */\n      0x01\n      add\n      sload\n        /* \"Documents/GitHub/XRC-Airdrop/contracts/Airdrop.sol\":4036:4086  XRC_Contract.transfer(owner,userAirdrop[i].amount) */\n      mload(0x40)\n      dup4\n      0xffffffff\n      and\n      0xe0\n      shl\n      dup2\n      mstore\n      0x04\n      add\n      tag_125\n      swap3\n      swap2\n      swap1\n      tag_126\n      jump\t// in\n    tag_125:\n      0x20\n      mload(0x40)\n      dup1\n      dup4\n      sub\n      dup2\n      0x00\n      dup8\n      gas\n      call\n      iszero\n      dup1\n      iszero\n      tag_128\n      jumpi\n      returndatasize\n      0x00\n      dup1\n      returndatacopy\n      revert(0x00, returndatasize)\n    tag_128:\n      pop\n      pop\n      pop\n      pop\n      mload(0x40)\n      returndatasize\n      not(0x1f)\n      0x1f\n      dup3\n      add\n      and\n      dup3\n      add\n      dup1\n      0x40\n      mstore\n      pop\n      dup2\n      add\n      swap1\n      tag_129\n      swap2\n      swap1\n      tag_130\n      jump\t// in\n    tag_129:\n      pop\n        /* \"Documents/GitHub/XRC-Airdrop/contracts/Airdrop.sol\":4111:4115  true */\n      0x01\n        /* \"Documents/GitHub/XRC-Airdrop/contracts/Airdrop.sol\":4104:4115  return true */\n      swap1\n      pop\n      jump(tag_120)\n        /* \"Documents/GitHub/XRC-Airdrop/contracts/Airdrop.sol\":3981:4146  if(userAirdrop[i].User == msg.sender){... */\n    tag_124:\n        /* \"Documents/GitHub/XRC-Airdrop/contracts/Airdrop.sol\":3963:3966  i++ */\n      dup2\n      dup1\n      tag_131\n      swap1\n      tag_95\n      jump\t// in\n    tag_131:\n      swap3\n      pop\n      pop\n        /* \"Documents/GitHub/XRC-Airdrop/contracts/Airdrop.sol\":3941:4156  for(i;i<=airdropCount;i++){... */\n      jump(tag_121)\n    tag_122:\n        /* \"Documents/GitHub/XRC-Airdrop/contracts/Airdrop.sol\":4172:4177  false */\n      0x00\n        /* \"Documents/GitHub/XRC-Airdrop/contracts/Airdrop.sol\":4165:4177  return false */\n      swap1\n      pop\n        /* \"Documents/GitHub/XRC-Airdrop/contracts/Airdrop.sol\":1444:1445  _ */\n    tag_120:\n        /* \"Documents/GitHub/XRC-Airdrop/contracts/Airdrop.sol\":3825:4184  function RedeemAirdrop(uint i)public postAirdrop returns(bool){... */\n      swap2\n      swap1\n      pop\n      jump\t// out\n        /* \"Documents/GitHub/XRC-Airdrop/contracts/Airdrop.sol\":2572:3047  function RemoveUser(uint _userCount,bool _exist)public isOwner preAirdrop returns(string memory){... */\n    tag_61:\n        /* \"Documents/GitHub/XRC-Airdrop/contracts/Airdrop.sol\":2654:2667  string memory */\n      0x60\n        /* \"Documents/GitHub/XRC-Airdrop/contracts/Airdrop.sol\":1118:1123  owner */\n      0x00\n      dup1\n      sload\n      swap1\n      0x0100\n      exp\n      swap1\n      div\n      0xffffffffffffffffffffffffffffffffffffffff\n      and\n        /* \"Documents/GitHub/XRC-Airdrop/contracts/Airdrop.sol\":1104:1123  msg.sender == owner */\n      0xffffffffffffffffffffffffffffffffffffffff\n      and\n        /* \"Documents/GitHub/XRC-Airdrop/contracts/Airdrop.sol\":1104:1114  msg.sender */\n      caller\n        /* \"Documents/GitHub/XRC-Airdrop/contracts/Airdrop.sol\":1104:1123  msg.sender == owner */\n      0xffffffffffffffffffffffffffffffffffffffff\n      and\n      eq\n        /* \"Documents/GitHub/XRC-Airdrop/contracts/Airdrop.sol\":1096:1147  require(msg.sender == owner, \"Caller is not owner\") */\n      tag_133\n      jumpi\n      mload(0x40)\n      0x08c379a000000000000000000000000000000000000000000000000000000000\n      dup2\n      mstore\n      0x04\n      add\n      tag_134\n      swap1\n      tag_83\n      jump\t// in\n    tag_134:\n      mload(0x40)\n      dup1\n      swap2\n      sub\n      swap1\n      revert\n    tag_133:\n        /* \"Documents/GitHub/XRC-Airdrop/contracts/Airdrop.sol\":1253:1258  false */\n      0x00\n        /* \"Documents/GitHub/XRC-Airdrop/contracts/Airdrop.sol\":1236:1258  AirDropStatus == false */\n      iszero\n      iszero\n        /* \"Documents/GitHub/XRC-Airdrop/contracts/Airdrop.sol\":1236:1249  AirDropStatus */\n      0x03\n      0x00\n      swap1\n      sload\n      swap1\n      0x0100\n      exp\n      swap1\n      div\n      0xff\n      and\n        /* \"Documents/GitHub/XRC-Airdrop/contracts/Airdrop.sol\":1236:1258  AirDropStatus == false */\n      iszero\n      iszero\n      eq\n        /* \"Documents/GitHub/XRC-Airdrop/contracts/Airdrop.sol\":1228:1291  require(AirDropStatus == false, \"Airdrop status must be false\") */\n      tag_136\n      jumpi\n      mload(0x40)\n      0x08c379a000000000000000000000000000000000000000000000000000000000\n      dup2\n      mstore\n      0x04\n      add\n      tag_137\n      swap1\n      tag_87\n      jump\t// in\n    tag_137:\n      mload(0x40)\n      dup1\n      swap2\n      sub\n      swap1\n      revert\n    tag_136:\n        /* \"Documents/GitHub/XRC-Airdrop/contracts/Airdrop.sol\":2710:2716  _exist */\n      dup2\n        /* \"Documents/GitHub/XRC-Airdrop/contracts/Airdrop.sol\":2678:2689  userAirdrop */\n      0x06\n        /* \"Documents/GitHub/XRC-Airdrop/contracts/Airdrop.sol\":2678:2701  userAirdrop[_userCount] */\n      0x00\n        /* \"Documents/GitHub/XRC-Airdrop/contracts/Airdrop.sol\":2690:2700  _userCount */\n      dup6\n        /* \"Documents/GitHub/XRC-Airdrop/contracts/Airdrop.sol\":2678:2701  userAirdrop[_userCount] */\n      dup2\n      mstore\n      0x20\n      add\n      swap1\n      dup2\n      mstore\n      0x20\n      add\n      0x00\n      keccak256\n        /* \"Documents/GitHub/XRC-Airdrop/contracts/Airdrop.sol\":2678:2707  userAirdrop[_userCount].exist */\n      0x02\n      add\n      0x00\n        /* \"Documents/GitHub/XRC-Airdrop/contracts/Airdrop.sol\":2678:2716  userAirdrop[_userCount].exist = _exist */\n      0x0100\n      exp\n      dup2\n      sload\n      dup2\n      0xff\n      mul\n      not\n      and\n      swap1\n      dup4\n      iszero\n      iszero\n      mul\n      or\n      swap1\n      sstore\n      pop\n        /* \"Documents/GitHub/XRC-Airdrop/contracts/Airdrop.sol\":2739:2744  false */\n      0x00\n        /* \"Documents/GitHub/XRC-Airdrop/contracts/Airdrop.sol\":2729:2744  _exist == false */\n      iszero\n      iszero\n        /* \"Documents/GitHub/XRC-Airdrop/contracts/Airdrop.sol\":2729:2735  _exist */\n      dup3\n        /* \"Documents/GitHub/XRC-Airdrop/contracts/Airdrop.sol\":2729:2744  _exist == false */\n      iszero\n      iszero\n      sub\n        /* \"Documents/GitHub/XRC-Airdrop/contracts/Airdrop.sol\":2726:3041  if(_exist == false){... */\n      tag_139\n      jumpi\n        /* \"Documents/GitHub/XRC-Airdrop/contracts/Airdrop.sol\":2791:2802  userAirdrop */\n      0x06\n        /* \"Documents/GitHub/XRC-Airdrop/contracts/Airdrop.sol\":2791:2814  userAirdrop[_userCount] */\n      0x00\n        /* \"Documents/GitHub/XRC-Airdrop/contracts/Airdrop.sol\":2803:2813  _userCount */\n      dup5\n        /* \"Documents/GitHub/XRC-Airdrop/contracts/Airdrop.sol\":2791:2814  userAirdrop[_userCount] */\n      dup2\n      mstore\n      0x20\n      add\n      swap1\n      dup2\n      mstore\n      0x20\n      add\n      0x00\n      keccak256\n        /* \"Documents/GitHub/XRC-Airdrop/contracts/Airdrop.sol\":2791:2821  userAirdrop[_userCount].amount */\n      0x01\n      add\n      sload\n        /* \"Documents/GitHub/XRC-Airdrop/contracts/Airdrop.sol\":2775:2788  TotalAlocated */\n      sload(0x02)\n        /* \"Documents/GitHub/XRC-Airdrop/contracts/Airdrop.sol\":2775:2821  TotalAlocated - userAirdrop[_userCount].amount */\n      tag_140\n      swap2\n      swap1\n      tag_91\n      jump\t// in\n    tag_140:\n        /* \"Documents/GitHub/XRC-Airdrop/contracts/Airdrop.sol\":2759:2772  TotalAlocated */\n      0x02\n        /* \"Documents/GitHub/XRC-Airdrop/contracts/Airdrop.sol\":2759:2821  TotalAlocated = TotalAlocated - userAirdrop[_userCount].amount */\n      dup2\n      swap1\n      sstore\n      pop\n        /* \"Documents/GitHub/XRC-Airdrop/contracts/Airdrop.sol\":2881:2894  TotalAlocated */\n      sload(0x02)\n        /* \"Documents/GitHub/XRC-Airdrop/contracts/Airdrop.sol\":2855:2878  viewBalanceInContract() */\n      tag_141\n        /* \"Documents/GitHub/XRC-Airdrop/contracts/Airdrop.sol\":2855:2876  viewBalanceInContract */\n      tag_70\n        /* \"Documents/GitHub/XRC-Airdrop/contracts/Airdrop.sol\":2855:2878  viewBalanceInContract() */\n      jump\t// in\n    tag_141:\n        /* \"Documents/GitHub/XRC-Airdrop/contracts/Airdrop.sol\":2855:2894  viewBalanceInContract() - TotalAlocated */\n      tag_142\n      swap2\n      swap1\n      tag_91\n      jump\t// in\n    tag_142:\n        /* \"Documents/GitHub/XRC-Airdrop/contracts/Airdrop.sol\":2835:2852  leftToBeAllocated */\n      0x04\n        /* \"Documents/GitHub/XRC-Airdrop/contracts/Airdrop.sol\":2835:2894  leftToBeAllocated = viewBalanceInContract() - TotalAlocated */\n      dup2\n      swap1\n      sstore\n      pop\n        /* \"Documents/GitHub/XRC-Airdrop/contracts/Airdrop.sol\":2939:2940  0 */\n      0x00\n        /* \"Documents/GitHub/XRC-Airdrop/contracts/Airdrop.sol\":2908:2919  userAirdrop */\n      0x06\n        /* \"Documents/GitHub/XRC-Airdrop/contracts/Airdrop.sol\":2908:2931  userAirdrop[_userCount] */\n      0x00\n        /* \"Documents/GitHub/XRC-Airdrop/contracts/Airdrop.sol\":2920:2930  _userCount */\n      dup6\n        /* \"Documents/GitHub/XRC-Airdrop/contracts/Airdrop.sol\":2908:2931  userAirdrop[_userCount] */\n      dup2\n      mstore\n      0x20\n      add\n      swap1\n      dup2\n      mstore\n      0x20\n      add\n      0x00\n      keccak256\n        /* \"Documents/GitHub/XRC-Airdrop/contracts/Airdrop.sol\":2908:2938  userAirdrop[_userCount].amount */\n      0x01\n      add\n        /* \"Documents/GitHub/XRC-Airdrop/contracts/Airdrop.sol\":2908:2940  userAirdrop[_userCount].amount=0 */\n      dup2\n      swap1\n      sstore\n      pop\n        /* \"Documents/GitHub/XRC-Airdrop/contracts/Airdrop.sol\":2954:2975  return \"User removed\" */\n      mload(0x40)\n      dup1\n      0x40\n      add\n      0x40\n      mstore\n      dup1\n      0x0c\n      dup2\n      mstore\n      0x20\n      add\n      0x557365722072656d6f7665640000000000000000000000000000000000000000\n      dup2\n      mstore\n      pop\n      swap1\n      pop\n      jump(tag_138)\n        /* \"Documents/GitHub/XRC-Airdrop/contracts/Airdrop.sol\":2726:3041  if(_exist == false){... */\n    tag_139:\n        /* \"Documents/GitHub/XRC-Airdrop/contracts/Airdrop.sol\":3005:3030  return \"User not removed\" */\n      mload(0x40)\n      dup1\n      0x40\n      add\n      0x40\n      mstore\n      dup1\n      0x10\n      dup2\n      mstore\n      0x20\n      add\n      0x55736572206e6f742072656d6f76656400000000000000000000000000000000\n      dup2\n      mstore\n      pop\n      swap1\n      pop\n        /* \"Documents/GitHub/XRC-Airdrop/contracts/Airdrop.sol\":1301:1302  _ */\n    tag_138:\n        /* \"Documents/GitHub/XRC-Airdrop/contracts/Airdrop.sol\":2572:3047  function RemoveUser(uint _userCount,bool _exist)public isOwner preAirdrop returns(string memory){... */\n      swap3\n      swap2\n      pop\n      pop\n      jump\t// out\n        /* \"Documents/GitHub/XRC-Airdrop/contracts/Airdrop.sol\":3483:3719  function DeployAirDrop(bool _status)public isOwner preAirdrop returns(bool){... */\n    tag_67:\n        /* \"Documents/GitHub/XRC-Airdrop/contracts/Airdrop.sol\":3553:3557  bool */\n      0x00\n        /* \"Documents/GitHub/XRC-Airdrop/contracts/Airdrop.sol\":1118:1123  owner */\n      dup1\n      0x00\n      swap1\n      sload\n      swap1\n      0x0100\n      exp\n      swap1\n      div\n      0xffffffffffffffffffffffffffffffffffffffff\n      and\n        /* \"Documents/GitHub/XRC-Airdrop/contracts/Airdrop.sol\":1104:1123  msg.sender == owner */\n      0xffffffffffffffffffffffffffffffffffffffff\n      and\n        /* \"Documents/GitHub/XRC-Airdrop/contracts/Airdrop.sol\":1104:1114  msg.sender */\n      caller\n        /* \"Documents/GitHub/XRC-Airdrop/contracts/Airdrop.sol\":1104:1123  msg.sender == owner */\n      0xffffffffffffffffffffffffffffffffffffffff\n      and\n      eq\n        /* \"Documents/GitHub/XRC-Airdrop/contracts/Airdrop.sol\":1096:1147  require(msg.sender == owner, \"Caller is not owner\") */\n      tag_145\n      jumpi\n      mload(0x40)\n      0x08c379a000000000000000000000000000000000000000000000000000000000\n      dup2\n      mstore\n      0x04\n      add\n      tag_146\n      swap1\n      tag_83\n      jump\t// in\n    tag_146:\n      mload(0x40)\n      dup1\n      swap2\n      sub\n      swap1\n      revert\n    tag_145:\n        /* \"Documents/GitHub/XRC-Airdrop/contracts/Airdrop.sol\":1253:1258  false */\n      0x00\n        /* \"Documents/GitHub/XRC-Airdrop/contracts/Airdrop.sol\":1236:1258  AirDropStatus == false */\n      iszero\n      iszero\n        /* \"Documents/GitHub/XRC-Airdrop/contracts/Airdrop.sol\":1236:1249  AirDropStatus */\n      0x03\n      0x00\n      swap1\n      sload\n      swap1\n      0x0100\n      exp\n      swap1\n      div\n      0xff\n      and\n        /* \"Documents/GitHub/XRC-Airdrop/contracts/Airdrop.sol\":1236:1258  AirDropStatus == false */\n      iszero\n      iszero\n      eq\n        /* \"Documents/GitHub/XRC-Airdrop/contracts/Airdrop.sol\":1228:1291  require(AirDropStatus == false, \"Airdrop status must be false\") */\n      tag_148\n      jumpi\n      mload(0x40)\n      0x08c379a000000000000000000000000000000000000000000000000000000000\n      dup2\n      mstore\n      0x04\n      add\n      tag_149\n      swap1\n      tag_87\n      jump\t// in\n    tag_149:\n      mload(0x40)\n      dup1\n      swap2\n      sub\n      swap1\n      revert\n    tag_148:\n        /* \"Documents/GitHub/XRC-Airdrop/contracts/Airdrop.sol\":3584:3591  _status */\n      dup2\n        /* \"Documents/GitHub/XRC-Airdrop/contracts/Airdrop.sol\":3568:3581  AirDropStatus */\n      0x03\n      0x00\n        /* \"Documents/GitHub/XRC-Airdrop/contracts/Airdrop.sol\":3568:3591  AirDropStatus = _status */\n      0x0100\n      exp\n      dup2\n      sload\n      dup2\n      0xff\n      mul\n      not\n      and\n      swap1\n      dup4\n      iszero\n      iszero\n      mul\n      or\n      swap1\n      sstore\n      pop\n        /* \"Documents/GitHub/XRC-Airdrop/contracts/Airdrop.sol\":3601:3613  XRC_Contract */\n      0x05\n      0x00\n      swap1\n      sload\n      swap1\n      0x0100\n      exp\n      swap1\n      div\n      0xffffffffffffffffffffffffffffffffffffffff\n      and\n        /* \"Documents/GitHub/XRC-Airdrop/contracts/Airdrop.sol\":3601:3622  XRC_Contract.transfer */\n      0xffffffffffffffffffffffffffffffffffffffff\n      and\n      0xa9059cbb\n        /* \"Documents/GitHub/XRC-Airdrop/contracts/Airdrop.sol\":3623:3633  msg.sender */\n      caller\n        /* \"Documents/GitHub/XRC-Airdrop/contracts/Airdrop.sol\":3634:3651  leftToBeAllocated */\n      sload(0x04)\n        /* \"Documents/GitHub/XRC-Airdrop/contracts/Airdrop.sol\":3601:3652  XRC_Contract.transfer(msg.sender,leftToBeAllocated) */\n      mload(0x40)\n      dup4\n      0xffffffff\n      and\n      0xe0\n      shl\n      dup2\n      mstore\n      0x04\n      add\n      tag_151\n      swap3\n      swap2\n      swap1\n      tag_126\n      jump\t// in\n    tag_151:\n      0x20\n      mload(0x40)\n      dup1\n      dup4\n      sub\n      dup2\n      0x00\n      dup8\n      gas\n      call\n      iszero\n      dup1\n      iszero\n      tag_153\n      jumpi\n      returndatasize\n      0x00\n      dup1\n      returndatacopy\n      revert(0x00, returndatasize)\n    tag_153:\n      pop\n      pop\n      pop\n      pop\n      mload(0x40)\n      returndatasize\n      not(0x1f)\n      0x1f\n      dup3\n      add\n      and\n      dup3\n      add\n      dup1\n      0x40\n      mstore\n      pop\n      dup2\n      add\n      swap1\n      tag_154\n      swap2\n      swap1\n      tag_130\n      jump\t// in\n    tag_154:\n      pop\n        /* \"Documents/GitHub/XRC-Airdrop/contracts/Airdrop.sol\":3681:3682  0 */\n      0x00\n        /* \"Documents/GitHub/XRC-Airdrop/contracts/Airdrop.sol\":3662:3679  leftToBeAllocated */\n      0x04\n        /* \"Documents/GitHub/XRC-Airdrop/contracts/Airdrop.sol\":3662:3682  leftToBeAllocated =0 */\n      dup2\n      swap1\n      sstore\n      pop\n        /* \"Documents/GitHub/XRC-Airdrop/contracts/Airdrop.sol\":3699:3712  AirDropStatus */\n      0x03\n      0x00\n      swap1\n      sload\n      swap1\n      0x0100\n      exp\n      swap1\n      div\n      0xff\n      and\n        /* \"Documents/GitHub/XRC-Airdrop/contracts/Airdrop.sol\":3692:3712  return AirDropStatus */\n      swap1\n      pop\n        /* \"Documents/GitHub/XRC-Airdrop/contracts/Airdrop.sol\":3483:3719  function DeployAirDrop(bool _status)public isOwner preAirdrop returns(bool){... */\n      swap2\n      swap1\n      pop\n      jump\t// out\n        /* \"Documents/GitHub/XRC-Airdrop/contracts/Airdrop.sol\":4230:4475  function viewBalanceInContract()public view isOwner returns(uint){... */\n    tag_70:\n        /* \"Documents/GitHub/XRC-Airdrop/contracts/Airdrop.sol\":4290:4294  uint */\n      0x00\n        /* \"Documents/GitHub/XRC-Airdrop/contracts/Airdrop.sol\":1118:1123  owner */\n      dup1\n      0x00\n      swap1\n      sload\n      swap1\n      0x0100\n      exp\n      swap1\n      div\n      0xffffffffffffffffffffffffffffffffffffffff\n      and\n        /* \"Documents/GitHub/XRC-Airdrop/contracts/Airdrop.sol\":1104:1123  msg.sender == owner */\n      0xffffffffffffffffffffffffffffffffffffffff\n      and\n        /* \"Documents/GitHub/XRC-Airdrop/contracts/Airdrop.sol\":1104:1114  msg.sender */\n      caller\n        /* \"Documents/GitHub/XRC-Airdrop/contracts/Airdrop.sol\":1104:1123  msg.sender == owner */\n      0xffffffffffffffffffffffffffffffffffffffff\n      and\n      eq\n        /* \"Documents/GitHub/XRC-Airdrop/contracts/Airdrop.sol\":1096:1147  require(msg.sender == owner, \"Caller is not owner\") */\n      tag_156\n      jumpi\n      mload(0x40)\n      0x08c379a000000000000000000000000000000000000000000000000000000000\n      dup2\n      mstore\n      0x04\n      add\n      tag_157\n      swap1\n      tag_83\n      jump\t// in\n    tag_157:\n      mload(0x40)\n      dup1\n      swap2\n      sub\n      swap1\n      revert\n    tag_156:\n        /* \"Documents/GitHub/XRC-Airdrop/contracts/Airdrop.sol\":4305:4326  uint tokensInContract */\n      0x00\n        /* \"Documents/GitHub/XRC-Airdrop/contracts/Airdrop.sol\":4329:4341  XRC_Contract */\n      0x05\n      0x00\n      swap1\n      sload\n      swap1\n      0x0100\n      exp\n      swap1\n      div\n      0xffffffffffffffffffffffffffffffffffffffff\n      and\n        /* \"Documents/GitHub/XRC-Airdrop/contracts/Airdrop.sol\":4329:4351  XRC_Contract.balanceOf */\n      0xffffffffffffffffffffffffffffffffffffffff\n      and\n      0x70a08231\n        /* \"Documents/GitHub/XRC-Airdrop/contracts/Airdrop.sol\":4360:4364  this */\n      address\n        /* \"Documents/GitHub/XRC-Airdrop/contracts/Airdrop.sol\":4329:4366  XRC_Contract.balanceOf(address(this)) */\n      mload(0x40)\n      dup3\n      0xffffffff\n      and\n      0xe0\n      shl\n      dup2\n      mstore\n      0x04\n      add\n      tag_159\n      swap2\n      swap1\n      tag_40\n      jump\t// in\n    tag_159:\n      0x20\n      mload(0x40)\n      dup1\n      dup4\n      sub\n      dup2\n      dup7\n      gas\n      staticcall\n      iszero\n      dup1\n      iszero\n      tag_161\n      jumpi\n      returndatasize\n      0x00\n      dup1\n      returndatacopy\n      revert(0x00, returndatasize)\n    tag_161:\n      pop\n      pop\n      pop\n      pop\n      mload(0x40)\n      returndatasize\n      not(0x1f)\n      0x1f\n      dup3\n      add\n      and\n      dup3\n      add\n      dup1\n      0x40\n      mstore\n      pop\n      dup2\n      add\n      swap1\n      tag_162\n      swap2\n      swap1\n      tag_163\n      jump\t// in\n    tag_162:\n        /* \"Documents/GitHub/XRC-Airdrop/contracts/Airdrop.sol\":4305:4366  uint tokensInContract = XRC_Contract.balanceOf(address(this)) */\n      swap1\n      pop\n        /* \"Documents/GitHub/XRC-Airdrop/contracts/Airdrop.sol\":4452:4468  tokensInContract */\n      dup1\n        /* \"Documents/GitHub/XRC-Airdrop/contracts/Airdrop.sol\":4445:4468  return tokensInContract */\n      swap2\n      pop\n      pop\n        /* \"Documents/GitHub/XRC-Airdrop/contracts/Airdrop.sol\":4230:4475  function viewBalanceInContract()public view isOwner returns(uint){... */\n      swap1\n      jump\t// out\n        /* \"Documents/GitHub/XRC-Airdrop/contracts/Airdrop.sol\":787:813  uint public airdropCount=0 */\n    tag_73:\n      sload(0x01)\n      dup2\n      jump\t// out\n        /* \"Documents/GitHub/XRC-Airdrop/contracts/Airdrop.sol\":3093:3282  function ViewUsers(uint _userCount) public view returns(address,uint,bool){... */\n    tag_77:\n        /* \"Documents/GitHub/XRC-Airdrop/contracts/Airdrop.sol\":3149:3156  address */\n      0x00\n        /* \"Documents/GitHub/XRC-Airdrop/contracts/Airdrop.sol\":3157:3161  uint */\n      dup1\n        /* \"Documents/GitHub/XRC-Airdrop/contracts/Airdrop.sol\":3162:3166  bool */\n      0x00\n        /* \"Documents/GitHub/XRC-Airdrop/contracts/Airdrop.sol\":3185:3196  userAirdrop */\n      0x06\n        /* \"Documents/GitHub/XRC-Airdrop/contracts/Airdrop.sol\":3185:3208  userAirdrop[_userCount] */\n      0x00\n        /* \"Documents/GitHub/XRC-Airdrop/contracts/Airdrop.sol\":3197:3207  _userCount */\n      dup6\n        /* \"Documents/GitHub/XRC-Airdrop/contracts/Airdrop.sol\":3185:3208  userAirdrop[_userCount] */\n      dup2\n      mstore\n      0x20\n      add\n      swap1\n      dup2\n      mstore\n      0x20\n      add\n      0x00\n      keccak256\n        /* \"Documents/GitHub/XRC-Airdrop/contracts/Airdrop.sol\":3185:3213  userAirdrop[_userCount].User */\n      0x00\n      add\n      0x00\n      swap1\n      sload\n      swap1\n      0x0100\n      exp\n      swap1\n      div\n      0xffffffffffffffffffffffffffffffffffffffff\n      and\n        /* \"Documents/GitHub/XRC-Airdrop/contracts/Airdrop.sol\":3214:3225  userAirdrop */\n      0x06\n        /* \"Documents/GitHub/XRC-Airdrop/contracts/Airdrop.sol\":3214:3237  userAirdrop[_userCount] */\n      0x00\n        /* \"Documents/GitHub/XRC-Airdrop/contracts/Airdrop.sol\":3226:3236  _userCount */\n      dup7\n        /* \"Documents/GitHub/XRC-Airdrop/contracts/Airdrop.sol\":3214:3237  userAirdrop[_userCount] */\n      dup2\n      mstore\n      0x20\n      add\n      swap1\n      dup2\n      mstore\n      0x20\n      add\n      0x00\n      keccak256\n        /* \"Documents/GitHub/XRC-Airdrop/contracts/Airdrop.sol\":3214:3244  userAirdrop[_userCount].amount */\n      0x01\n      add\n      sload\n        /* \"Documents/GitHub/XRC-Airdrop/contracts/Airdrop.sol\":3245:3256  userAirdrop */\n      0x06\n        /* \"Documents/GitHub/XRC-Airdrop/contracts/Airdrop.sol\":3245:3268  userAirdrop[_userCount] */\n      0x00\n        /* \"Documents/GitHub/XRC-Airdrop/contracts/Airdrop.sol\":3257:3267  _userCount */\n      dup8\n        /* \"Documents/GitHub/XRC-Airdrop/contracts/Airdrop.sol\":3245:3268  userAirdrop[_userCount] */\n      dup2\n      mstore\n      0x20\n      add\n      swap1\n      dup2\n      mstore\n      0x20\n      add\n      0x00\n      keccak256\n        /* \"Documents/GitHub/XRC-Airdrop/contracts/Airdrop.sol\":3245:3274  userAirdrop[_userCount].exist */\n      0x02\n      add\n      0x00\n      swap1\n      sload\n      swap1\n      0x0100\n      exp\n      swap1\n      div\n      0xff\n      and\n        /* \"Documents/GitHub/XRC-Airdrop/contracts/Airdrop.sol\":3177:3275  return (userAirdrop[_userCount].User,userAirdrop[_userCount].amount,userAirdrop[_userCount].exist) */\n      swap3\n      pop\n      swap3\n      pop\n      swap3\n      pop\n        /* \"Documents/GitHub/XRC-Airdrop/contracts/Airdrop.sol\":3093:3282  function ViewUsers(uint _userCount) public view returns(address,uint,bool){... */\n      swap2\n      swap4\n      swap1\n      swap3\n      pop\n      jump\t// out\n        /* \"#utility.yul\":7:84   */\n    tag_165:\n        /* \"#utility.yul\":44:51   */\n      0x00\n        /* \"#utility.yul\":73:78   */\n      dup2\n        /* \"#utility.yul\":62:78   */\n      swap1\n      pop\n        /* \"#utility.yul\":7:84   */\n      swap2\n      swap1\n      pop\n      jump\t// out\n        /* \"#utility.yul\":90:208   */\n    tag_166:\n        /* \"#utility.yul\":177:201   */\n      tag_206\n        /* \"#utility.yul\":195:200   */\n      dup2\n        /* \"#utility.yul\":177:201   */\n      tag_165\n      jump\t// in\n    tag_206:\n        /* \"#utility.yul\":172:175   */\n      dup3\n        /* \"#utility.yul\":165:202   */\n      mstore\n        /* \"#utility.yul\":90:208   */\n      pop\n      pop\n      jump\t// out\n        /* \"#utility.yul\":214:436   */\n    tag_23:\n        /* \"#utility.yul\":307:311   */\n      0x00\n        /* \"#utility.yul\":345:347   */\n      0x20\n        /* \"#utility.yul\":334:343   */\n      dup3\n        /* \"#utility.yul\":330:348   */\n      add\n        /* \"#utility.yul\":322:348   */\n      swap1\n      pop\n        /* \"#utility.yul\":358:429   */\n      tag_208\n        /* \"#utility.yul\":426:427   */\n      0x00\n        /* \"#utility.yul\":415:424   */\n      dup4\n        /* \"#utility.yul\":411:428   */\n      add\n        /* \"#utility.yul\":402:408   */\n      dup5\n        /* \"#utility.yul\":358:429   */\n      tag_166\n      jump\t// in\n    tag_208:\n        /* \"#utility.yul\":214:436   */\n      swap3\n      swap2\n      pop\n      pop\n      jump\t// out\n        /* \"#utility.yul\":442:568   */\n    tag_167:\n        /* \"#utility.yul\":479:486   */\n      0x00\n        /* \"#utility.yul\":519:561   */\n      0xffffffffffffffffffffffffffffffffffffffff\n        /* \"#utility.yul\":512:517   */\n      dup3\n        /* \"#utility.yul\":508:562   */\n      and\n        /* \"#utility.yul\":497:562   */\n      swap1\n      pop\n        /* \"#utility.yul\":442:568   */\n      swap2\n      swap1\n      pop\n      jump\t// out\n        /* \"#utility.yul\":574:634   */\n    tag_168:\n        /* \"#utility.yul\":602:605   */\n      0x00\n        /* \"#utility.yul\":623:628   */\n      dup2\n        /* \"#utility.yul\":616:628   */\n      swap1\n      pop\n        /* \"#utility.yul\":574:634   */\n      swap2\n      swap1\n      pop\n      jump\t// out\n        /* \"#utility.yul\":640:782   */\n    tag_169:\n        /* \"#utility.yul\":690:699   */\n      0x00\n        /* \"#utility.yul\":723:776   */\n      tag_212\n        /* \"#utility.yul\":741:775   */\n      tag_213\n        /* \"#utility.yul\":750:774   */\n      tag_214\n        /* \"#utility.yul\":768:773   */\n      dup5\n        /* \"#utility.yul\":750:774   */\n      tag_167\n      jump\t// in\n    tag_214:\n        /* \"#utility.yul\":741:775   */\n      tag_168\n      jump\t// in\n    tag_213:\n        /* \"#utility.yul\":723:776   */\n      tag_167\n      jump\t// in\n    tag_212:\n        /* \"#utility.yul\":710:776   */\n      swap1\n      pop\n        /* \"#utility.yul\":640:782   */\n      swap2\n      swap1\n      pop\n      jump\t// out\n        /* \"#utility.yul\":788:914   */\n    tag_170:\n        /* \"#utility.yul\":838:847   */\n      0x00\n        /* \"#utility.yul\":871:908   */\n      tag_216\n        /* \"#utility.yul\":902:907   */\n      dup3\n        /* \"#utility.yul\":871:908   */\n      tag_169\n      jump\t// in\n    tag_216:\n        /* \"#utility.yul\":858:908   */\n      swap1\n      pop\n        /* \"#utility.yul\":788:914   */\n      swap2\n      swap1\n      pop\n      jump\t// out\n        /* \"#utility.yul\":920:1060   */\n    tag_171:\n        /* \"#utility.yul\":984:993   */\n      0x00\n        /* \"#utility.yul\":1017:1054   */\n      tag_218\n        /* \"#utility.yul\":1048:1053   */\n      dup3\n        /* \"#utility.yul\":1017:1054   */\n      tag_170\n      jump\t// in\n    tag_218:\n        /* \"#utility.yul\":1004:1054   */\n      swap1\n      pop\n        /* \"#utility.yul\":920:1060   */\n      swap2\n      swap1\n      pop\n      jump\t// out\n        /* \"#utility.yul\":1066:1225   */\n    tag_172:\n        /* \"#utility.yul\":1167:1218   */\n      tag_220\n        /* \"#utility.yul\":1212:1217   */\n      dup2\n        /* \"#utility.yul\":1167:1218   */\n      tag_171\n      jump\t// in\n    tag_220:\n        /* \"#utility.yul\":1162:1165   */\n      dup3\n        /* \"#utility.yul\":1155:1219   */\n      mstore\n        /* \"#utility.yul\":1066:1225   */\n      pop\n      pop\n      jump\t// out\n        /* \"#utility.yul\":1231:1481   */\n    tag_27:\n        /* \"#utility.yul\":1338:1342   */\n      0x00\n        /* \"#utility.yul\":1376:1378   */\n      0x20\n        /* \"#utility.yul\":1365:1374   */\n      dup3\n        /* \"#utility.yul\":1361:1379   */\n      add\n        /* \"#utility.yul\":1353:1379   */\n      swap1\n      pop\n        /* \"#utility.yul\":1389:1474   */\n      tag_222\n        /* \"#utility.yul\":1471:1472   */\n      0x00\n        /* \"#utility.yul\":1460:1469   */\n      dup4\n        /* \"#utility.yul\":1456:1473   */\n      add\n        /* \"#utility.yul\":1447:1453   */\n      dup5\n        /* \"#utility.yul\":1389:1474   */\n      tag_172\n      jump\t// in\n    tag_222:\n        /* \"#utility.yul\":1231:1481   */\n      swap3\n      swap2\n      pop\n      pop\n      jump\t// out\n        /* \"#utility.yul\":1568:1685   */\n    tag_174:\n        /* \"#utility.yul\":1677:1678   */\n      0x00\n        /* \"#utility.yul\":1674:1675   */\n      dup1\n        /* \"#utility.yul\":1667:1679   */\n      revert\n        /* \"#utility.yul\":1814:1910   */\n    tag_176:\n        /* \"#utility.yul\":1851:1858   */\n      0x00\n        /* \"#utility.yul\":1880:1904   */\n      tag_227\n        /* \"#utility.yul\":1898:1903   */\n      dup3\n        /* \"#utility.yul\":1880:1904   */\n      tag_167\n      jump\t// in\n    tag_227:\n        /* \"#utility.yul\":1869:1904   */\n      swap1\n      pop\n        /* \"#utility.yul\":1814:1910   */\n      swap2\n      swap1\n      pop\n      jump\t// out\n        /* \"#utility.yul\":1916:2038   */\n    tag_177:\n        /* \"#utility.yul\":1989:2013   */\n      tag_229\n        /* \"#utility.yul\":2007:2012   */\n      dup2\n        /* \"#utility.yul\":1989:2013   */\n      tag_176\n      jump\t// in\n    tag_229:\n        /* \"#utility.yul\":1982:1987   */\n      dup2\n        /* \"#utility.yul\":1979:2014   */\n      eq\n        /* \"#utility.yul\":1969:2032   */\n      tag_230\n      jumpi\n        /* \"#utility.yul\":2028:2029   */\n      0x00\n        /* \"#utility.yul\":2025:2026   */\n      dup1\n        /* \"#utility.yul\":2018:2030   */\n      revert\n        /* \"#utility.yul\":1969:2032   */\n    tag_230:\n        /* \"#utility.yul\":1916:2038   */\n      pop\n      jump\t// out\n        /* \"#utility.yul\":2044:2183   */\n    tag_178:\n        /* \"#utility.yul\":2090:2095   */\n      0x00\n        /* \"#utility.yul\":2128:2134   */\n      dup2\n        /* \"#utility.yul\":2115:2135   */\n      calldataload\n        /* \"#utility.yul\":2106:2135   */\n      swap1\n      pop\n        /* \"#utility.yul\":2144:2177   */\n      tag_232\n        /* \"#utility.yul\":2171:2176   */\n      dup2\n        /* \"#utility.yul\":2144:2177   */\n      tag_177\n      jump\t// in\n    tag_232:\n        /* \"#utility.yul\":2044:2183   */\n      swap3\n      swap2\n      pop\n      pop\n      jump\t// out\n        /* \"#utility.yul\":2189:2311   */\n    tag_179:\n        /* \"#utility.yul\":2262:2286   */\n      tag_234\n        /* \"#utility.yul\":2280:2285   */\n      dup2\n        /* \"#utility.yul\":2262:2286   */\n      tag_165\n      jump\t// in\n    tag_234:\n        /* \"#utility.yul\":2255:2260   */\n      dup2\n        /* \"#utility.yul\":2252:2287   */\n      eq\n        /* \"#utility.yul\":2242:2305   */\n      tag_235\n      jumpi\n        /* \"#utility.yul\":2301:2302   */\n      0x00\n        /* \"#utility.yul\":2298:2299   */\n      dup1\n        /* \"#utility.yul\":2291:2303   */\n      revert\n        /* \"#utility.yul\":2242:2305   */\n    tag_235:\n        /* \"#utility.yul\":2189:2311   */\n      pop\n      jump\t// out\n        /* \"#utility.yul\":2317:2456   */\n    tag_180:\n        /* \"#utility.yul\":2363:2368   */\n      0x00\n        /* \"#utility.yul\":2401:2407   */\n      dup2\n        /* \"#utility.yul\":2388:2408   */\n      calldataload\n        /* \"#utility.yul\":2379:2408   */\n      swap1\n      pop\n        /* \"#utility.yul\":2417:2450   */\n      tag_237\n        /* \"#utility.yul\":2444:2449   */\n      dup2\n        /* \"#utility.yul\":2417:2450   */\n      tag_179\n      jump\t// in\n    tag_237:\n        /* \"#utility.yul\":2317:2456   */\n      swap3\n      swap2\n      pop\n      pop\n      jump\t// out\n        /* \"#utility.yul\":2462:2936   */\n    tag_30:\n        /* \"#utility.yul\":2530:2536   */\n      0x00\n        /* \"#utility.yul\":2538:2544   */\n      dup1\n        /* \"#utility.yul\":2587:2589   */\n      0x40\n        /* \"#utility.yul\":2575:2584   */\n      dup4\n        /* \"#utility.yul\":2566:2573   */\n      dup6\n        /* \"#utility.yul\":2562:2585   */\n      sub\n        /* \"#utility.yul\":2558:2590   */\n      slt\n        /* \"#utility.yul\":2555:2674   */\n      iszero\n      tag_239\n      jumpi\n        /* \"#utility.yul\":2593:2672   */\n      tag_240\n      tag_174\n      jump\t// in\n    tag_240:\n        /* \"#utility.yul\":2555:2674   */\n    tag_239:\n        /* \"#utility.yul\":2713:2714   */\n      0x00\n        /* \"#utility.yul\":2738:2791   */\n      tag_241\n        /* \"#utility.yul\":2783:2790   */\n      dup6\n        /* \"#utility.yul\":2774:2780   */\n      dup3\n        /* \"#utility.yul\":2763:2772   */\n      dup7\n        /* \"#utility.yul\":2759:2781   */\n      add\n        /* \"#utility.yul\":2738:2791   */\n      tag_178\n      jump\t// in\n    tag_241:\n        /* \"#utility.yul\":2728:2791   */\n      swap3\n      pop\n        /* \"#utility.yul\":2684:2801   */\n      pop\n        /* \"#utility.yul\":2840:2842   */\n      0x20\n        /* \"#utility.yul\":2866:2919   */\n      tag_242\n        /* \"#utility.yul\":2911:2918   */\n      dup6\n        /* \"#utility.yul\":2902:2908   */\n      dup3\n        /* \"#utility.yul\":2891:2900   */\n      dup7\n        /* \"#utility.yul\":2887:2909   */\n      add\n        /* \"#utility.yul\":2866:2919   */\n      tag_180\n      jump\t// in\n    tag_242:\n        /* \"#utility.yul\":2856:2919   */\n      swap2\n      pop\n        /* \"#utility.yul\":2811:2929   */\n      pop\n        /* \"#utility.yul\":2462:2936   */\n      swap3\n      pop\n      swap3\n      swap1\n      pop\n      jump\t// out\n        /* \"#utility.yul\":2942:3032   */\n    tag_181:\n        /* \"#utility.yul\":2976:2983   */\n      0x00\n        /* \"#utility.yul\":3019:3024   */\n      dup2\n        /* \"#utility.yul\":3012:3025   */\n      iszero\n        /* \"#utility.yul\":3005:3026   */\n      iszero\n        /* \"#utility.yul\":2994:3026   */\n      swap1\n      pop\n        /* \"#utility.yul\":2942:3032   */\n      swap2\n      swap1\n      pop\n      jump\t// out\n        /* \"#utility.yul\":3038:3147   */\n    tag_182:\n        /* \"#utility.yul\":3119:3140   */\n      tag_245\n        /* \"#utility.yul\":3134:3139   */\n      dup2\n        /* \"#utility.yul\":3119:3140   */\n      tag_181\n      jump\t// in\n    tag_245:\n        /* \"#utility.yul\":3114:3117   */\n      dup3\n        /* \"#utility.yul\":3107:3141   */\n      mstore\n        /* \"#utility.yul\":3038:3147   */\n      pop\n      pop\n      jump\t// out\n        /* \"#utility.yul\":3153:3363   */\n    tag_33:\n        /* \"#utility.yul\":3240:3244   */\n      0x00\n        /* \"#utility.yul\":3278:3280   */\n      0x20\n        /* \"#utility.yul\":3267:3276   */\n      dup3\n        /* \"#utility.yul\":3263:3281   */\n      add\n        /* \"#utility.yul\":3255:3281   */\n      swap1\n      pop\n        /* \"#utility.yul\":3291:3356   */\n      tag_247\n        /* \"#utility.yul\":3353:3354   */\n      0x00\n        /* \"#utility.yul\":3342:3351   */\n      dup4\n        /* \"#utility.yul\":3338:3355   */\n      add\n        /* \"#utility.yul\":3329:3335   */\n      dup5\n        /* \"#utility.yul\":3291:3356   */\n      tag_182\n      jump\t// in\n    tag_247:\n        /* \"#utility.yul\":3153:3363   */\n      swap3\n      swap2\n      pop\n      pop\n      jump\t// out\n        /* \"#utility.yul\":3369:3487   */\n    tag_183:\n        /* \"#utility.yul\":3456:3480   */\n      tag_249\n        /* \"#utility.yul\":3474:3479   */\n      dup2\n        /* \"#utility.yul\":3456:3480   */\n      tag_176\n      jump\t// in\n    tag_249:\n        /* \"#utility.yul\":3451:3454   */\n      dup3\n        /* \"#utility.yul\":3444:3481   */\n      mstore\n        /* \"#utility.yul\":3369:3487   */\n      pop\n      pop\n      jump\t// out\n        /* \"#utility.yul\":3493:3715   */\n    tag_40:\n        /* \"#utility.yul\":3586:3590   */\n      0x00\n        /* \"#utility.yul\":3624:3626   */\n      0x20\n        /* \"#utility.yul\":3613:3622   */\n      dup3\n        /* \"#utility.yul\":3609:3627   */\n      add\n        /* \"#utility.yul\":3601:3627   */\n      swap1\n      pop\n        /* \"#utility.yul\":3637:3708   */\n      tag_251\n        /* \"#utility.yul\":3705:3706   */\n      0x00\n        /* \"#utility.yul\":3694:3703   */\n      dup4\n        /* \"#utility.yul\":3690:3707   */\n      add\n        /* \"#utility.yul\":3681:3687   */\n      dup5\n        /* \"#utility.yul\":3637:3708   */\n      tag_183\n      jump\t// in\n    tag_251:\n        /* \"#utility.yul\":3493:3715   */\n      swap3\n      swap2\n      pop\n      pop\n      jump\t// out\n        /* \"#utility.yul\":3721:3831   */\n    tag_184:\n        /* \"#utility.yul\":3772:3779   */\n      0x00\n        /* \"#utility.yul\":3801:3825   */\n      tag_253\n        /* \"#utility.yul\":3819:3824   */\n      dup3\n        /* \"#utility.yul\":3801:3825   */\n      tag_176\n      jump\t// in\n    tag_253:\n        /* \"#utility.yul\":3790:3825   */\n      swap1\n      pop\n        /* \"#utility.yul\":3721:3831   */\n      swap2\n      swap1\n      pop\n      jump\t// out\n        /* \"#utility.yul\":3837:3987   */\n    tag_185:\n        /* \"#utility.yul\":3924:3962   */\n      tag_255\n        /* \"#utility.yul\":3956:3961   */\n      dup2\n        /* \"#utility.yul\":3924:3962   */\n      tag_184\n      jump\t// in\n    tag_255:\n        /* \"#utility.yul\":3917:3922   */\n      dup2\n        /* \"#utility.yul\":3914:3963   */\n      eq\n        /* \"#utility.yul\":3904:3981   */\n      tag_256\n      jumpi\n        /* \"#utility.yul\":3977:3978   */\n      0x00\n        /* \"#utility.yul\":3974:3975   */\n      dup1\n        /* \"#utility.yul\":3967:3979   */\n      revert\n        /* \"#utility.yul\":3904:3981   */\n    tag_256:\n        /* \"#utility.yul\":3837:3987   */\n      pop\n      jump\t// out\n        /* \"#utility.yul\":3993:4160   */\n    tag_186:\n        /* \"#utility.yul\":4053:4058   */\n      0x00\n        /* \"#utility.yul\":4091:4097   */\n      dup2\n        /* \"#utility.yul\":4078:4098   */\n      calldataload\n        /* \"#utility.yul\":4069:4098   */\n      swap1\n      pop\n        /* \"#utility.yul\":4107:4154   */\n      tag_258\n        /* \"#utility.yul\":4148:4153   */\n      dup2\n        /* \"#utility.yul\":4107:4154   */\n      tag_185\n      jump\t// in\n    tag_258:\n        /* \"#utility.yul\":3993:4160   */\n      swap3\n      swap2\n      pop\n      pop\n      jump\t// out\n        /* \"#utility.yul\":4166:4523   */\n    tag_43:\n        /* \"#utility.yul\":4239:4245   */\n      0x00\n        /* \"#utility.yul\":4288:4290   */\n      0x20\n        /* \"#utility.yul\":4276:4285   */\n      dup3\n        /* \"#utility.yul\":4267:4274   */\n      dup5\n        /* \"#utility.yul\":4263:4286   */\n      sub\n        /* \"#utility.yul\":4259:4291   */\n      slt\n        /* \"#utility.yul\":4256:4375   */\n      iszero\n      tag_260\n      jumpi\n        /* \"#utility.yul\":4294:4373   */\n      tag_261\n      tag_174\n      jump\t// in\n    tag_261:\n        /* \"#utility.yul\":4256:4375   */\n    tag_260:\n        /* \"#utility.yul\":4414:4415   */\n      0x00\n        /* \"#utility.yul\":4439:4506   */\n      tag_262\n        /* \"#utility.yul\":4498:4505   */\n      dup5\n        /* \"#utility.yul\":4489:4495   */\n      dup3\n        /* \"#utility.yul\":4478:4487   */\n      dup6\n        /* \"#utility.yul\":4474:4496   */\n      add\n        /* \"#utility.yul\":4439:4506   */\n      tag_186\n      jump\t// in\n    tag_262:\n        /* \"#utility.yul\":4429:4506   */\n      swap2\n      pop\n        /* \"#utility.yul\":4385:4516   */\n      pop\n        /* \"#utility.yul\":4166:4523   */\n      swap3\n      swap2\n      pop\n      pop\n      jump\t// out\n        /* \"#utility.yul\":4529:4858   */\n    tag_51:\n        /* \"#utility.yul\":4588:4594   */\n      0x00\n        /* \"#utility.yul\":4637:4639   */\n      0x20\n        /* \"#utility.yul\":4625:4634   */\n      dup3\n        /* \"#utility.yul\":4616:4623   */\n      dup5\n        /* \"#utility.yul\":4612:4635   */\n      sub\n        /* \"#utility.yul\":4608:4640   */\n      slt\n        /* \"#utility.yul\":4605:4724   */\n      iszero\n      tag_264\n      jumpi\n        /* \"#utility.yul\":4643:4722   */\n      tag_265\n      tag_174\n      jump\t// in\n    tag_265:\n        /* \"#utility.yul\":4605:4724   */\n    tag_264:\n        /* \"#utility.yul\":4763:4764   */\n      0x00\n        /* \"#utility.yul\":4788:4841   */\n      tag_266\n        /* \"#utility.yul\":4833:4840   */\n      dup5\n        /* \"#utility.yul\":4824:4830   */\n      dup3\n        /* \"#utility.yul\":4813:4822   */\n      dup6\n        /* \"#utility.yul\":4809:4831   */\n      add\n        /* \"#utility.yul\":4788:4841   */\n      tag_178\n      jump\t// in\n    tag_266:\n        /* \"#utility.yul\":4778:4841   */\n      swap2\n      pop\n        /* \"#utility.yul\":4734:4851   */\n      pop\n        /* \"#utility.yul\":4529:4858   */\n      swap3\n      swap2\n      pop\n      pop\n      jump\t// out\n        /* \"#utility.yul\":4864:5193   */\n    tag_55:\n        /* \"#utility.yul\":4923:4929   */\n      0x00\n        /* \"#utility.yul\":4972:4974   */\n      0x20\n        /* \"#utility.yul\":4960:4969   */\n      dup3\n        /* \"#utility.yul\":4951:4958   */\n      dup5\n        /* \"#utility.yul\":4947:4970   */\n      sub\n        /* \"#utility.yul\":4943:4975   */\n      slt\n        /* \"#utility.yul\":4940:5059   */\n      iszero\n      tag_268\n      jumpi\n        /* \"#utility.yul\":4978:5057   */\n      tag_269\n      tag_174\n      jump\t// in\n    tag_269:\n        /* \"#utility.yul\":4940:5059   */\n    tag_268:\n        /* \"#utility.yul\":5098:5099   */\n      0x00\n        /* \"#utility.yul\":5123:5176   */\n      tag_270\n        /* \"#utility.yul\":5168:5175   */\n      dup5\n        /* \"#utility.yul\":5159:5165   */\n      dup3\n        /* \"#utility.yul\":5148:5157   */\n      dup6\n        /* \"#utility.yul\":5144:5166   */\n      add\n        /* \"#utility.yul\":5123:5176   */\n      tag_180\n      jump\t// in\n    tag_270:\n        /* \"#utility.yul\":5113:5176   */\n      swap2\n      pop\n        /* \"#utility.yul\":5069:5186   */\n      pop\n        /* \"#utility.yul\":4864:5193   */\n      swap3\n      swap2\n      pop\n      pop\n      jump\t// out\n        /* \"#utility.yul\":5199:5315   */\n    tag_187:\n        /* \"#utility.yul\":5269:5290   */\n      tag_272\n        /* \"#utility.yul\":5284:5289   */\n      dup2\n        /* \"#utility.yul\":5269:5290   */\n      tag_181\n      jump\t// in\n    tag_272:\n        /* \"#utility.yul\":5262:5267   */\n      dup2\n        /* \"#utility.yul\":5259:5291   */\n      eq\n        /* \"#utility.yul\":5249:5309   */\n      tag_273\n      jumpi\n        /* \"#utility.yul\":5305:5306   */\n      0x00\n        /* \"#utility.yul\":5302:5303   */\n      dup1\n        /* \"#utility.yul\":5295:5307   */\n      revert\n        /* \"#utility.yul\":5249:5309   */\n    tag_273:\n        /* \"#utility.yul\":5199:5315   */\n      pop\n      jump\t// out\n        /* \"#utility.yul\":5321:5454   */\n    tag_188:\n        /* \"#utility.yul\":5364:5369   */\n      0x00\n        /* \"#utility.yul\":5402:5408   */\n      dup2\n        /* \"#utility.yul\":5389:5409   */\n      calldataload\n        /* \"#utility.yul\":5380:5409   */\n      swap1\n      pop\n        /* \"#utility.yul\":5418:5448   */\n      tag_275\n        /* \"#utility.yul\":5442:5447   */\n      dup2\n        /* \"#utility.yul\":5418:5448   */\n      tag_187\n      jump\t// in\n    tag_275:\n        /* \"#utility.yul\":5321:5454   */\n      swap3\n      swap2\n      pop\n      pop\n      jump\t// out\n        /* \"#utility.yul\":5460:5928   */\n    tag_60:\n        /* \"#utility.yul\":5525:5531   */\n      0x00\n        /* \"#utility.yul\":5533:5539   */\n      dup1\n        /* \"#utility.yul\":5582:5584   */\n      0x40\n        /* \"#utility.yul\":5570:5579   */\n      dup4\n        /* \"#utility.yul\":5561:5568   */\n      dup6\n        /* \"#utility.yul\":5557:5580   */\n      sub\n        /* \"#utility.yul\":5553:5585   */\n      slt\n        /* \"#utility.yul\":5550:5669   */\n      iszero\n      tag_277\n      jumpi\n        /* \"#utility.yul\":5588:5667   */\n      tag_278\n      tag_174\n      jump\t// in\n    tag_278:\n        /* \"#utility.yul\":5550:5669   */\n    tag_277:\n        /* \"#utility.yul\":5708:5709   */\n      0x00\n        /* \"#utility.yul\":5733:5786   */\n      tag_279\n        /* \"#utility.yul\":5778:5785   */\n      dup6\n        /* \"#utility.yul\":5769:5775   */\n      dup3\n        /* \"#utility.yul\":5758:5767   */\n      dup7\n        /* \"#utility.yul\":5754:5776   */\n      add\n        /* \"#utility.yul\":5733:5786   */\n      tag_180\n      jump\t// in\n    tag_279:\n        /* \"#utility.yul\":5723:5786   */\n      swap3\n      pop\n        /* \"#utility.yul\":5679:5796   */\n      pop\n        /* \"#utility.yul\":5835:5837   */\n      0x20\n        /* \"#utility.yul\":5861:5911   */\n      tag_280\n        /* \"#utility.yul\":5903:5910   */\n      dup6\n        /* \"#utility.yul\":5894:5900   */\n      dup3\n        /* \"#utility.yul\":5883:5892   */\n      dup7\n        /* \"#utility.yul\":5879:5901   */\n      add\n        /* \"#utility.yul\":5861:5911   */\n      tag_188\n      jump\t// in\n    tag_280:\n        /* \"#utility.yul\":5851:5911   */\n      swap2\n      pop\n        /* \"#utility.yul\":5806:5921   */\n      pop\n        /* \"#utility.yul\":5460:5928   */\n      swap3\n      pop\n      swap3\n      swap1\n      pop\n      jump\t// out\n        /* \"#utility.yul\":5934:6033   */\n    tag_189:\n        /* \"#utility.yul\":5986:5992   */\n      0x00\n        /* \"#utility.yul\":6020:6025   */\n      dup2\n        /* \"#utility.yul\":6014:6026   */\n      mload\n        /* \"#utility.yul\":6004:6026   */\n      swap1\n      pop\n        /* \"#utility.yul\":5934:6033   */\n      swap2\n      swap1\n      pop\n      jump\t// out\n        /* \"#utility.yul\":6039:6208   */\n    tag_190:\n        /* \"#utility.yul\":6123:6134   */\n      0x00\n        /* \"#utility.yul\":6157:6163   */\n      dup3\n        /* \"#utility.yul\":6152:6155   */\n      dup3\n        /* \"#utility.yul\":6145:6164   */\n      mstore\n        /* \"#utility.yul\":6197:6201   */\n      0x20\n        /* \"#utility.yul\":6192:6195   */\n      dup3\n        /* \"#utility.yul\":6188:6202   */\n      add\n        /* \"#utility.yul\":6173:6202   */\n      swap1\n      pop\n        /* \"#utility.yul\":6039:6208   */\n      swap3\n      swap2\n      pop\n      pop\n      jump\t// out\n        /* \"#utility.yul\":6214:6521   */\n    tag_191:\n        /* \"#utility.yul\":6282:6283   */\n      0x00\n        /* \"#utility.yul\":6292:6405   */\n    tag_284:\n        /* \"#utility.yul\":6306:6312   */\n      dup4\n        /* \"#utility.yul\":6303:6304   */\n      dup2\n        /* \"#utility.yul\":6300:6313   */\n      lt\n        /* \"#utility.yul\":6292:6405   */\n      iszero\n      tag_286\n      jumpi\n        /* \"#utility.yul\":6391:6392   */\n      dup1\n        /* \"#utility.yul\":6386:6389   */\n      dup3\n        /* \"#utility.yul\":6382:6393   */\n      add\n        /* \"#utility.yul\":6376:6394   */\n      mload\n        /* \"#utility.yul\":6372:6373   */\n      dup2\n        /* \"#utility.yul\":6367:6370   */\n      dup5\n        /* \"#utility.yul\":6363:6374   */\n      add\n        /* \"#utility.yul\":6356:6395   */\n      mstore\n        /* \"#utility.yul\":6328:6330   */\n      0x20\n        /* \"#utility.yul\":6325:6326   */\n      dup2\n        /* \"#utility.yul\":6321:6331   */\n      add\n        /* \"#utility.yul\":6316:6331   */\n      swap1\n      pop\n        /* \"#utility.yul\":6292:6405   */\n      jump(tag_284)\n    tag_286:\n        /* \"#utility.yul\":6423:6429   */\n      dup4\n        /* \"#utility.yul\":6420:6421   */\n      dup2\n        /* \"#utility.yul\":6417:6430   */\n      gt\n        /* \"#utility.yul\":6414:6515   */\n      iszero\n      tag_287\n      jumpi\n        /* \"#utility.yul\":6503:6504   */\n      0x00\n        /* \"#utility.yul\":6494:6500   */\n      dup5\n        /* \"#utility.yul\":6489:6492   */\n      dup5\n        /* \"#utility.yul\":6485:6501   */\n      add\n        /* \"#utility.yul\":6478:6505   */\n      mstore\n        /* \"#utility.yul\":6414:6515   */\n    tag_287:\n        /* \"#utility.yul\":6263:6521   */\n      pop\n        /* \"#utility.yul\":6214:6521   */\n      pop\n      pop\n      pop\n      jump\t// out\n        /* \"#utility.yul\":6527:6629   */\n    tag_192:\n        /* \"#utility.yul\":6568:6574   */\n      0x00\n        /* \"#utility.yul\":6619:6621   */\n      0x1f\n        /* \"#utility.yul\":6615:6622   */\n      not\n        /* \"#utility.yul\":6610:6612   */\n      0x1f\n        /* \"#utility.yul\":6603:6608   */\n      dup4\n        /* \"#utility.yul\":6599:6613   */\n      add\n        /* \"#utility.yul\":6595:6623   */\n      and\n        /* \"#utility.yul\":6585:6623   */\n      swap1\n      pop\n        /* \"#utility.yul\":6527:6629   */\n      swap2\n      swap1\n      pop\n      jump\t// out\n        /* \"#utility.yul\":6635:6999   */\n    tag_193:\n        /* \"#utility.yul\":6723:6726   */\n      0x00\n        /* \"#utility.yul\":6751:6790   */\n      tag_290\n        /* \"#utility.yul\":6784:6789   */\n      dup3\n        /* \"#utility.yul\":6751:6790   */\n      tag_189\n      jump\t// in\n    tag_290:\n        /* \"#utility.yul\":6806:6877   */\n      tag_291\n        /* \"#utility.yul\":6870:6876   */\n      dup2\n        /* \"#utility.yul\":6865:6868   */\n      dup6\n        /* \"#utility.yul\":6806:6877   */\n      tag_190\n      jump\t// in\n    tag_291:\n        /* \"#utility.yul\":6799:6877   */\n      swap4\n      pop\n        /* \"#utility.yul\":6886:6938   */\n      tag_292\n        /* \"#utility.yul\":6931:6937   */\n      dup2\n        /* \"#utility.yul\":6926:6929   */\n      dup6\n        /* \"#utility.yul\":6919:6923   */\n      0x20\n        /* \"#utility.yul\":6912:6917   */\n      dup7\n        /* \"#utility.yul\":6908:6924   */\n      add\n        /* \"#utility.yul\":6886:6938   */\n      tag_191\n      jump\t// in\n    tag_292:\n        /* \"#utility.yul\":6963:6992   */\n      tag_293\n        /* \"#utility.yul\":6985:6991   */\n      dup2\n        /* \"#utility.yul\":6963:6992   */\n      tag_192\n      jump\t// in\n    tag_293:\n        /* \"#utility.yul\":6958:6961   */\n      dup5\n        /* \"#utility.yul\":6954:6993   */\n      add\n        /* \"#utility.yul\":6947:6993   */\n      swap2\n      pop\n        /* \"#utility.yul\":6727:6999   */\n      pop\n        /* \"#utility.yul\":6635:6999   */\n      swap3\n      swap2\n      pop\n      pop\n      jump\t// out\n        /* \"#utility.yul\":7005:7318   */\n    tag_63:\n        /* \"#utility.yul\":7118:7122   */\n      0x00\n        /* \"#utility.yul\":7156:7158   */\n      0x20\n        /* \"#utility.yul\":7145:7154   */\n      dup3\n        /* \"#utility.yul\":7141:7159   */\n      add\n        /* \"#utility.yul\":7133:7159   */\n      swap1\n      pop\n        /* \"#utility.yul\":7205:7214   */\n      dup2\n        /* \"#utility.yul\":7199:7203   */\n      dup2\n        /* \"#utility.yul\":7195:7215   */\n      sub\n        /* \"#utility.yul\":7191:7192   */\n      0x00\n        /* \"#utility.yul\":7180:7189   */\n      dup4\n        /* \"#utility.yul\":7176:7193   */\n      add\n        /* \"#utility.yul\":7169:7216   */\n      mstore\n        /* \"#utility.yul\":7233:7311   */\n      tag_295\n        /* \"#utility.yul\":7306:7310   */\n      dup2\n        /* \"#utility.yul\":7297:7303   */\n      dup5\n        /* \"#utility.yul\":7233:7311   */\n      tag_193\n      jump\t// in\n    tag_295:\n        /* \"#utility.yul\":7225:7311   */\n      swap1\n      pop\n        /* \"#utility.yul\":7005:7318   */\n      swap3\n      swap2\n      pop\n      pop\n      jump\t// out\n        /* \"#utility.yul\":7324:7647   */\n    tag_66:\n        /* \"#utility.yul\":7380:7386   */\n      0x00\n        /* \"#utility.yul\":7429:7431   */\n      0x20\n        /* \"#utility.yul\":7417:7426   */\n      dup3\n        /* \"#utility.yul\":7408:7415   */\n      dup5\n        /* \"#utility.yul\":7404:7427   */\n      sub\n        /* \"#utility.yul\":7400:7432   */\n      slt\n        /* \"#utility.yul\":7397:7516   */\n      iszero\n      tag_297\n      jumpi\n        /* \"#utility.yul\":7435:7514   */\n      tag_298\n      tag_174\n      jump\t// in\n    tag_298:\n        /* \"#utility.yul\":7397:7516   */\n    tag_297:\n        /* \"#utility.yul\":7555:7556   */\n      0x00\n        /* \"#utility.yul\":7580:7630   */\n      tag_299\n        /* \"#utility.yul\":7622:7629   */\n      dup5\n        /* \"#utility.yul\":7613:7619   */\n      dup3\n        /* \"#utility.yul\":7602:7611   */\n      dup6\n        /* \"#utility.yul\":7598:7620   */\n      add\n        /* \"#utility.yul\":7580:7630   */\n      tag_188\n      jump\t// in\n    tag_299:\n        /* \"#utility.yul\":7570:7630   */\n      swap2\n      pop\n        /* \"#utility.yul\":7526:7640   */\n      pop\n        /* \"#utility.yul\":7324:7647   */\n      swap3\n      swap2\n      pop\n      pop\n      jump\t// out\n        /* \"#utility.yul\":7653:8083   */\n    tag_79:\n        /* \"#utility.yul\":7796:7800   */\n      0x00\n        /* \"#utility.yul\":7834:7836   */\n      0x60\n        /* \"#utility.yul\":7823:7832   */\n      dup3\n        /* \"#utility.yul\":7819:7837   */\n      add\n        /* \"#utility.yul\":7811:7837   */\n      swap1\n      pop\n        /* \"#utility.yul\":7847:7918   */\n      tag_301\n        /* \"#utility.yul\":7915:7916   */\n      0x00\n        /* \"#utility.yul\":7904:7913   */\n      dup4\n        /* \"#utility.yul\":7900:7917   */\n      add\n        /* \"#utility.yul\":7891:7897   */\n      dup7\n        /* \"#utility.yul\":7847:7918   */\n      tag_183\n      jump\t// in\n    tag_301:\n        /* \"#utility.yul\":7928:8000   */\n      tag_302\n        /* \"#utility.yul\":7996:7998   */\n      0x20\n        /* \"#utility.yul\":7985:7994   */\n      dup4\n        /* \"#utility.yul\":7981:7999   */\n      add\n        /* \"#utility.yul\":7972:7978   */\n      dup6\n        /* \"#utility.yul\":7928:8000   */\n      tag_166\n      jump\t// in\n    tag_302:\n        /* \"#utility.yul\":8010:8076   */\n      tag_303\n        /* \"#utility.yul\":8072:8074   */\n      0x40\n        /* \"#utility.yul\":8061:8070   */\n      dup4\n        /* \"#utility.yul\":8057:8075   */\n      add\n        /* \"#utility.yul\":8048:8054   */\n      dup5\n        /* \"#utility.yul\":8010:8076   */\n      tag_182\n      jump\t// in\n    tag_303:\n        /* \"#utility.yul\":7653:8083   */\n      swap5\n      swap4\n      pop\n      pop\n      pop\n      pop\n      jump\t// out\n        /* \"#utility.yul\":8089:8258   */\n    tag_194:\n        /* \"#utility.yul\":8229:8250   */\n      0x43616c6c6572206973206e6f74206f776e657200000000000000000000000000\n        /* \"#utility.yul\":8225:8226   */\n      0x00\n        /* \"#utility.yul\":8217:8223   */\n      dup3\n        /* \"#utility.yul\":8213:8227   */\n      add\n        /* \"#utility.yul\":8206:8251   */\n      mstore\n        /* \"#utility.yul\":8089:8258   */\n      pop\n      jump\t// out\n        /* \"#utility.yul\":8264:8630   */\n    tag_195:\n        /* \"#utility.yul\":8406:8409   */\n      0x00\n        /* \"#utility.yul\":8427:8494   */\n      tag_306\n        /* \"#utility.yul\":8491:8493   */\n      0x13\n        /* \"#utility.yul\":8486:8489   */\n      dup4\n        /* \"#utility.yul\":8427:8494   */\n      tag_190\n      jump\t// in\n    tag_306:\n        /* \"#utility.yul\":8420:8494   */\n      swap2\n      pop\n        /* \"#utility.yul\":8503:8596   */\n      tag_307\n        /* \"#utility.yul\":8592:8595   */\n      dup3\n        /* \"#utility.yul\":8503:8596   */\n      tag_194\n      jump\t// in\n    tag_307:\n        /* \"#utility.yul\":8621:8623   */\n      0x20\n        /* \"#utility.yul\":8616:8619   */\n      dup3\n        /* \"#utility.yul\":8612:8624   */\n      add\n        /* \"#utility.yul\":8605:8624   */\n      swap1\n      pop\n        /* \"#utility.yul\":8264:8630   */\n      swap2\n      swap1\n      pop\n      jump\t// out\n        /* \"#utility.yul\":8636:9055   */\n    tag_83:\n        /* \"#utility.yul\":8802:8806   */\n      0x00\n        /* \"#utility.yul\":8840:8842   */\n      0x20\n        /* \"#utility.yul\":8829:8838   */\n      dup3\n        /* \"#utility.yul\":8825:8843   */\n      add\n        /* \"#utility.yul\":8817:8843   */\n      swap1\n      pop\n        /* \"#utility.yul\":8889:8898   */\n      dup2\n        /* \"#utility.yul\":8883:8887   */\n      dup2\n        /* \"#utility.yul\":8879:8899   */\n      sub\n        /* \"#utility.yul\":8875:8876   */\n      0x00\n        /* \"#utility.yul\":8864:8873   */\n      dup4\n        /* \"#utility.yul\":8860:8877   */\n      add\n        /* \"#utility.yul\":8853:8900   */\n      mstore\n        /* \"#utility.yul\":8917:9048   */\n      tag_309\n        /* \"#utility.yul\":9043:9047   */\n      dup2\n        /* \"#utility.yul\":8917:9048   */\n      tag_195\n      jump\t// in\n    tag_309:\n        /* \"#utility.yul\":8909:9048   */\n      swap1\n      pop\n        /* \"#utility.yul\":8636:9055   */\n      swap2\n      swap1\n      pop\n      jump\t// out\n        /* \"#utility.yul\":9061:9239   */\n    tag_196:\n        /* \"#utility.yul\":9201:9231   */\n      0x41697264726f7020737461747573206d7573742062652066616c736500000000\n        /* \"#utility.yul\":9197:9198   */\n      0x00\n        /* \"#utility.yul\":9189:9195   */\n      dup3\n        /* \"#utility.yul\":9185:9199   */\n      add\n        /* \"#utility.yul\":9178:9232   */\n      mstore\n        /* \"#utility.yul\":9061:9239   */\n      pop\n      jump\t// out\n        /* \"#utility.yul\":9245:9611   */\n    tag_197:\n        /* \"#utility.yul\":9387:9390   */\n      0x00\n        /* \"#utility.yul\":9408:9475   */\n      tag_312\n        /* \"#utility.yul\":9472:9474   */\n      0x1c\n        /* \"#utility.yul\":9467:9470   */\n      dup4\n        /* \"#utility.yul\":9408:9475   */\n      tag_190\n      jump\t// in\n    tag_312:\n        /* \"#utility.yul\":9401:9475   */\n      swap2\n      pop\n        /* \"#utility.yul\":9484:9577   */\n      tag_313\n        /* \"#utility.yul\":9573:9576   */\n      dup3\n        /* \"#utility.yul\":9484:9577   */\n      tag_196\n      jump\t// in\n    tag_313:\n        /* \"#utility.yul\":9602:9604   */\n      0x20\n        /* \"#utility.yul\":9597:9600   */\n      dup3\n        /* \"#utility.yul\":9593:9605   */\n      add\n        /* \"#utility.yul\":9586:9605   */\n      swap1\n      pop\n        /* \"#utility.yul\":9245:9611   */\n      swap2\n      swap1\n      pop\n      jump\t// out\n        /* \"#utility.yul\":9617:10036   */\n    tag_87:\n        /* \"#utility.yul\":9783:9787   */\n      0x00\n        /* \"#utility.yul\":9821:9823   */\n      0x20\n        /* \"#utility.yul\":9810:9819   */\n      dup3\n        /* \"#utility.yul\":9806:9824   */\n      add\n        /* \"#utility.yul\":9798:9824   */\n      swap1\n      pop\n        /* \"#utility.yul\":9870:9879   */\n      dup2\n        /* \"#utility.yul\":9864:9868   */\n      dup2\n        /* \"#utility.yul\":9860:9880   */\n      sub\n        /* \"#utility.yul\":9856:9857   */\n      0x00\n        /* \"#utility.yul\":9845:9854   */\n      dup4\n        /* \"#utility.yul\":9841:9858   */\n      add\n        /* \"#utility.yul\":9834:9881   */\n      mstore\n        /* \"#utility.yul\":9898:10029   */\n      tag_315\n        /* \"#utility.yul\":10024:10028   */\n      dup2\n        /* \"#utility.yul\":9898:10029   */\n      tag_197\n      jump\t// in\n    tag_315:\n        /* \"#utility.yul\":9890:10029   */\n      swap1\n      pop\n        /* \"#utility.yul\":9617:10036   */\n      swap2\n      swap1\n      pop\n      jump\t// out\n        /* \"#utility.yul\":10042:10222   */\n    tag_198:\n        /* \"#utility.yul\":10090:10167   */\n      0x4e487b7100000000000000000000000000000000000000000000000000000000\n        /* \"#utility.yul\":10087:10088   */\n      0x00\n        /* \"#utility.yul\":10080:10168   */\n      mstore\n        /* \"#utility.yul\":10187:10191   */\n      0x11\n        /* \"#utility.yul\":10184:10185   */\n      0x04\n        /* \"#utility.yul\":10177:10192   */\n      mstore\n        /* \"#utility.yul\":10211:10215   */\n      0x24\n        /* \"#utility.yul\":10208:10209   */\n      0x00\n        /* \"#utility.yul\":10201:10216   */\n      revert\n        /* \"#utility.yul\":10228:10419   */\n    tag_91:\n        /* \"#utility.yul\":10268:10272   */\n      0x00\n        /* \"#utility.yul\":10288:10308   */\n      tag_318\n        /* \"#utility.yul\":10306:10307   */\n      dup3\n        /* \"#utility.yul\":10288:10308   */\n      tag_165\n      jump\t// in\n    tag_318:\n        /* \"#utility.yul\":10283:10308   */\n      swap2\n      pop\n        /* \"#utility.yul\":10322:10342   */\n      tag_319\n        /* \"#utility.yul\":10340:10341   */\n      dup4\n        /* \"#utility.yul\":10322:10342   */\n      tag_165\n      jump\t// in\n    tag_319:\n        /* \"#utility.yul\":10317:10342   */\n      swap3\n      pop\n        /* \"#utility.yul\":10361:10362   */\n      dup3\n        /* \"#utility.yul\":10358:10359   */\n      dup3\n        /* \"#utility.yul\":10355:10363   */\n      lt\n        /* \"#utility.yul\":10352:10386   */\n      iszero\n      tag_320\n      jumpi\n        /* \"#utility.yul\":10366:10384   */\n      tag_321\n      tag_198\n      jump\t// in\n    tag_321:\n        /* \"#utility.yul\":10352:10386   */\n    tag_320:\n        /* \"#utility.yul\":10411:10412   */\n      dup3\n        /* \"#utility.yul\":10408:10409   */\n      dup3\n        /* \"#utility.yul\":10404:10413   */\n      sub\n        /* \"#utility.yul\":10396:10413   */\n      swap1\n      pop\n        /* \"#utility.yul\":10228:10419   */\n      swap3\n      swap2\n      pop\n      pop\n      jump\t// out\n        /* \"#utility.yul\":10425:10658   */\n    tag_95:\n        /* \"#utility.yul\":10464:10467   */\n      0x00\n        /* \"#utility.yul\":10487:10511   */\n      tag_323\n        /* \"#utility.yul\":10505:10510   */\n      dup3\n        /* \"#utility.yul\":10487:10511   */\n      tag_165\n      jump\t// in\n    tag_323:\n        /* \"#utility.yul\":10478:10511   */\n      swap2\n      pop\n        /* \"#utility.yul\":10533:10599   */\n      0xffffffffffffffffffffffffffffffffffffffffffffffffffffffffffffffff\n        /* \"#utility.yul\":10526:10531   */\n      dup3\n        /* \"#utility.yul\":10523:10600   */\n      sub\n        /* \"#utility.yul\":10520:10623   */\n      tag_324\n      jumpi\n        /* \"#utility.yul\":10603:10621   */\n      tag_325\n      tag_198\n      jump\t// in\n    tag_325:\n        /* \"#utility.yul\":10520:10623   */\n    tag_324:\n        /* \"#utility.yul\":10650:10651   */\n      0x01\n        /* \"#utility.yul\":10643:10648   */\n      dup3\n        /* \"#utility.yul\":10639:10652   */\n      add\n        /* \"#utility.yul\":10632:10652   */\n      swap1\n      pop\n        /* \"#utility.yul\":10425:10658   */\n      swap2\n      swap1\n      pop\n      jump\t// out\n        /* \"#utility.yul\":10664:10969   */\n    tag_97:\n        /* \"#utility.yul\":10704:10707   */\n      0x00\n        /* \"#utility.yul\":10723:10743   */\n      tag_327\n        /* \"#utility.yul\":10741:10742   */\n      dup3\n        /* \"#utility.yul\":10723:10743   */\n      tag_165\n      jump\t// in\n    tag_327:\n        /* \"#utility.yul\":10718:10743   */\n      swap2\n      pop\n        /* \"#utility.yul\":10757:10777   */\n      tag_328\n        /* \"#utility.yul\":10775:10776   */\n      dup4\n        /* \"#utility.yul\":10757:10777   */\n      tag_165\n      jump\t// in\n    tag_328:\n        /* \"#utility.yul\":10752:10777   */\n      swap3\n      pop\n        /* \"#utility.yul\":10911:10912   */\n      dup3\n        /* \"#utility.yul\":10843:10909   */\n      0xffffffffffffffffffffffffffffffffffffffffffffffffffffffffffffffff\n        /* \"#utility.yul\":10839:10913   */\n      sub\n        /* \"#utility.yul\":10836:10837   */\n      dup3\n        /* \"#utility.yul\":10833:10914   */\n      gt\n        /* \"#utility.yul\":10830:10937   */\n      iszero\n      tag_329\n      jumpi\n        /* \"#utility.yul\":10917:10935   */\n      tag_330\n      tag_198\n      jump\t// in\n    tag_330:\n        /* \"#utility.yul\":10830:10937   */\n    tag_329:\n        /* \"#utility.yul\":10961:10962   */\n      dup3\n        /* \"#utility.yul\":10958:10959   */\n      dup3\n        /* \"#utility.yul\":10954:10963   */\n      add\n        /* \"#utility.yul\":10947:10963   */\n      swap1\n      pop\n        /* \"#utility.yul\":10664:10969   */\n      swap3\n      swap2\n      pop\n      pop\n      jump\t// out\n        /* \"#utility.yul\":10975:11152   */\n    tag_199:\n        /* \"#utility.yul\":11115:11144   */\n      0x41697264726f7020737461747573206d75737420626520747275650000000000\n        /* \"#utility.yul\":11111:11112   */\n      0x00\n        /* \"#utility.yul\":11103:11109   */\n      dup3\n        /* \"#utility.yul\":11099:11113   */\n      add\n        /* \"#utility.yul\":11092:11145   */\n      mstore\n        /* \"#utility.yul\":10975:11152   */\n      pop\n      jump\t// out\n        /* \"#utility.yul\":11158:11524   */\n    tag_200:\n        /* \"#utility.yul\":11300:11303   */\n      0x00\n        /* \"#utility.yul\":11321:11388   */\n      tag_333\n        /* \"#utility.yul\":11385:11387   */\n      0x1b\n        /* \"#utility.yul\":11380:11383   */\n      dup4\n        /* \"#utility.yul\":11321:11388   */\n      tag_190\n      jump\t// in\n    tag_333:\n        /* \"#utility.yul\":11314:11388   */\n      swap2\n      pop\n        /* \"#utility.yul\":11397:11490   */\n      tag_334\n        /* \"#utility.yul\":11486:11489   */\n      dup3\n        /* \"#utility.yul\":11397:11490   */\n      tag_199\n      jump\t// in\n    tag_334:\n        /* \"#utility.yul\":11515:11517   */\n      0x20\n        /* \"#utility.yul\":11510:11513   */\n      dup3\n        /* \"#utility.yul\":11506:11518   */\n      add\n        /* \"#utility.yul\":11499:11518   */\n      swap1\n      pop\n        /* \"#utility.yul\":11158:11524   */\n      swap2\n      swap1\n      pop\n      jump\t// out\n        /* \"#utility.yul\":11530:11949   */\n    tag_119:\n        /* \"#utility.yul\":11696:11700   */\n      0x00\n        /* \"#utility.yul\":11734:11736   */\n      0x20\n        /* \"#utility.yul\":11723:11732   */\n      dup3\n        /* \"#utility.yul\":11719:11737   */\n      add\n        /* \"#utility.yul\":11711:11737   */\n      swap1\n      pop\n        /* \"#utility.yul\":11783:11792   */\n      dup2\n        /* \"#utility.yul\":11777:11781   */\n      dup2\n        /* \"#utility.yul\":11773:11793   */\n      sub\n        /* \"#utility.yul\":11769:11770   */\n      0x00\n        /* \"#utility.yul\":11758:11767   */\n      dup4\n        /* \"#utility.yul\":11754:11771   */\n      add\n        /* \"#utility.yul\":11747:11794   */\n      mstore\n        /* \"#utility.yul\":11811:11942   */\n      tag_336\n        /* \"#utility.yul\":11937:11941   */\n      dup2\n        /* \"#utility.yul\":11811:11942   */\n      tag_200\n      jump\t// in\n    tag_336:\n        /* \"#utility.yul\":11803:11942   */\n      swap1\n      pop\n        /* \"#utility.yul\":11530:11949   */\n      swap2\n      swap1\n      pop\n      jump\t// out\n        /* \"#utility.yul\":11955:12287   */\n    tag_126:\n        /* \"#utility.yul\":12076:12080   */\n      0x00\n        /* \"#utility.yul\":12114:12116   */\n      0x40\n        /* \"#utility.yul\":12103:12112   */\n      dup3\n        /* \"#utility.yul\":12099:12117   */\n      add\n        /* \"#utility.yul\":12091:12117   */\n      swap1\n      pop\n        /* \"#utility.yul\":12127:12198   */\n      tag_338\n        /* \"#utility.yul\":12195:12196   */\n      0x00\n        /* \"#utility.yul\":12184:12193   */\n      dup4\n        /* \"#utility.yul\":12180:12197   */\n      add\n        /* \"#utility.yul\":12171:12177   */\n      dup6\n        /* \"#utility.yul\":12127:12198   */\n      tag_183\n      jump\t// in\n    tag_338:\n        /* \"#utility.yul\":12208:12280   */\n      tag_339\n        /* \"#utility.yul\":12276:12278   */\n      0x20\n        /* \"#utility.yul\":12265:12274   */\n      dup4\n        /* \"#utility.yul\":12261:12279   */\n      add\n        /* \"#utility.yul\":12252:12258   */\n      dup5\n        /* \"#utility.yul\":12208:12280   */\n      tag_166\n      jump\t// in\n    tag_339:\n        /* \"#utility.yul\":11955:12287   */\n      swap4\n      swap3\n      pop\n      pop\n      pop\n      jump\t// out\n        /* \"#utility.yul\":12293:12430   */\n    tag_201:\n        /* \"#utility.yul\":12347:12352   */\n      0x00\n        /* \"#utility.yul\":12378:12384   */\n      dup2\n        /* \"#utility.yul\":12372:12385   */\n      mload\n        /* \"#utility.yul\":12363:12385   */\n      swap1\n      pop\n        /* \"#utility.yul\":12394:12424   */\n      tag_341\n        /* \"#utility.yul\":12418:12423   */\n      dup2\n        /* \"#utility.yul\":12394:12424   */\n      tag_187\n      jump\t// in\n    tag_341:\n        /* \"#utility.yul\":12293:12430   */\n      swap3\n      swap2\n      pop\n      pop\n      jump\t// out\n        /* \"#utility.yul\":12436:12781   */\n    tag_130:\n        /* \"#utility.yul\":12503:12509   */\n      0x00\n        /* \"#utility.yul\":12552:12554   */\n      0x20\n        /* \"#utility.yul\":12540:12549   */\n      dup3\n        /* \"#utility.yul\":12531:12538   */\n      dup5\n        /* \"#utility.yul\":12527:12550   */\n      sub\n        /* \"#utility.yul\":12523:12555   */\n      slt\n        /* \"#utility.yul\":12520:12639   */\n      iszero\n      tag_343\n      jumpi\n        /* \"#utility.yul\":12558:12637   */\n      tag_344\n      tag_174\n      jump\t// in\n    tag_344:\n        /* \"#utility.yul\":12520:12639   */\n    tag_343:\n        /* \"#utility.yul\":12678:12679   */\n      0x00\n        /* \"#utility.yul\":12703:12764   */\n      tag_345\n        /* \"#utility.yul\":12756:12763   */\n      dup5\n        /* \"#utility.yul\":12747:12753   */\n      dup3\n        /* \"#utility.yul\":12736:12745   */\n      dup6\n        /* \"#utility.yul\":12732:12754   */\n      add\n        /* \"#utility.yul\":12703:12764   */\n      tag_201\n      jump\t// in\n    tag_345:\n        /* \"#utility.yul\":12693:12764   */\n      swap2\n      pop\n        /* \"#utility.yul\":12649:12774   */\n      pop\n        /* \"#utility.yul\":12436:12781   */\n      swap3\n      swap2\n      pop\n      pop\n      jump\t// out\n        /* \"#utility.yul\":12787:12930   */\n    tag_202:\n        /* \"#utility.yul\":12844:12849   */\n      0x00\n        /* \"#utility.yul\":12875:12881   */\n      dup2\n        /* \"#utility.yul\":12869:12882   */\n      mload\n        /* \"#utility.yul\":12860:12882   */\n      swap1\n      pop\n        /* \"#utility.yul\":12891:12924   */\n      tag_347\n        /* \"#utility.yul\":12918:12923   */\n      dup2\n        /* \"#utility.yul\":12891:12924   */\n      tag_179\n      jump\t// in\n    tag_347:\n        /* \"#utility.yul\":12787:12930   */\n      swap3\n      swap2\n      pop\n      pop\n      jump\t// out\n        /* \"#utility.yul\":12936:13287   */\n    tag_163:\n        /* \"#utility.yul\":13006:13012   */\n      0x00\n        /* \"#utility.yul\":13055:13057   */\n      0x20\n        /* \"#utility.yul\":13043:13052   */\n      dup3\n        /* \"#utility.yul\":13034:13041   */\n      dup5\n        /* \"#utility.yul\":13030:13053   */\n      sub\n        /* \"#utility.yul\":13026:13058   */\n      slt\n        /* \"#utility.yul\":13023:13142   */\n      iszero\n      tag_349\n      jumpi\n        /* \"#utility.yul\":13061:13140   */\n      tag_350\n      tag_174\n      jump\t// in\n    tag_350:\n        /* \"#utility.yul\":13023:13142   */\n    tag_349:\n        /* \"#utility.yul\":13181:13182   */\n      0x00\n        /* \"#utility.yul\":13206:13270   */\n      tag_351\n        /* \"#utility.yul\":13262:13269   */\n      dup5\n        /* \"#utility.yul\":13253:13259   */\n      dup3\n        /* \"#utility.yul\":13242:13251   */\n      dup6\n        /* \"#utility.yul\":13238:13260   */\n      add\n        /* \"#utility.yul\":13206:13270   */\n      tag_202\n      jump\t// in\n    tag_351:\n        /* \"#utility.yul\":13196:13270   */\n      swap2\n      pop\n        /* \"#utility.yul\":13152:13280   */\n      pop\n        /* \"#utility.yul\":12936:13287   */\n      swap3\n      swap2\n      pop\n      pop\n      jump\t// out\n\n    auxdata: 0xa264697066735822122091f7125046d0d25697fcb667604e104c53b50250fc3435e95a30929fb3eb57ab64736f6c634300080d0033\n}\n",
				"bytecode": {
					"linkReferences": {},
					"object": "60806040526000600155600060025534801561001a57600080fd5b50336000806101000a81548173ffffffffffffffffffffffffffffffffffffffff021916908373ffffffffffffffffffffffffffffffffffffffff16021790555060008054906101000a900473ffffffffffffffffffffffffffffffffffffffff1673ffffffffffffffffffffffffffffffffffffffff16600073ffffffffffffffffffffffffffffffffffffffff167f342827c97908e5e2f71151c08502a66d44b6f758e3ac2f1de95f02eb95f0a73560405160405180910390a3611711806100e56000396000f3fe608060405234801561001057600080fd5b50600436106100ea5760003560e01c8063a6f9dae11161008c578063c24a58a111610066578063c24a58a114610261578063e1e46cba14610291578063e952f74f146102af578063f5084426146102cd576100ea565b8063a6f9dae1146101e5578063addfeee514610201578063b612dd0214610231576100ea565b806385f0d3ca116100c857806385f0d3ca1461015b578063893d20e81461017957806399e89649146101975780639f48e8ad146101c7576100ea565b806301f3978f146100ef57806303b934721461010d5780636932ac5f1461012b575b600080fd5b6100f76102ff565b6040516101049190610fd5565b60405180910390f35b610115610305565b604051610122919061106f565b60405180910390f35b610145600480360381019061014091906110f9565b61032b565b6040516101529190611154565b60405180910390f35b61016361055e565b6040516101709190611154565b60405180910390f35b610181610571565b60405161018e919061117e565b60405180910390f35b6101b160048036038101906101ac91906111d7565b61059a565b6040516101be9190611154565b60405180910390f35b6101cf6106cb565b6040516101dc9190610fd5565b60405180910390f35b6101ff60048036038101906101fa9190611204565b6106d1565b005b61021b60048036038101906102169190611231565b610872565b6040516102289190611154565b60405180910390f35b61024b6004803603810190610246919061128a565b610a3a565b6040516102589190611363565b60405180910390f35b61027b60048036038101906102769190611385565b610c37565b6040516102889190611154565b60405180910390f35b610299610dfa565b6040516102a69190610fd5565b60405180910390f35b6102b7610f32565b6040516102c49190610fd5565b60405180910390f35b6102e760048036038101906102e29190611231565b610f38565b6040516102f6939291906113b2565b60405180910390f35b60045481565b600560009054906101000a900473ffffffffffffffffffffffffffffffffffffffff1681565b60008060009054906101000a900473ffffffffffffffffffffffffffffffffffffffff1673ffffffffffffffffffffffffffffffffffffffff163373ffffffffffffffffffffffffffffffffffffffff16146103bc576040517f08c379a00000000000000000000000000000000000000000000000000000000081526004016103b390611435565b60405180910390fd5b60001515600360009054906101000a900460ff16151514610412576040517f08c379a0000000000000000000000000000000000000000000000000000000008152600401610409906114a1565b60405180910390fd5b60025461041d610dfa565b61042791906114f0565b600481905550600060045411801561044157506004548211155b156105535760405180606001604052808473ffffffffffffffffffffffffffffffffffffffff1681526020018381526020016001151581525060066000600154815260200190815260200160002060008201518160000160006101000a81548173ffffffffffffffffffffffffffffffffffffffff021916908373ffffffffffffffffffffffffffffffffffffffff1602179055506020820151816001015560408201518160020160006101000a81548160ff0219169083151502179055509050506001600081548092919061051690611524565b919050555081600254610529919061156c565b60028190555060025461053a610dfa565b61054491906114f0565b60048190555060019050610558565b600090505b92915050565b600360009054906101000a900460ff1681565b60008060009054906101000a900473ffffffffffffffffffffffffffffffffffffffff16905090565b60008060009054906101000a900473ffffffffffffffffffffffffffffffffffffffff1673ffffffffffffffffffffffffffffffffffffffff163373ffffffffffffffffffffffffffffffffffffffff161461062b576040517f08c379a000000000000000000000000000000000000000000000000000000000815260040161062290611435565b60405180910390fd5b60001515600360009054906101000a900460ff16151514610681576040517f08c379a0000000000000000000000000000000000000000000000000000000008152600401610678906114a1565b60405180910390fd5b81600560006101000a81548173ffffffffffffffffffffffffffffffffffffffff021916908373ffffffffffffffffffffffffffffffffffffffff16021790555060019050919050565b60025481565b60008054906101000a900473ffffffffffffffffffffffffffffffffffffffff1673ffffffffffffffffffffffffffffffffffffffff163373ffffffffffffffffffffffffffffffffffffffff161461075f576040517f08c379a000000000000000000000000000000000000000000000000000000000815260040161075690611435565b60405180910390fd5b60001515600360009054906101000a900460ff161515146107b5576040517f08c379a00000000000000000000000000000000000000000000000000000000081526004016107ac906114a1565b60405180910390fd5b8073ffffffffffffffffffffffffffffffffffffffff1660008054906101000a900473ffffffffffffffffffffffffffffffffffffffff1673ffffffffffffffffffffffffffffffffffffffff167f342827c97908e5e2f71151c08502a66d44b6f758e3ac2f1de95f02eb95f0a73560405160405180910390a3806000806101000a81548173ffffffffffffffffffffffffffffffffffffffff021916908373ffffffffffffffffffffffffffffffffffffffff16021790555050565b600060011515600360009054906101000a900460ff161515146108ca576040517f08c379a00000000000000000000000000000000000000000000000000000000081526004016108c19061160e565b60405180910390fd5b5b6001548211610a30573373ffffffffffffffffffffffffffffffffffffffff166006600084815260200190815260200160002060000160009054906101000a900473ffffffffffffffffffffffffffffffffffffffff1673ffffffffffffffffffffffffffffffffffffffff1603610a1d57600560009054906101000a900473ffffffffffffffffffffffffffffffffffffffff1673ffffffffffffffffffffffffffffffffffffffff1663a9059cbb60008054906101000a900473ffffffffffffffffffffffffffffffffffffffff1660066000868152602001908152602001600020600101546040518363ffffffff1660e01b81526004016109d092919061162e565b6020604051808303816000875af11580156109ef573d6000803e3d6000fd5b505050506040513d601f19601f82011682018060405250810190610a13919061166c565b5060019050610a35565b8180610a2890611524565b9250506108cb565b600090505b919050565b606060008054906101000a900473ffffffffffffffffffffffffffffffffffffffff1673ffffffffffffffffffffffffffffffffffffffff163373ffffffffffffffffffffffffffffffffffffffff1614610aca576040517f08c379a0000000000000000000000000000000000000000000000000000000008152600401610ac190611435565b60405180910390fd5b60001515600360009054906101000a900460ff16151514610b20576040517f08c379a0000000000000000000000000000000000000000000000000000000008152600401610b17906114a1565b60405180910390fd5b816006600085815260200190815260200160002060020160006101000a81548160ff0219169083151502179055506000151582151503610bf8576006600084815260200190815260200160002060010154600254610b7e91906114f0565b600281905550600254610b8f610dfa565b610b9991906114f0565b600481905550600060066000858152602001908152602001600020600101819055506040518060400160405280600c81526020017f557365722072656d6f76656400000000000000000000000000000000000000008152509050610c31565b6040518060400160405280601081526020017f55736572206e6f742072656d6f7665640000000000000000000000000000000081525090505b92915050565b60008060009054906101000a900473ffffffffffffffffffffffffffffffffffffffff1673ffffffffffffffffffffffffffffffffffffffff163373ffffffffffffffffffffffffffffffffffffffff1614610cc8576040517f08c379a0000000000000000000000000000000000000000000000000000000008152600401610cbf90611435565b60405180910390fd5b60001515600360009054906101000a900460ff16151514610d1e576040517f08c379a0000000000000000000000000000000000000000000000000000000008152600401610d15906114a1565b60405180910390fd5b81600360006101000a81548160ff021916908315150217905550600560009054906101000a900473ffffffffffffffffffffffffffffffffffffffff1673ffffffffffffffffffffffffffffffffffffffff1663a9059cbb336004546040518363ffffffff1660e01b8152600401610d9792919061162e565b6020604051808303816000875af1158015610db6573d6000803e3d6000fd5b505050506040513d601f19601f82011682018060405250810190610dda919061166c565b506000600481905550600360009054906101000a900460ff169050919050565b60008060009054906101000a900473ffffffffffffffffffffffffffffffffffffffff1673ffffffffffffffffffffffffffffffffffffffff163373ffffffffffffffffffffffffffffffffffffffff1614610e8b576040517f08c379a0000000000000000000000000000000000000000000000000000000008152600401610e8290611435565b60405180910390fd5b6000600560009054906101000a900473ffffffffffffffffffffffffffffffffffffffff1673ffffffffffffffffffffffffffffffffffffffff166370a08231306040518263ffffffff1660e01b8152600401610ee8919061117e565b602060405180830381865afa158015610f05573d6000803e3d6000fd5b505050506040513d601f19601f82011682018060405250810190610f2991906116ae565b90508091505090565b60015481565b60008060006006600085815260200190815260200160002060000160009054906101000a900473ffffffffffffffffffffffffffffffffffffffff1660066000868152602001908152602001600020600101546006600087815260200190815260200160002060020160009054906101000a900460ff169250925092509193909250565b6000819050919050565b610fcf81610fbc565b82525050565b6000602082019050610fea6000830184610fc6565b92915050565b600073ffffffffffffffffffffffffffffffffffffffff82169050919050565b6000819050919050565b600061103561103061102b84610ff0565b611010565b610ff0565b9050919050565b60006110478261101a565b9050919050565b60006110598261103c565b9050919050565b6110698161104e565b82525050565b60006020820190506110846000830184611060565b92915050565b600080fd5b600061109a82610ff0565b9050919050565b6110aa8161108f565b81146110b557600080fd5b50565b6000813590506110c7816110a1565b92915050565b6110d681610fbc565b81146110e157600080fd5b50565b6000813590506110f3816110cd565b92915050565b600080604083850312156111105761110f61108a565b5b600061111e858286016110b8565b925050602061112f858286016110e4565b9150509250929050565b60008115159050919050565b61114e81611139565b82525050565b60006020820190506111696000830184611145565b92915050565b6111788161108f565b82525050565b6000602082019050611193600083018461116f565b92915050565b60006111a48261108f565b9050919050565b6111b481611199565b81146111bf57600080fd5b50565b6000813590506111d1816111ab565b92915050565b6000602082840312156111ed576111ec61108a565b5b60006111fb848285016111c2565b91505092915050565b60006020828403121561121a5761121961108a565b5b6000611228848285016110b8565b91505092915050565b6000602082840312156112475761124661108a565b5b6000611255848285016110e4565b91505092915050565b61126781611139565b811461127257600080fd5b50565b6000813590506112848161125e565b92915050565b600080604083850312156112a1576112a061108a565b5b60006112af858286016110e4565b92505060206112c085828601611275565b9150509250929050565b600081519050919050565b600082825260208201905092915050565b60005b838110156113045780820151818401526020810190506112e9565b83811115611313576000848401525b50505050565b6000601f19601f8301169050919050565b6000611335826112ca565b61133f81856112d5565b935061134f8185602086016112e6565b61135881611319565b840191505092915050565b6000602082019050818103600083015261137d818461132a565b905092915050565b60006020828403121561139b5761139a61108a565b5b60006113a984828501611275565b91505092915050565b60006060820190506113c7600083018661116f565b6113d46020830185610fc6565b6113e16040830184611145565b949350505050565b7f43616c6c6572206973206e6f74206f776e657200000000000000000000000000600082015250565b600061141f6013836112d5565b915061142a826113e9565b602082019050919050565b6000602082019050818103600083015261144e81611412565b9050919050565b7f41697264726f7020737461747573206d7573742062652066616c736500000000600082015250565b600061148b601c836112d5565b915061149682611455565b602082019050919050565b600060208201905081810360008301526114ba8161147e565b9050919050565b7f4e487b7100000000000000000000000000000000000000000000000000000000600052601160045260246000fd5b60006114fb82610fbc565b915061150683610fbc565b925082821015611519576115186114c1565b5b828203905092915050565b600061152f82610fbc565b91507fffffffffffffffffffffffffffffffffffffffffffffffffffffffffffffffff8203611561576115606114c1565b5b600182019050919050565b600061157782610fbc565b915061158283610fbc565b9250827fffffffffffffffffffffffffffffffffffffffffffffffffffffffffffffffff038211156115b7576115b66114c1565b5b828201905092915050565b7f41697264726f7020737461747573206d75737420626520747275650000000000600082015250565b60006115f8601b836112d5565b9150611603826115c2565b602082019050919050565b60006020820190508181036000830152611627816115eb565b9050919050565b6000604082019050611643600083018561116f565b6116506020830184610fc6565b9392505050565b6000815190506116668161125e565b92915050565b6000602082840312156116825761168161108a565b5b600061169084828501611657565b91505092915050565b6000815190506116a8816110cd565b92915050565b6000602082840312156116c4576116c361108a565b5b60006116d284828501611699565b9150509291505056fea264697066735822122091f7125046d0d25697fcb667604e104c53b50250fc3435e95a30929fb3eb57ab64736f6c634300080d0033",
					"opcodes": "PUSH1 0x80 PUSH1 0x40 MSTORE PUSH1 0x0 PUSH1 0x1 SSTORE PUSH1 0x0 PUSH1 0x2 SSTORE CALLVALUE DUP1 ISZERO PUSH2 0x1A JUMPI PUSH1 0x0 DUP1 REVERT JUMPDEST POP CALLER PUSH1 0x0 DUP1 PUSH2 0x100 EXP DUP2 SLOAD DUP2 PUSH20 0xFFFFFFFFFFFFFFFFFFFFFFFFFFFFFFFFFFFFFFFF MUL NOT AND SWAP1 DUP4 PUSH20 0xFFFFFFFFFFFFFFFFFFFFFFFFFFFFFFFFFFFFFFFF AND MUL OR SWAP1 SSTORE POP PUSH1 0x0 DUP1 SLOAD SWAP1 PUSH2 0x100 EXP SWAP1 DIV PUSH20 0xFFFFFFFFFFFFFFFFFFFFFFFFFFFFFFFFFFFFFFFF AND PUSH20 0xFFFFFFFFFFFFFFFFFFFFFFFFFFFFFFFFFFFFFFFF AND PUSH1 0x0 PUSH20 0xFFFFFFFFFFFFFFFFFFFFFFFFFFFFFFFFFFFFFFFF AND PUSH32 0x342827C97908E5E2F71151C08502A66D44B6F758E3AC2F1DE95F02EB95F0A735 PUSH1 0x40 MLOAD PUSH1 0x40 MLOAD DUP1 SWAP2 SUB SWAP1 LOG3 PUSH2 0x1711 DUP1 PUSH2 0xE5 PUSH1 0x0 CODECOPY PUSH1 0x0 RETURN INVALID PUSH1 0x80 PUSH1 0x40 MSTORE CALLVALUE DUP1 ISZERO PUSH2 0x10 JUMPI PUSH1 0x0 DUP1 REVERT JUMPDEST POP PUSH1 0x4 CALLDATASIZE LT PUSH2 0xEA JUMPI PUSH1 0x0 CALLDATALOAD PUSH1 0xE0 SHR DUP1 PUSH4 0xA6F9DAE1 GT PUSH2 0x8C JUMPI DUP1 PUSH4 0xC24A58A1 GT PUSH2 0x66 JUMPI DUP1 PUSH4 0xC24A58A1 EQ PUSH2 0x261 JUMPI DUP1 PUSH4 0xE1E46CBA EQ PUSH2 0x291 JUMPI DUP1 PUSH4 0xE952F74F EQ PUSH2 0x2AF JUMPI DUP1 PUSH4 0xF5084426 EQ PUSH2 0x2CD JUMPI PUSH2 0xEA JUMP JUMPDEST DUP1 PUSH4 0xA6F9DAE1 EQ PUSH2 0x1E5 JUMPI DUP1 PUSH4 0xADDFEEE5 EQ PUSH2 0x201 JUMPI DUP1 PUSH4 0xB612DD02 EQ PUSH2 0x231 JUMPI PUSH2 0xEA JUMP JUMPDEST DUP1 PUSH4 0x85F0D3CA GT PUSH2 0xC8 JUMPI DUP1 PUSH4 0x85F0D3CA EQ PUSH2 0x15B JUMPI DUP1 PUSH4 0x893D20E8 EQ PUSH2 0x179 JUMPI DUP1 PUSH4 0x99E89649 EQ PUSH2 0x197 JUMPI DUP1 PUSH4 0x9F48E8AD EQ PUSH2 0x1C7 JUMPI PUSH2 0xEA JUMP JUMPDEST DUP1 PUSH4 0x1F3978F EQ PUSH2 0xEF JUMPI DUP1 PUSH4 0x3B93472 EQ PUSH2 0x10D JUMPI DUP1 PUSH4 0x6932AC5F EQ PUSH2 0x12B JUMPI JUMPDEST PUSH1 0x0 DUP1 REVERT JUMPDEST PUSH2 0xF7 PUSH2 0x2FF JUMP JUMPDEST PUSH1 0x40 MLOAD PUSH2 0x104 SWAP2 SWAP1 PUSH2 0xFD5 JUMP JUMPDEST PUSH1 0x40 MLOAD DUP1 SWAP2 SUB SWAP1 RETURN JUMPDEST PUSH2 0x115 PUSH2 0x305 JUMP JUMPDEST PUSH1 0x40 MLOAD PUSH2 0x122 SWAP2 SWAP1 PUSH2 0x106F JUMP JUMPDEST PUSH1 0x40 MLOAD DUP1 SWAP2 SUB SWAP1 RETURN JUMPDEST PUSH2 0x145 PUSH1 0x4 DUP1 CALLDATASIZE SUB DUP2 ADD SWAP1 PUSH2 0x140 SWAP2 SWAP1 PUSH2 0x10F9 JUMP JUMPDEST PUSH2 0x32B JUMP JUMPDEST PUSH1 0x40 MLOAD PUSH2 0x152 SWAP2 SWAP1 PUSH2 0x1154 JUMP JUMPDEST PUSH1 0x40 MLOAD DUP1 SWAP2 SUB SWAP1 RETURN JUMPDEST PUSH2 0x163 PUSH2 0x55E JUMP JUMPDEST PUSH1 0x40 MLOAD PUSH2 0x170 SWAP2 SWAP1 PUSH2 0x1154 JUMP JUMPDEST PUSH1 0x40 MLOAD DUP1 SWAP2 SUB SWAP1 RETURN JUMPDEST PUSH2 0x181 PUSH2 0x571 JUMP JUMPDEST PUSH1 0x40 MLOAD PUSH2 0x18E SWAP2 SWAP1 PUSH2 0x117E JUMP JUMPDEST PUSH1 0x40 MLOAD DUP1 SWAP2 SUB SWAP1 RETURN JUMPDEST PUSH2 0x1B1 PUSH1 0x4 DUP1 CALLDATASIZE SUB DUP2 ADD SWAP1 PUSH2 0x1AC SWAP2 SWAP1 PUSH2 0x11D7 JUMP JUMPDEST PUSH2 0x59A JUMP JUMPDEST PUSH1 0x40 MLOAD PUSH2 0x1BE SWAP2 SWAP1 PUSH2 0x1154 JUMP JUMPDEST PUSH1 0x40 MLOAD DUP1 SWAP2 SUB SWAP1 RETURN JUMPDEST PUSH2 0x1CF PUSH2 0x6CB JUMP JUMPDEST PUSH1 0x40 MLOAD PUSH2 0x1DC SWAP2 SWAP1 PUSH2 0xFD5 JUMP JUMPDEST PUSH1 0x40 MLOAD DUP1 SWAP2 SUB SWAP1 RETURN JUMPDEST PUSH2 0x1FF PUSH1 0x4 DUP1 CALLDATASIZE SUB DUP2 ADD SWAP1 PUSH2 0x1FA SWAP2 SWAP1 PUSH2 0x1204 JUMP JUMPDEST PUSH2 0x6D1 JUMP JUMPDEST STOP JUMPDEST PUSH2 0x21B PUSH1 0x4 DUP1 CALLDATASIZE SUB DUP2 ADD SWAP1 PUSH2 0x216 SWAP2 SWAP1 PUSH2 0x1231 JUMP JUMPDEST PUSH2 0x872 JUMP JUMPDEST PUSH1 0x40 MLOAD PUSH2 0x228 SWAP2 SWAP1 PUSH2 0x1154 JUMP JUMPDEST PUSH1 0x40 MLOAD DUP1 SWAP2 SUB SWAP1 RETURN JUMPDEST PUSH2 0x24B PUSH1 0x4 DUP1 CALLDATASIZE SUB DUP2 ADD SWAP1 PUSH2 0x246 SWAP2 SWAP1 PUSH2 0x128A JUMP JUMPDEST PUSH2 0xA3A JUMP JUMPDEST PUSH1 0x40 MLOAD PUSH2 0x258 SWAP2 SWAP1 PUSH2 0x1363 JUMP JUMPDEST PUSH1 0x40 MLOAD DUP1 SWAP2 SUB SWAP1 RETURN JUMPDEST PUSH2 0x27B PUSH1 0x4 DUP1 CALLDATASIZE SUB DUP2 ADD SWAP1 PUSH2 0x276 SWAP2 SWAP1 PUSH2 0x1385 JUMP JUMPDEST PUSH2 0xC37 JUMP JUMPDEST PUSH1 0x40 MLOAD PUSH2 0x288 SWAP2 SWAP1 PUSH2 0x1154 JUMP JUMPDEST PUSH1 0x40 MLOAD DUP1 SWAP2 SUB SWAP1 RETURN JUMPDEST PUSH2 0x299 PUSH2 0xDFA JUMP JUMPDEST PUSH1 0x40 MLOAD PUSH2 0x2A6 SWAP2 SWAP1 PUSH2 0xFD5 JUMP JUMPDEST PUSH1 0x40 MLOAD DUP1 SWAP2 SUB SWAP1 RETURN JUMPDEST PUSH2 0x2B7 PUSH2 0xF32 JUMP JUMPDEST PUSH1 0x40 MLOAD PUSH2 0x2C4 SWAP2 SWAP1 PUSH2 0xFD5 JUMP JUMPDEST PUSH1 0x40 MLOAD DUP1 SWAP2 SUB SWAP1 RETURN JUMPDEST PUSH2 0x2E7 PUSH1 0x4 DUP1 CALLDATASIZE SUB DUP2 ADD SWAP1 PUSH2 0x2E2 SWAP2 SWAP1 PUSH2 0x1231 JUMP JUMPDEST PUSH2 0xF38 JUMP JUMPDEST PUSH1 0x40 MLOAD PUSH2 0x2F6 SWAP4 SWAP3 SWAP2 SWAP1 PUSH2 0x13B2 JUMP JUMPDEST PUSH1 0x40 MLOAD DUP1 SWAP2 SUB SWAP1 RETURN JUMPDEST PUSH1 0x4 SLOAD DUP2 JUMP JUMPDEST PUSH1 0x5 PUSH1 0x0 SWAP1 SLOAD SWAP1 PUSH2 0x100 EXP SWAP1 DIV PUSH20 0xFFFFFFFFFFFFFFFFFFFFFFFFFFFFFFFFFFFFFFFF AND DUP2 JUMP JUMPDEST PUSH1 0x0 DUP1 PUSH1 0x0 SWAP1 SLOAD SWAP1 PUSH2 0x100 EXP SWAP1 DIV PUSH20 0xFFFFFFFFFFFFFFFFFFFFFFFFFFFFFFFFFFFFFFFF AND PUSH20 0xFFFFFFFFFFFFFFFFFFFFFFFFFFFFFFFFFFFFFFFF AND CALLER PUSH20 0xFFFFFFFFFFFFFFFFFFFFFFFFFFFFFFFFFFFFFFFF AND EQ PUSH2 0x3BC JUMPI PUSH1 0x40 MLOAD PUSH32 0x8C379A000000000000000000000000000000000000000000000000000000000 DUP2 MSTORE PUSH1 0x4 ADD PUSH2 0x3B3 SWAP1 PUSH2 0x1435 JUMP JUMPDEST PUSH1 0x40 MLOAD DUP1 SWAP2 SUB SWAP1 REVERT JUMPDEST PUSH1 0x0 ISZERO ISZERO PUSH1 0x3 PUSH1 0x0 SWAP1 SLOAD SWAP1 PUSH2 0x100 EXP SWAP1 DIV PUSH1 0xFF AND ISZERO ISZERO EQ PUSH2 0x412 JUMPI PUSH1 0x40 MLOAD PUSH32 0x8C379A000000000000000000000000000000000000000000000000000000000 DUP2 MSTORE PUSH1 0x4 ADD PUSH2 0x409 SWAP1 PUSH2 0x14A1 JUMP JUMPDEST PUSH1 0x40 MLOAD DUP1 SWAP2 SUB SWAP1 REVERT JUMPDEST PUSH1 0x2 SLOAD PUSH2 0x41D PUSH2 0xDFA JUMP JUMPDEST PUSH2 0x427 SWAP2 SWAP1 PUSH2 0x14F0 JUMP JUMPDEST PUSH1 0x4 DUP2 SWAP1 SSTORE POP PUSH1 0x0 PUSH1 0x4 SLOAD GT DUP1 ISZERO PUSH2 0x441 JUMPI POP PUSH1 0x4 SLOAD DUP3 GT ISZERO JUMPDEST ISZERO PUSH2 0x553 JUMPI PUSH1 0x40 MLOAD DUP1 PUSH1 0x60 ADD PUSH1 0x40 MSTORE DUP1 DUP5 PUSH20 0xFFFFFFFFFFFFFFFFFFFFFFFFFFFFFFFFFFFFFFFF AND DUP2 MSTORE PUSH1 0x20 ADD DUP4 DUP2 MSTORE PUSH1 0x20 ADD PUSH1 0x1 ISZERO ISZERO DUP2 MSTORE POP PUSH1 0x6 PUSH1 0x0 PUSH1 0x1 SLOAD DUP2 MSTORE PUSH1 0x20 ADD SWAP1 DUP2 MSTORE PUSH1 0x20 ADD PUSH1 0x0 KECCAK256 PUSH1 0x0 DUP3 ADD MLOAD DUP2 PUSH1 0x0 ADD PUSH1 0x0 PUSH2 0x100 EXP DUP2 SLOAD DUP2 PUSH20 0xFFFFFFFFFFFFFFFFFFFFFFFFFFFFFFFFFFFFFFFF MUL NOT AND SWAP1 DUP4 PUSH20 0xFFFFFFFFFFFFFFFFFFFFFFFFFFFFFFFFFFFFFFFF AND MUL OR SWAP1 SSTORE POP PUSH1 0x20 DUP3 ADD MLOAD DUP2 PUSH1 0x1 ADD SSTORE PUSH1 0x40 DUP3 ADD MLOAD DUP2 PUSH1 0x2 ADD PUSH1 0x0 PUSH2 0x100 EXP DUP2 SLOAD DUP2 PUSH1 0xFF MUL NOT AND SWAP1 DUP4 ISZERO ISZERO MUL OR SWAP1 SSTORE POP SWAP1 POP POP PUSH1 0x1 PUSH1 0x0 DUP2 SLOAD DUP1 SWAP3 SWAP2 SWAP1 PUSH2 0x516 SWAP1 PUSH2 0x1524 JUMP JUMPDEST SWAP2 SWAP1 POP SSTORE POP DUP2 PUSH1 0x2 SLOAD PUSH2 0x529 SWAP2 SWAP1 PUSH2 0x156C JUMP JUMPDEST PUSH1 0x2 DUP2 SWAP1 SSTORE POP PUSH1 0x2 SLOAD PUSH2 0x53A PUSH2 0xDFA JUMP JUMPDEST PUSH2 0x544 SWAP2 SWAP1 PUSH2 0x14F0 JUMP JUMPDEST PUSH1 0x4 DUP2 SWAP1 SSTORE POP PUSH1 0x1 SWAP1 POP PUSH2 0x558 JUMP JUMPDEST PUSH1 0x0 SWAP1 POP JUMPDEST SWAP3 SWAP2 POP POP JUMP JUMPDEST PUSH1 0x3 PUSH1 0x0 SWAP1 SLOAD SWAP1 PUSH2 0x100 EXP SWAP1 DIV PUSH1 0xFF AND DUP2 JUMP JUMPDEST PUSH1 0x0 DUP1 PUSH1 0x0 SWAP1 SLOAD SWAP1 PUSH2 0x100 EXP SWAP1 DIV PUSH20 0xFFFFFFFFFFFFFFFFFFFFFFFFFFFFFFFFFFFFFFFF AND SWAP1 POP SWAP1 JUMP JUMPDEST PUSH1 0x0 DUP1 PUSH1 0x0 SWAP1 SLOAD SWAP1 PUSH2 0x100 EXP SWAP1 DIV PUSH20 0xFFFFFFFFFFFFFFFFFFFFFFFFFFFFFFFFFFFFFFFF AND PUSH20 0xFFFFFFFFFFFFFFFFFFFFFFFFFFFFFFFFFFFFFFFF AND CALLER PUSH20 0xFFFFFFFFFFFFFFFFFFFFFFFFFFFFFFFFFFFFFFFF AND EQ PUSH2 0x62B JUMPI PUSH1 0x40 MLOAD PUSH32 0x8C379A000000000000000000000000000000000000000000000000000000000 DUP2 MSTORE PUSH1 0x4 ADD PUSH2 0x622 SWAP1 PUSH2 0x1435 JUMP JUMPDEST PUSH1 0x40 MLOAD DUP1 SWAP2 SUB SWAP1 REVERT JUMPDEST PUSH1 0x0 ISZERO ISZERO PUSH1 0x3 PUSH1 0x0 SWAP1 SLOAD SWAP1 PUSH2 0x100 EXP SWAP1 DIV PUSH1 0xFF AND ISZERO ISZERO EQ PUSH2 0x681 JUMPI PUSH1 0x40 MLOAD PUSH32 0x8C379A000000000000000000000000000000000000000000000000000000000 DUP2 MSTORE PUSH1 0x4 ADD PUSH2 0x678 SWAP1 PUSH2 0x14A1 JUMP JUMPDEST PUSH1 0x40 MLOAD DUP1 SWAP2 SUB SWAP1 REVERT JUMPDEST DUP2 PUSH1 0x5 PUSH1 0x0 PUSH2 0x100 EXP DUP2 SLOAD DUP2 PUSH20 0xFFFFFFFFFFFFFFFFFFFFFFFFFFFFFFFFFFFFFFFF MUL NOT AND SWAP1 DUP4 PUSH20 0xFFFFFFFFFFFFFFFFFFFFFFFFFFFFFFFFFFFFFFFF AND MUL OR SWAP1 SSTORE POP PUSH1 0x1 SWAP1 POP SWAP2 SWAP1 POP JUMP JUMPDEST PUSH1 0x2 SLOAD DUP2 JUMP JUMPDEST PUSH1 0x0 DUP1 SLOAD SWAP1 PUSH2 0x100 EXP SWAP1 DIV PUSH20 0xFFFFFFFFFFFFFFFFFFFFFFFFFFFFFFFFFFFFFFFF AND PUSH20 0xFFFFFFFFFFFFFFFFFFFFFFFFFFFFFFFFFFFFFFFF AND CALLER PUSH20 0xFFFFFFFFFFFFFFFFFFFFFFFFFFFFFFFFFFFFFFFF AND EQ PUSH2 0x75F JUMPI PUSH1 0x40 MLOAD PUSH32 0x8C379A000000000000000000000000000000000000000000000000000000000 DUP2 MSTORE PUSH1 0x4 ADD PUSH2 0x756 SWAP1 PUSH2 0x1435 JUMP JUMPDEST PUSH1 0x40 MLOAD DUP1 SWAP2 SUB SWAP1 REVERT JUMPDEST PUSH1 0x0 ISZERO ISZERO PUSH1 0x3 PUSH1 0x0 SWAP1 SLOAD SWAP1 PUSH2 0x100 EXP SWAP1 DIV PUSH1 0xFF AND ISZERO ISZERO EQ PUSH2 0x7B5 JUMPI PUSH1 0x40 MLOAD PUSH32 0x8C379A000000000000000000000000000000000000000000000000000000000 DUP2 MSTORE PUSH1 0x4 ADD PUSH2 0x7AC SWAP1 PUSH2 0x14A1 JUMP JUMPDEST PUSH1 0x40 MLOAD DUP1 SWAP2 SUB SWAP1 REVERT JUMPDEST DUP1 PUSH20 0xFFFFFFFFFFFFFFFFFFFFFFFFFFFFFFFFFFFFFFFF AND PUSH1 0x0 DUP1 SLOAD SWAP1 PUSH2 0x100 EXP SWAP1 DIV PUSH20 0xFFFFFFFFFFFFFFFFFFFFFFFFFFFFFFFFFFFFFFFF AND PUSH20 0xFFFFFFFFFFFFFFFFFFFFFFFFFFFFFFFFFFFFFFFF AND PUSH32 0x342827C97908E5E2F71151C08502A66D44B6F758E3AC2F1DE95F02EB95F0A735 PUSH1 0x40 MLOAD PUSH1 0x40 MLOAD DUP1 SWAP2 SUB SWAP1 LOG3 DUP1 PUSH1 0x0 DUP1 PUSH2 0x100 EXP DUP2 SLOAD DUP2 PUSH20 0xFFFFFFFFFFFFFFFFFFFFFFFFFFFFFFFFFFFFFFFF MUL NOT AND SWAP1 DUP4 PUSH20 0xFFFFFFFFFFFFFFFFFFFFFFFFFFFFFFFFFFFFFFFF AND MUL OR SWAP1 SSTORE POP POP JUMP JUMPDEST PUSH1 0x0 PUSH1 0x1 ISZERO ISZERO PUSH1 0x3 PUSH1 0x0 SWAP1 SLOAD SWAP1 PUSH2 0x100 EXP SWAP1 DIV PUSH1 0xFF AND ISZERO ISZERO EQ PUSH2 0x8CA JUMPI PUSH1 0x40 MLOAD PUSH32 0x8C379A000000000000000000000000000000000000000000000000000000000 DUP2 MSTORE PUSH1 0x4 ADD PUSH2 0x8C1 SWAP1 PUSH2 0x160E JUMP JUMPDEST PUSH1 0x40 MLOAD DUP1 SWAP2 SUB SWAP1 REVERT JUMPDEST JUMPDEST PUSH1 0x1 SLOAD DUP3 GT PUSH2 0xA30 JUMPI CALLER PUSH20 0xFFFFFFFFFFFFFFFFFFFFFFFFFFFFFFFFFFFFFFFF AND PUSH1 0x6 PUSH1 0x0 DUP5 DUP2 MSTORE PUSH1 0x20 ADD SWAP1 DUP2 MSTORE PUSH1 0x20 ADD PUSH1 0x0 KECCAK256 PUSH1 0x0 ADD PUSH1 0x0 SWAP1 SLOAD SWAP1 PUSH2 0x100 EXP SWAP1 DIV PUSH20 0xFFFFFFFFFFFFFFFFFFFFFFFFFFFFFFFFFFFFFFFF AND PUSH20 0xFFFFFFFFFFFFFFFFFFFFFFFFFFFFFFFFFFFFFFFF AND SUB PUSH2 0xA1D JUMPI PUSH1 0x5 PUSH1 0x0 SWAP1 SLOAD SWAP1 PUSH2 0x100 EXP SWAP1 DIV PUSH20 0xFFFFFFFFFFFFFFFFFFFFFFFFFFFFFFFFFFFFFFFF AND PUSH20 0xFFFFFFFFFFFFFFFFFFFFFFFFFFFFFFFFFFFFFFFF AND PUSH4 0xA9059CBB PUSH1 0x0 DUP1 SLOAD SWAP1 PUSH2 0x100 EXP SWAP1 DIV PUSH20 0xFFFFFFFFFFFFFFFFFFFFFFFFFFFFFFFFFFFFFFFF AND PUSH1 0x6 PUSH1 0x0 DUP7 DUP2 MSTORE PUSH1 0x20 ADD SWAP1 DUP2 MSTORE PUSH1 0x20 ADD PUSH1 0x0 KECCAK256 PUSH1 0x1 ADD SLOAD PUSH1 0x40 MLOAD DUP4 PUSH4 0xFFFFFFFF AND PUSH1 0xE0 SHL DUP2 MSTORE PUSH1 0x4 ADD PUSH2 0x9D0 SWAP3 SWAP2 SWAP1 PUSH2 0x162E JUMP JUMPDEST PUSH1 0x20 PUSH1 0x40 MLOAD DUP1 DUP4 SUB DUP2 PUSH1 0x0 DUP8 GAS CALL ISZERO DUP1 ISZERO PUSH2 0x9EF JUMPI RETURNDATASIZE PUSH1 0x0 DUP1 RETURNDATACOPY RETURNDATASIZE PUSH1 0x0 REVERT JUMPDEST POP POP POP POP PUSH1 0x40 MLOAD RETURNDATASIZE PUSH1 0x1F NOT PUSH1 0x1F DUP3 ADD AND DUP3 ADD DUP1 PUSH1 0x40 MSTORE POP DUP2 ADD SWAP1 PUSH2 0xA13 SWAP2 SWAP1 PUSH2 0x166C JUMP JUMPDEST POP PUSH1 0x1 SWAP1 POP PUSH2 0xA35 JUMP JUMPDEST DUP2 DUP1 PUSH2 0xA28 SWAP1 PUSH2 0x1524 JUMP JUMPDEST SWAP3 POP POP PUSH2 0x8CB JUMP JUMPDEST PUSH1 0x0 SWAP1 POP JUMPDEST SWAP2 SWAP1 POP JUMP JUMPDEST PUSH1 0x60 PUSH1 0x0 DUP1 SLOAD SWAP1 PUSH2 0x100 EXP SWAP1 DIV PUSH20 0xFFFFFFFFFFFFFFFFFFFFFFFFFFFFFFFFFFFFFFFF AND PUSH20 0xFFFFFFFFFFFFFFFFFFFFFFFFFFFFFFFFFFFFFFFF AND CALLER PUSH20 0xFFFFFFFFFFFFFFFFFFFFFFFFFFFFFFFFFFFFFFFF AND EQ PUSH2 0xACA JUMPI PUSH1 0x40 MLOAD PUSH32 0x8C379A000000000000000000000000000000000000000000000000000000000 DUP2 MSTORE PUSH1 0x4 ADD PUSH2 0xAC1 SWAP1 PUSH2 0x1435 JUMP JUMPDEST PUSH1 0x40 MLOAD DUP1 SWAP2 SUB SWAP1 REVERT JUMPDEST PUSH1 0x0 ISZERO ISZERO PUSH1 0x3 PUSH1 0x0 SWAP1 SLOAD SWAP1 PUSH2 0x100 EXP SWAP1 DIV PUSH1 0xFF AND ISZERO ISZERO EQ PUSH2 0xB20 JUMPI PUSH1 0x40 MLOAD PUSH32 0x8C379A000000000000000000000000000000000000000000000000000000000 DUP2 MSTORE PUSH1 0x4 ADD PUSH2 0xB17 SWAP1 PUSH2 0x14A1 JUMP JUMPDEST PUSH1 0x40 MLOAD DUP1 SWAP2 SUB SWAP1 REVERT JUMPDEST DUP2 PUSH1 0x6 PUSH1 0x0 DUP6 DUP2 MSTORE PUSH1 0x20 ADD SWAP1 DUP2 MSTORE PUSH1 0x20 ADD PUSH1 0x0 KECCAK256 PUSH1 0x2 ADD PUSH1 0x0 PUSH2 0x100 EXP DUP2 SLOAD DUP2 PUSH1 0xFF MUL NOT AND SWAP1 DUP4 ISZERO ISZERO MUL OR SWAP1 SSTORE POP PUSH1 0x0 ISZERO ISZERO DUP3 ISZERO ISZERO SUB PUSH2 0xBF8 JUMPI PUSH1 0x6 PUSH1 0x0 DUP5 DUP2 MSTORE PUSH1 0x20 ADD SWAP1 DUP2 MSTORE PUSH1 0x20 ADD PUSH1 0x0 KECCAK256 PUSH1 0x1 ADD SLOAD PUSH1 0x2 SLOAD PUSH2 0xB7E SWAP2 SWAP1 PUSH2 0x14F0 JUMP JUMPDEST PUSH1 0x2 DUP2 SWAP1 SSTORE POP PUSH1 0x2 SLOAD PUSH2 0xB8F PUSH2 0xDFA JUMP JUMPDEST PUSH2 0xB99 SWAP2 SWAP1 PUSH2 0x14F0 JUMP JUMPDEST PUSH1 0x4 DUP2 SWAP1 SSTORE POP PUSH1 0x0 PUSH1 0x6 PUSH1 0x0 DUP6 DUP2 MSTORE PUSH1 0x20 ADD SWAP1 DUP2 MSTORE PUSH1 0x20 ADD PUSH1 0x0 KECCAK256 PUSH1 0x1 ADD DUP2 SWAP1 SSTORE POP PUSH1 0x40 MLOAD DUP1 PUSH1 0x40 ADD PUSH1 0x40 MSTORE DUP1 PUSH1 0xC DUP2 MSTORE PUSH1 0x20 ADD PUSH32 0x557365722072656D6F7665640000000000000000000000000000000000000000 DUP2 MSTORE POP SWAP1 POP PUSH2 0xC31 JUMP JUMPDEST PUSH1 0x40 MLOAD DUP1 PUSH1 0x40 ADD PUSH1 0x40 MSTORE DUP1 PUSH1 0x10 DUP2 MSTORE PUSH1 0x20 ADD PUSH32 0x55736572206E6F742072656D6F76656400000000000000000000000000000000 DUP2 MSTORE POP SWAP1 POP JUMPDEST SWAP3 SWAP2 POP POP JUMP JUMPDEST PUSH1 0x0 DUP1 PUSH1 0x0 SWAP1 SLOAD SWAP1 PUSH2 0x100 EXP SWAP1 DIV PUSH20 0xFFFFFFFFFFFFFFFFFFFFFFFFFFFFFFFFFFFFFFFF AND PUSH20 0xFFFFFFFFFFFFFFFFFFFFFFFFFFFFFFFFFFFFFFFF AND CALLER PUSH20 0xFFFFFFFFFFFFFFFFFFFFFFFFFFFFFFFFFFFFFFFF AND EQ PUSH2 0xCC8 JUMPI PUSH1 0x40 MLOAD PUSH32 0x8C379A000000000000000000000000000000000000000000000000000000000 DUP2 MSTORE PUSH1 0x4 ADD PUSH2 0xCBF SWAP1 PUSH2 0x1435 JUMP JUMPDEST PUSH1 0x40 MLOAD DUP1 SWAP2 SUB SWAP1 REVERT JUMPDEST PUSH1 0x0 ISZERO ISZERO PUSH1 0x3 PUSH1 0x0 SWAP1 SLOAD SWAP1 PUSH2 0x100 EXP SWAP1 DIV PUSH1 0xFF AND ISZERO ISZERO EQ PUSH2 0xD1E JUMPI PUSH1 0x40 MLOAD PUSH32 0x8C379A000000000000000000000000000000000000000000000000000000000 DUP2 MSTORE PUSH1 0x4 ADD PUSH2 0xD15 SWAP1 PUSH2 0x14A1 JUMP JUMPDEST PUSH1 0x40 MLOAD DUP1 SWAP2 SUB SWAP1 REVERT JUMPDEST DUP2 PUSH1 0x3 PUSH1 0x0 PUSH2 0x100 EXP DUP2 SLOAD DUP2 PUSH1 0xFF MUL NOT AND SWAP1 DUP4 ISZERO ISZERO MUL OR SWAP1 SSTORE POP PUSH1 0x5 PUSH1 0x0 SWAP1 SLOAD SWAP1 PUSH2 0x100 EXP SWAP1 DIV PUSH20 0xFFFFFFFFFFFFFFFFFFFFFFFFFFFFFFFFFFFFFFFF AND PUSH20 0xFFFFFFFFFFFFFFFFFFFFFFFFFFFFFFFFFFFFFFFF AND PUSH4 0xA9059CBB CALLER PUSH1 0x4 SLOAD PUSH1 0x40 MLOAD DUP4 PUSH4 0xFFFFFFFF AND PUSH1 0xE0 SHL DUP2 MSTORE PUSH1 0x4 ADD PUSH2 0xD97 SWAP3 SWAP2 SWAP1 PUSH2 0x162E JUMP JUMPDEST PUSH1 0x20 PUSH1 0x40 MLOAD DUP1 DUP4 SUB DUP2 PUSH1 0x0 DUP8 GAS CALL ISZERO DUP1 ISZERO PUSH2 0xDB6 JUMPI RETURNDATASIZE PUSH1 0x0 DUP1 RETURNDATACOPY RETURNDATASIZE PUSH1 0x0 REVERT JUMPDEST POP POP POP POP PUSH1 0x40 MLOAD RETURNDATASIZE PUSH1 0x1F NOT PUSH1 0x1F DUP3 ADD AND DUP3 ADD DUP1 PUSH1 0x40 MSTORE POP DUP2 ADD SWAP1 PUSH2 0xDDA SWAP2 SWAP1 PUSH2 0x166C JUMP JUMPDEST POP PUSH1 0x0 PUSH1 0x4 DUP2 SWAP1 SSTORE POP PUSH1 0x3 PUSH1 0x0 SWAP1 SLOAD SWAP1 PUSH2 0x100 EXP SWAP1 DIV PUSH1 0xFF AND SWAP1 POP SWAP2 SWAP1 POP JUMP JUMPDEST PUSH1 0x0 DUP1 PUSH1 0x0 SWAP1 SLOAD SWAP1 PUSH2 0x100 EXP SWAP1 DIV PUSH20 0xFFFFFFFFFFFFFFFFFFFFFFFFFFFFFFFFFFFFFFFF AND PUSH20 0xFFFFFFFFFFFFFFFFFFFFFFFFFFFFFFFFFFFFFFFF AND CALLER PUSH20 0xFFFFFFFFFFFFFFFFFFFFFFFFFFFFFFFFFFFFFFFF AND EQ PUSH2 0xE8B JUMPI PUSH1 0x40 MLOAD PUSH32 0x8C379A000000000000000000000000000000000000000000000000000000000 DUP2 MSTORE PUSH1 0x4 ADD PUSH2 0xE82 SWAP1 PUSH2 0x1435 JUMP JUMPDEST PUSH1 0x40 MLOAD DUP1 SWAP2 SUB SWAP1 REVERT JUMPDEST PUSH1 0x0 PUSH1 0x5 PUSH1 0x0 SWAP1 SLOAD SWAP1 PUSH2 0x100 EXP SWAP1 DIV PUSH20 0xFFFFFFFFFFFFFFFFFFFFFFFFFFFFFFFFFFFFFFFF AND PUSH20 0xFFFFFFFFFFFFFFFFFFFFFFFFFFFFFFFFFFFFFFFF AND PUSH4 0x70A08231 ADDRESS PUSH1 0x40 MLOAD DUP3 PUSH4 0xFFFFFFFF AND PUSH1 0xE0 SHL DUP2 MSTORE PUSH1 0x4 ADD PUSH2 0xEE8 SWAP2 SWAP1 PUSH2 0x117E JUMP JUMPDEST PUSH1 0x20 PUSH1 0x40 MLOAD DUP1 DUP4 SUB DUP2 DUP7 GAS STATICCALL ISZERO DUP1 ISZERO PUSH2 0xF05 JUMPI RETURNDATASIZE PUSH1 0x0 DUP1 RETURNDATACOPY RETURNDATASIZE PUSH1 0x0 REVERT JUMPDEST POP POP POP POP PUSH1 0x40 MLOAD RETURNDATASIZE PUSH1 0x1F NOT PUSH1 0x1F DUP3 ADD AND DUP3 ADD DUP1 PUSH1 0x40 MSTORE POP DUP2 ADD SWAP1 PUSH2 0xF29 SWAP2 SWAP1 PUSH2 0x16AE JUMP JUMPDEST SWAP1 POP DUP1 SWAP2 POP POP SWAP1 JUMP JUMPDEST PUSH1 0x1 SLOAD DUP2 JUMP JUMPDEST PUSH1 0x0 DUP1 PUSH1 0x0 PUSH1 0x6 PUSH1 0x0 DUP6 DUP2 MSTORE PUSH1 0x20 ADD SWAP1 DUP2 MSTORE PUSH1 0x20 ADD PUSH1 0x0 KECCAK256 PUSH1 0x0 ADD PUSH1 0x0 SWAP1 SLOAD SWAP1 PUSH2 0x100 EXP SWAP1 DIV PUSH20 0xFFFFFFFFFFFFFFFFFFFFFFFFFFFFFFFFFFFFFFFF AND PUSH1 0x6 PUSH1 0x0 DUP7 DUP2 MSTORE PUSH1 0x20 ADD SWAP1 DUP2 MSTORE PUSH1 0x20 ADD PUSH1 0x0 KECCAK256 PUSH1 0x1 ADD SLOAD PUSH1 0x6 PUSH1 0x0 DUP8 DUP2 MSTORE PUSH1 0x20 ADD SWAP1 DUP2 MSTORE PUSH1 0x20 ADD PUSH1 0x0 KECCAK256 PUSH1 0x2 ADD PUSH1 0x0 SWAP1 SLOAD SWAP1 PUSH2 0x100 EXP SWAP1 DIV PUSH1 0xFF AND SWAP3 POP SWAP3 POP SWAP3 POP SWAP2 SWAP4 SWAP1 SWAP3 POP JUMP JUMPDEST PUSH1 0x0 DUP2 SWAP1 POP SWAP2 SWAP1 POP JUMP JUMPDEST PUSH2 0xFCF DUP2 PUSH2 0xFBC JUMP JUMPDEST DUP3 MSTORE POP POP JUMP JUMPDEST PUSH1 0x0 PUSH1 0x20 DUP3 ADD SWAP1 POP PUSH2 0xFEA PUSH1 0x0 DUP4 ADD DUP5 PUSH2 0xFC6 JUMP JUMPDEST SWAP3 SWAP2 POP POP JUMP JUMPDEST PUSH1 0x0 PUSH20 0xFFFFFFFFFFFFFFFFFFFFFFFFFFFFFFFFFFFFFFFF DUP3 AND SWAP1 POP SWAP2 SWAP1 POP JUMP JUMPDEST PUSH1 0x0 DUP2 SWAP1 POP SWAP2 SWAP1 POP JUMP JUMPDEST PUSH1 0x0 PUSH2 0x1035 PUSH2 0x1030 PUSH2 0x102B DUP5 PUSH2 0xFF0 JUMP JUMPDEST PUSH2 0x1010 JUMP JUMPDEST PUSH2 0xFF0 JUMP JUMPDEST SWAP1 POP SWAP2 SWAP1 POP JUMP JUMPDEST PUSH1 0x0 PUSH2 0x1047 DUP3 PUSH2 0x101A JUMP JUMPDEST SWAP1 POP SWAP2 SWAP1 POP JUMP JUMPDEST PUSH1 0x0 PUSH2 0x1059 DUP3 PUSH2 0x103C JUMP JUMPDEST SWAP1 POP SWAP2 SWAP1 POP JUMP JUMPDEST PUSH2 0x1069 DUP2 PUSH2 0x104E JUMP JUMPDEST DUP3 MSTORE POP POP JUMP JUMPDEST PUSH1 0x0 PUSH1 0x20 DUP3 ADD SWAP1 POP PUSH2 0x1084 PUSH1 0x0 DUP4 ADD DUP5 PUSH2 0x1060 JUMP JUMPDEST SWAP3 SWAP2 POP POP JUMP JUMPDEST PUSH1 0x0 DUP1 REVERT JUMPDEST PUSH1 0x0 PUSH2 0x109A DUP3 PUSH2 0xFF0 JUMP JUMPDEST SWAP1 POP SWAP2 SWAP1 POP JUMP JUMPDEST PUSH2 0x10AA DUP2 PUSH2 0x108F JUMP JUMPDEST DUP2 EQ PUSH2 0x10B5 JUMPI PUSH1 0x0 DUP1 REVERT JUMPDEST POP JUMP JUMPDEST PUSH1 0x0 DUP2 CALLDATALOAD SWAP1 POP PUSH2 0x10C7 DUP2 PUSH2 0x10A1 JUMP JUMPDEST SWAP3 SWAP2 POP POP JUMP JUMPDEST PUSH2 0x10D6 DUP2 PUSH2 0xFBC JUMP JUMPDEST DUP2 EQ PUSH2 0x10E1 JUMPI PUSH1 0x0 DUP1 REVERT JUMPDEST POP JUMP JUMPDEST PUSH1 0x0 DUP2 CALLDATALOAD SWAP1 POP PUSH2 0x10F3 DUP2 PUSH2 0x10CD JUMP JUMPDEST SWAP3 SWAP2 POP POP JUMP JUMPDEST PUSH1 0x0 DUP1 PUSH1 0x40 DUP4 DUP6 SUB SLT ISZERO PUSH2 0x1110 JUMPI PUSH2 0x110F PUSH2 0x108A JUMP JUMPDEST JUMPDEST PUSH1 0x0 PUSH2 0x111E DUP6 DUP3 DUP7 ADD PUSH2 0x10B8 JUMP JUMPDEST SWAP3 POP POP PUSH1 0x20 PUSH2 0x112F DUP6 DUP3 DUP7 ADD PUSH2 0x10E4 JUMP JUMPDEST SWAP2 POP POP SWAP3 POP SWAP3 SWAP1 POP JUMP JUMPDEST PUSH1 0x0 DUP2 ISZERO ISZERO SWAP1 POP SWAP2 SWAP1 POP JUMP JUMPDEST PUSH2 0x114E DUP2 PUSH2 0x1139 JUMP JUMPDEST DUP3 MSTORE POP POP JUMP JUMPDEST PUSH1 0x0 PUSH1 0x20 DUP3 ADD SWAP1 POP PUSH2 0x1169 PUSH1 0x0 DUP4 ADD DUP5 PUSH2 0x1145 JUMP JUMPDEST SWAP3 SWAP2 POP POP JUMP JUMPDEST PUSH2 0x1178 DUP2 PUSH2 0x108F JUMP JUMPDEST DUP3 MSTORE POP POP JUMP JUMPDEST PUSH1 0x0 PUSH1 0x20 DUP3 ADD SWAP1 POP PUSH2 0x1193 PUSH1 0x0 DUP4 ADD DUP5 PUSH2 0x116F JUMP JUMPDEST SWAP3 SWAP2 POP POP JUMP JUMPDEST PUSH1 0x0 PUSH2 0x11A4 DUP3 PUSH2 0x108F JUMP JUMPDEST SWAP1 POP SWAP2 SWAP1 POP JUMP JUMPDEST PUSH2 0x11B4 DUP2 PUSH2 0x1199 JUMP JUMPDEST DUP2 EQ PUSH2 0x11BF JUMPI PUSH1 0x0 DUP1 REVERT JUMPDEST POP JUMP JUMPDEST PUSH1 0x0 DUP2 CALLDATALOAD SWAP1 POP PUSH2 0x11D1 DUP2 PUSH2 0x11AB JUMP JUMPDEST SWAP3 SWAP2 POP POP JUMP JUMPDEST PUSH1 0x0 PUSH1 0x20 DUP3 DUP5 SUB SLT ISZERO PUSH2 0x11ED JUMPI PUSH2 0x11EC PUSH2 0x108A JUMP JUMPDEST JUMPDEST PUSH1 0x0 PUSH2 0x11FB DUP5 DUP3 DUP6 ADD PUSH2 0x11C2 JUMP JUMPDEST SWAP2 POP POP SWAP3 SWAP2 POP POP JUMP JUMPDEST PUSH1 0x0 PUSH1 0x20 DUP3 DUP5 SUB SLT ISZERO PUSH2 0x121A JUMPI PUSH2 0x1219 PUSH2 0x108A JUMP JUMPDEST JUMPDEST PUSH1 0x0 PUSH2 0x1228 DUP5 DUP3 DUP6 ADD PUSH2 0x10B8 JUMP JUMPDEST SWAP2 POP POP SWAP3 SWAP2 POP POP JUMP JUMPDEST PUSH1 0x0 PUSH1 0x20 DUP3 DUP5 SUB SLT ISZERO PUSH2 0x1247 JUMPI PUSH2 0x1246 PUSH2 0x108A JUMP JUMPDEST JUMPDEST PUSH1 0x0 PUSH2 0x1255 DUP5 DUP3 DUP6 ADD PUSH2 0x10E4 JUMP JUMPDEST SWAP2 POP POP SWAP3 SWAP2 POP POP JUMP JUMPDEST PUSH2 0x1267 DUP2 PUSH2 0x1139 JUMP JUMPDEST DUP2 EQ PUSH2 0x1272 JUMPI PUSH1 0x0 DUP1 REVERT JUMPDEST POP JUMP JUMPDEST PUSH1 0x0 DUP2 CALLDATALOAD SWAP1 POP PUSH2 0x1284 DUP2 PUSH2 0x125E JUMP JUMPDEST SWAP3 SWAP2 POP POP JUMP JUMPDEST PUSH1 0x0 DUP1 PUSH1 0x40 DUP4 DUP6 SUB SLT ISZERO PUSH2 0x12A1 JUMPI PUSH2 0x12A0 PUSH2 0x108A JUMP JUMPDEST JUMPDEST PUSH1 0x0 PUSH2 0x12AF DUP6 DUP3 DUP7 ADD PUSH2 0x10E4 JUMP JUMPDEST SWAP3 POP POP PUSH1 0x20 PUSH2 0x12C0 DUP6 DUP3 DUP7 ADD PUSH2 0x1275 JUMP JUMPDEST SWAP2 POP POP SWAP3 POP SWAP3 SWAP1 POP JUMP JUMPDEST PUSH1 0x0 DUP2 MLOAD SWAP1 POP SWAP2 SWAP1 POP JUMP JUMPDEST PUSH1 0x0 DUP3 DUP3 MSTORE PUSH1 0x20 DUP3 ADD SWAP1 POP SWAP3 SWAP2 POP POP JUMP JUMPDEST PUSH1 0x0 JUMPDEST DUP4 DUP2 LT ISZERO PUSH2 0x1304 JUMPI DUP1 DUP3 ADD MLOAD DUP2 DUP5 ADD MSTORE PUSH1 0x20 DUP2 ADD SWAP1 POP PUSH2 0x12E9 JUMP JUMPDEST DUP4 DUP2 GT ISZERO PUSH2 0x1313 JUMPI PUSH1 0x0 DUP5 DUP5 ADD MSTORE JUMPDEST POP POP POP POP JUMP JUMPDEST PUSH1 0x0 PUSH1 0x1F NOT PUSH1 0x1F DUP4 ADD AND SWAP1 POP SWAP2 SWAP1 POP JUMP JUMPDEST PUSH1 0x0 PUSH2 0x1335 DUP3 PUSH2 0x12CA JUMP JUMPDEST PUSH2 0x133F DUP2 DUP6 PUSH2 0x12D5 JUMP JUMPDEST SWAP4 POP PUSH2 0x134F DUP2 DUP6 PUSH1 0x20 DUP7 ADD PUSH2 0x12E6 JUMP JUMPDEST PUSH2 0x1358 DUP2 PUSH2 0x1319 JUMP JUMPDEST DUP5 ADD SWAP2 POP POP SWAP3 SWAP2 POP POP JUMP JUMPDEST PUSH1 0x0 PUSH1 0x20 DUP3 ADD SWAP1 POP DUP2 DUP2 SUB PUSH1 0x0 DUP4 ADD MSTORE PUSH2 0x137D DUP2 DUP5 PUSH2 0x132A JUMP JUMPDEST SWAP1 POP SWAP3 SWAP2 POP POP JUMP JUMPDEST PUSH1 0x0 PUSH1 0x20 DUP3 DUP5 SUB SLT ISZERO PUSH2 0x139B JUMPI PUSH2 0x139A PUSH2 0x108A JUMP JUMPDEST JUMPDEST PUSH1 0x0 PUSH2 0x13A9 DUP5 DUP3 DUP6 ADD PUSH2 0x1275 JUMP JUMPDEST SWAP2 POP POP SWAP3 SWAP2 POP POP JUMP JUMPDEST PUSH1 0x0 PUSH1 0x60 DUP3 ADD SWAP1 POP PUSH2 0x13C7 PUSH1 0x0 DUP4 ADD DUP7 PUSH2 0x116F JUMP JUMPDEST PUSH2 0x13D4 PUSH1 0x20 DUP4 ADD DUP6 PUSH2 0xFC6 JUMP JUMPDEST PUSH2 0x13E1 PUSH1 0x40 DUP4 ADD DUP5 PUSH2 0x1145 JUMP JUMPDEST SWAP5 SWAP4 POP POP POP POP JUMP JUMPDEST PUSH32 0x43616C6C6572206973206E6F74206F776E657200000000000000000000000000 PUSH1 0x0 DUP3 ADD MSTORE POP JUMP JUMPDEST PUSH1 0x0 PUSH2 0x141F PUSH1 0x13 DUP4 PUSH2 0x12D5 JUMP JUMPDEST SWAP2 POP PUSH2 0x142A DUP3 PUSH2 0x13E9 JUMP JUMPDEST PUSH1 0x20 DUP3 ADD SWAP1 POP SWAP2 SWAP1 POP JUMP JUMPDEST PUSH1 0x0 PUSH1 0x20 DUP3 ADD SWAP1 POP DUP2 DUP2 SUB PUSH1 0x0 DUP4 ADD MSTORE PUSH2 0x144E DUP2 PUSH2 0x1412 JUMP JUMPDEST SWAP1 POP SWAP2 SWAP1 POP JUMP JUMPDEST PUSH32 0x41697264726F7020737461747573206D7573742062652066616C736500000000 PUSH1 0x0 DUP3 ADD MSTORE POP JUMP JUMPDEST PUSH1 0x0 PUSH2 0x148B PUSH1 0x1C DUP4 PUSH2 0x12D5 JUMP JUMPDEST SWAP2 POP PUSH2 0x1496 DUP3 PUSH2 0x1455 JUMP JUMPDEST PUSH1 0x20 DUP3 ADD SWAP1 POP SWAP2 SWAP1 POP JUMP JUMPDEST PUSH1 0x0 PUSH1 0x20 DUP3 ADD SWAP1 POP DUP2 DUP2 SUB PUSH1 0x0 DUP4 ADD MSTORE PUSH2 0x14BA DUP2 PUSH2 0x147E JUMP JUMPDEST SWAP1 POP SWAP2 SWAP1 POP JUMP JUMPDEST PUSH32 0x4E487B7100000000000000000000000000000000000000000000000000000000 PUSH1 0x0 MSTORE PUSH1 0x11 PUSH1 0x4 MSTORE PUSH1 0x24 PUSH1 0x0 REVERT JUMPDEST PUSH1 0x0 PUSH2 0x14FB DUP3 PUSH2 0xFBC JUMP JUMPDEST SWAP2 POP PUSH2 0x1506 DUP4 PUSH2 0xFBC JUMP JUMPDEST SWAP3 POP DUP3 DUP3 LT ISZERO PUSH2 0x1519 JUMPI PUSH2 0x1518 PUSH2 0x14C1 JUMP JUMPDEST JUMPDEST DUP3 DUP3 SUB SWAP1 POP SWAP3 SWAP2 POP POP JUMP JUMPDEST PUSH1 0x0 PUSH2 0x152F DUP3 PUSH2 0xFBC JUMP JUMPDEST SWAP2 POP PUSH32 0xFFFFFFFFFFFFFFFFFFFFFFFFFFFFFFFFFFFFFFFFFFFFFFFFFFFFFFFFFFFFFFFF DUP3 SUB PUSH2 0x1561 JUMPI PUSH2 0x1560 PUSH2 0x14C1 JUMP JUMPDEST JUMPDEST PUSH1 0x1 DUP3 ADD SWAP1 POP SWAP2 SWAP1 POP JUMP JUMPDEST PUSH1 0x0 PUSH2 0x1577 DUP3 PUSH2 0xFBC JUMP JUMPDEST SWAP2 POP PUSH2 0x1582 DUP4 PUSH2 0xFBC JUMP JUMPDEST SWAP3 POP DUP3 PUSH32 0xFFFFFFFFFFFFFFFFFFFFFFFFFFFFFFFFFFFFFFFFFFFFFFFFFFFFFFFFFFFFFFFF SUB DUP3 GT ISZERO PUSH2 0x15B7 JUMPI PUSH2 0x15B6 PUSH2 0x14C1 JUMP JUMPDEST JUMPDEST DUP3 DUP3 ADD SWAP1 POP SWAP3 SWAP2 POP POP JUMP JUMPDEST PUSH32 0x41697264726F7020737461747573206D75737420626520747275650000000000 PUSH1 0x0 DUP3 ADD MSTORE POP JUMP JUMPDEST PUSH1 0x0 PUSH2 0x15F8 PUSH1 0x1B DUP4 PUSH2 0x12D5 JUMP JUMPDEST SWAP2 POP PUSH2 0x1603 DUP3 PUSH2 0x15C2 JUMP JUMPDEST PUSH1 0x20 DUP3 ADD SWAP1 POP SWAP2 SWAP1 POP JUMP JUMPDEST PUSH1 0x0 PUSH1 0x20 DUP3 ADD SWAP1 POP DUP2 DUP2 SUB PUSH1 0x0 DUP4 ADD MSTORE PUSH2 0x1627 DUP2 PUSH2 0x15EB JUMP JUMPDEST SWAP1 POP SWAP2 SWAP1 POP JUMP JUMPDEST PUSH1 0x0 PUSH1 0x40 DUP3 ADD SWAP1 POP PUSH2 0x1643 PUSH1 0x0 DUP4 ADD DUP6 PUSH2 0x116F JUMP JUMPDEST PUSH2 0x1650 PUSH1 0x20 DUP4 ADD DUP5 PUSH2 0xFC6 JUMP JUMPDEST SWAP4 SWAP3 POP POP POP JUMP JUMPDEST PUSH1 0x0 DUP2 MLOAD SWAP1 POP PUSH2 0x1666 DUP2 PUSH2 0x125E JUMP JUMPDEST SWAP3 SWAP2 POP POP JUMP JUMPDEST PUSH1 0x0 PUSH1 0x20 DUP3 DUP5 SUB SLT ISZERO PUSH2 0x1682 JUMPI PUSH2 0x1681 PUSH2 0x108A JUMP JUMPDEST JUMPDEST PUSH1 0x0 PUSH2 0x1690 DUP5 DUP3 DUP6 ADD PUSH2 0x1657 JUMP JUMPDEST SWAP2 POP POP SWAP3 SWAP2 POP POP JUMP JUMPDEST PUSH1 0x0 DUP2 MLOAD SWAP1 POP PUSH2 0x16A8 DUP2 PUSH2 0x10CD JUMP JUMPDEST SWAP3 SWAP2 POP POP JUMP JUMPDEST PUSH1 0x0 PUSH1 0x20 DUP3 DUP5 SUB SLT ISZERO PUSH2 0x16C4 JUMPI PUSH2 0x16C3 PUSH2 0x108A JUMP JUMPDEST JUMPDEST PUSH1 0x0 PUSH2 0x16D2 DUP5 DUP3 DUP6 ADD PUSH2 0x1699 JUMP JUMPDEST SWAP2 POP POP SWAP3 SWAP2 POP POP JUMP INVALID LOG2 PUSH5 0x6970667358 0x22 SLT KECCAK256 SWAP2 0xF7 SLT POP CHAINID 0xD0 0xD2 JUMP SWAP8 0xFC 0xB6 PUSH8 0x604E104C53B50250 0xFC CALLVALUE CALLDATALOAD 0xE9 GAS ADDRESS SWAP3 SWAP16 0xB3 0xEB JUMPI 0xAB PUSH5 0x736F6C6343 STOP ADDMOD 0xD STOP CALLER "
				},
				"gasEstimates": {
					"creation": {
						"codeDepositCost": "1181000",
						"executionCost": "39183",
						"totalCost": "1220183"
					},
					"external": {
						"AddUser(address,uint256)": "infinite",
						"AirDropStatus()": "2494",
						"DeployAirDrop(bool)": "infinite",
						"RedeemAirdrop(uint256)": "infinite",
						"Register_XRC_Contract(address)": "29375",
						"RemoveUser(uint256,bool)": "infinite",
						"TotalAlocated()": "2518",
						"ViewUsers(uint256)": "infinite",
						"XRC_Contract()": "infinite",
						"airdropCount()": "2495",
						"changeOwner(address)": "32761",
						"getOwner()": "2567",
						"leftToBeAllocated()": "2453",
						"viewBalanceInContract()": "infinite"
					}
				},
				"methodIdentifiers": {
					"AddUser(address,uint256)": "6932ac5f",
					"AirDropStatus()": "85f0d3ca",
					"DeployAirDrop(bool)": "c24a58a1",
					"RedeemAirdrop(uint256)": "addfeee5",
					"Register_XRC_Contract(address)": "99e89649",
					"RemoveUser(uint256,bool)": "b612dd02",
					"TotalAlocated()": "9f48e8ad",
					"ViewUsers(uint256)": "f5084426",
					"XRC_Contract()": "03b93472",
					"airdropCount()": "e952f74f",
					"changeOwner(address)": "a6f9dae1",
					"getOwner()": "893d20e8",
					"leftToBeAllocated()": "01f3978f",
					"viewBalanceInContract()": "e1e46cba"
				}
			},
			"userdoc": {
				"kind": "user",
				"methods": {},
				"version": 1
			}
		}
	}
}