{
	"Documents/GitHub/XRC-Credit/contracts/XRC-Credit.sol": {
		"Credit": {
			"abi": [
				{
					"inputs": [],
					"stateMutability": "nonpayable",
					"type": "constructor"
				},
				{
					"inputs": [],
					"name": "Issue_Credit",
					"outputs": [],
					"stateMutability": "payable",
					"type": "function"
				}
			],
			"devdoc": {
				"kind": "dev",
				"methods": {},
				"version": 1
			},
			"evm": {
				"assembly": "    /* \"Documents/GitHub/XRC-Credit/contracts/XRC-Credit.sol\":58:142  contract Credit{... */\n  mstore(0x40, 0x80)\n    /* \"Documents/GitHub/XRC-Credit/contracts/XRC-Credit.sol\":79:94  constructor(){} */\n  callvalue\n  dup1\n  iszero\n  tag_1\n  jumpi\n  0x00\n  dup1\n  revert\ntag_1:\n  pop\n    /* \"Documents/GitHub/XRC-Credit/contracts/XRC-Credit.sol\":58:142  contract Credit{... */\n  dataSize(sub_0)\n  dup1\n  dataOffset(sub_0)\n  0x00\n  codecopy\n  0x00\n  return\nstop\n\nsub_0: assembly {\n        /* \"Documents/GitHub/XRC-Credit/contracts/XRC-Credit.sol\":58:142  contract Credit{... */\n      mstore(0x40, 0x80)\n      jumpi(tag_1, lt(calldatasize, 0x04))\n      shr(0xe0, calldataload(0x00))\n      dup1\n      0xd5a9111f\n      eq\n      tag_2\n      jumpi\n    tag_1:\n      0x00\n      dup1\n      revert\n        /* \"Documents/GitHub/XRC-Credit/contracts/XRC-Credit.sol\":100:139  function Issue_Credit()public payable{} */\n    tag_2:\n      tag_3\n      tag_4\n      jump\t// in\n    tag_3:\n      stop\n    tag_4:\n      jump\t// out\n\n    auxdata: 0xa26469706673582212201d87dc5aee278d32ee071c3868fe66c738d81ee2ca0ab4af52a27a1c7970197864736f6c634300080d0033\n}\n",
				"bytecode": {
					"linkReferences": {},
					"object": "6080604052348015600f57600080fd5b50606180601d6000396000f3fe608060405260043610601c5760003560e01c8063d5a9111f146021575b600080fd5b60276029565b005b56fea26469706673582212201d87dc5aee278d32ee071c3868fe66c738d81ee2ca0ab4af52a27a1c7970197864736f6c634300080d0033",
					"opcodes": "PUSH1 0x80 PUSH1 0x40 MSTORE CALLVALUE DUP1 ISZERO PUSH1 0xF JUMPI PUSH1 0x0 DUP1 REVERT JUMPDEST POP PUSH1 0x61 DUP1 PUSH1 0x1D PUSH1 0x0 CODECOPY PUSH1 0x0 RETURN INVALID PUSH1 0x80 PUSH1 0x40 MSTORE PUSH1 0x4 CALLDATASIZE LT PUSH1 0x1C JUMPI PUSH1 0x0 CALLDATALOAD PUSH1 0xE0 SHR DUP1 PUSH4 0xD5A9111F EQ PUSH1 0x21 JUMPI JUMPDEST PUSH1 0x0 DUP1 REVERT JUMPDEST PUSH1 0x27 PUSH1 0x29 JUMP JUMPDEST STOP JUMPDEST JUMP INVALID LOG2 PUSH5 0x6970667358 0x22 SLT KECCAK256 SAR DUP8 0xDC GAS 0xEE 0x27 DUP14 ORIGIN 0xEE SMOD SHR CODESIZE PUSH9 0xFE66C738D81EE2CA0A 0xB4 0xAF MSTORE LOG2 PUSH27 0x1C7970197864736F6C634300080D00330000000000000000000000 "
				},
				"deployedBytecode": {
					"immutableReferences": {},
					"linkReferences": {},
					"object": "608060405260043610601c5760003560e01c8063d5a9111f146021575b600080fd5b60276029565b005b56fea26469706673582212201d87dc5aee278d32ee071c3868fe66c738d81ee2ca0ab4af52a27a1c7970197864736f6c634300080d0033",
					"opcodes": "PUSH1 0x80 PUSH1 0x40 MSTORE PUSH1 0x4 CALLDATASIZE LT PUSH1 0x1C JUMPI PUSH1 0x0 CALLDATALOAD PUSH1 0xE0 SHR DUP1 PUSH4 0xD5A9111F EQ PUSH1 0x21 JUMPI JUMPDEST PUSH1 0x0 DUP1 REVERT JUMPDEST PUSH1 0x27 PUSH1 0x29 JUMP JUMPDEST STOP JUMPDEST JUMP INVALID LOG2 PUSH5 0x6970667358 0x22 SLT KECCAK256 SAR DUP8 0xDC GAS 0xEE 0x27 DUP14 ORIGIN 0xEE SMOD SHR CODESIZE PUSH9 0xFE66C738D81EE2CA0A 0xB4 0xAF MSTORE LOG2 PUSH27 0x1C7970197864736F6C634300080D00330000000000000000000000 "
				},
				"gasEstimates": {
					"creation": {
						"codeDepositCost": "19400",
						"executionCost": "75",
						"totalCost": "19475"
					},
					"external": {
						"Issue_Credit()": "98"
					}
				},
				"methodIdentifiers": {
					"Issue_Credit()": "d5a9111f"
				}
			},
			"userdoc": {
				"kind": "user",
				"methods": {},
				"version": 1
			}
		}
	}
}