{
	"Documents/GitHub/XRC-Credit/contracts/XRC-Credit.sol": {
		"Credit": {
			"abi": [
				{
					"inputs": [],
					"stateMutability": "nonpayable",
					"type": "constructor"
				},
				{
					"inputs": [],
					"name": "IssuePayment",
					"outputs": [],
					"stateMutability": "nonpayable",
					"type": "function"
				},
				{
					"inputs": [],
					"name": "Issue_Credit",
					"outputs": [],
					"stateMutability": "nonpayable",
					"type": "function"
				},
				{
					"inputs": [],
					"name": "RedeemCredit",
					"outputs": [],
					"stateMutability": "nonpayable",
					"type": "function"
				}
			],
			"devdoc": {
				"kind": "dev",
				"methods": {},
				"version": 1
			},
			"evm": {
				"assembly": "    /* \"Documents/GitHub/XRC-Credit/contracts/XRC-Credit.sol\":58:285  contract Credit{... */\n  mstore(0x40, 0x80)\n    /* \"Documents/GitHub/XRC-Credit/contracts/XRC-Credit.sol\":79:94  constructor(){} */\n  callvalue\n  dup1\n  iszero\n  tag_1\n  jumpi\n  0x00\n  dup1\n  revert\ntag_1:\n  pop\n    /* \"Documents/GitHub/XRC-Credit/contracts/XRC-Credit.sol\":58:285  contract Credit{... */\n  dataSize(sub_0)\n  dup1\n  dataOffset(sub_0)\n  0x00\n  codecopy\n  0x00\n  return\nstop\n\nsub_0: assembly {\n        /* \"Documents/GitHub/XRC-Credit/contracts/XRC-Credit.sol\":58:285  contract Credit{... */\n      mstore(0x40, 0x80)\n      callvalue\n      dup1\n      iszero\n      tag_1\n      jumpi\n      0x00\n      dup1\n      revert\n    tag_1:\n      pop\n      jumpi(tag_2, lt(calldatasize, 0x04))\n      shr(0xe0, calldataload(0x00))\n      dup1\n      0x0bef3bdc\n      eq\n      tag_3\n      jumpi\n      dup1\n      0x7137780e\n      eq\n      tag_4\n      jumpi\n      dup1\n      0xd5a9111f\n      eq\n      tag_5\n      jumpi\n    tag_2:\n      0x00\n      dup1\n      revert\n        /* \"Documents/GitHub/XRC-Credit/contracts/XRC-Credit.sol\":235:267  function IssuePayment()public {} */\n    tag_3:\n      tag_6\n      tag_7\n      jump\t// in\n    tag_6:\n      stop\n        /* \"Documents/GitHub/XRC-Credit/contracts/XRC-Credit.sol\":198:230  function RedeemCredit()public {} */\n    tag_4:\n      tag_8\n      tag_9\n      jump\t// in\n    tag_8:\n      stop\n        /* \"Documents/GitHub/XRC-Credit/contracts/XRC-Credit.sol\":161:193  function Issue_Credit()public {} */\n    tag_5:\n      tag_10\n      tag_11\n      jump\t// in\n    tag_10:\n      stop\n        /* \"Documents/GitHub/XRC-Credit/contracts/XRC-Credit.sol\":235:267  function IssuePayment()public {} */\n    tag_7:\n      jump\t// out\n        /* \"Documents/GitHub/XRC-Credit/contracts/XRC-Credit.sol\":198:230  function RedeemCredit()public {} */\n    tag_9:\n      jump\t// out\n        /* \"Documents/GitHub/XRC-Credit/contracts/XRC-Credit.sol\":161:193  function Issue_Credit()public {} */\n    tag_11:\n      jump\t// out\n\n    auxdata: 0xa26469706673582212204ce8be22748241fd67e6b9335d58c4cd551e84dcde3c9617a3d7b6e85866d04264736f6c634300080d0033\n}\n",
				"bytecode": {
					"linkReferences": {},
					"object": "6080604052348015600f57600080fd5b5060958061001e6000396000f3fe6080604052348015600f57600080fd5b5060043610603c5760003560e01c80630bef3bdc1460415780637137780e146049578063d5a9111f146051575b600080fd5b60476059565b005b604f605b565b005b6057605d565b005b565b565b56fea26469706673582212204ce8be22748241fd67e6b9335d58c4cd551e84dcde3c9617a3d7b6e85866d04264736f6c634300080d0033",
					"opcodes": "PUSH1 0x80 PUSH1 0x40 MSTORE CALLVALUE DUP1 ISZERO PUSH1 0xF JUMPI PUSH1 0x0 DUP1 REVERT JUMPDEST POP PUSH1 0x95 DUP1 PUSH2 0x1E PUSH1 0x0 CODECOPY PUSH1 0x0 RETURN INVALID PUSH1 0x80 PUSH1 0x40 MSTORE CALLVALUE DUP1 ISZERO PUSH1 0xF JUMPI PUSH1 0x0 DUP1 REVERT JUMPDEST POP PUSH1 0x4 CALLDATASIZE LT PUSH1 0x3C JUMPI PUSH1 0x0 CALLDATALOAD PUSH1 0xE0 SHR DUP1 PUSH4 0xBEF3BDC EQ PUSH1 0x41 JUMPI DUP1 PUSH4 0x7137780E EQ PUSH1 0x49 JUMPI DUP1 PUSH4 0xD5A9111F EQ PUSH1 0x51 JUMPI JUMPDEST PUSH1 0x0 DUP1 REVERT JUMPDEST PUSH1 0x47 PUSH1 0x59 JUMP JUMPDEST STOP JUMPDEST PUSH1 0x4F PUSH1 0x5B JUMP JUMPDEST STOP JUMPDEST PUSH1 0x57 PUSH1 0x5D JUMP JUMPDEST STOP JUMPDEST JUMP JUMPDEST JUMP JUMPDEST JUMP INVALID LOG2 PUSH5 0x6970667358 0x22 SLT KECCAK256 0x4C 0xE8 0xBE 0x22 PUSH21 0x8241FD67E6B9335D58C4CD551E84DCDE3C9617A3D7 0xB6 0xE8 PC PUSH7 0xD04264736F6C63 NUMBER STOP ADDMOD 0xD STOP CALLER "
				},
				"gasEstimates": {
					"creation": {
						"codeDepositCost": "29800",
						"executionCost": "81",
						"totalCost": "29881"
					},
					"external": {
						"IssuePayment()": "122",
						"Issue_Credit()": "166",
						"RedeemCredit()": "144"
					}
				},
				"methodIdentifiers": {
					"IssuePayment()": "0bef3bdc",
					"Issue_Credit()": "d5a9111f",
					"RedeemCredit()": "7137780e"
				}
			},
			"userdoc": {
				"kind": "user",
				"methods": {},
				"version": 1
			}
		}
	}
}