{
	"Documents/GitHub/XRC-Credit/contracts/XRC-Credit.sol": {
		"Credit": {
			"abi": [
				{
					"inputs": [],
					"stateMutability": "nonpayable",
					"type": "constructor"
				},
				{
					"inputs": [],
					"name": "IssuePayment",
					"outputs": [],
					"stateMutability": "payable",
					"type": "function"
				},
				{
					"inputs": [],
					"name": "Issue_Credit",
					"outputs": [],
					"stateMutability": "nonpayable",
					"type": "function"
				},
				{
					"inputs": [],
					"name": "RedeemCredit",
					"outputs": [],
					"stateMutability": "nonpayable",
					"type": "function"
				}
			],
			"devdoc": {
				"kind": "dev",
				"methods": {},
				"version": 1
			},
			"evm": {
				"assembly": "    /* \"Documents/GitHub/XRC-Credit/contracts/XRC-Credit.sol\":58:272  contract Credit{... */\n  mstore(0x40, 0x80)\n    /* \"Documents/GitHub/XRC-Credit/contracts/XRC-Credit.sol\":79:94  constructor(){} */\n  callvalue\n  dup1\n  iszero\n  tag_1\n  jumpi\n  0x00\n  dup1\n  revert\ntag_1:\n  pop\n    /* \"Documents/GitHub/XRC-Credit/contracts/XRC-Credit.sol\":58:272  contract Credit{... */\n  dataSize(sub_0)\n  dup1\n  dataOffset(sub_0)\n  0x00\n  codecopy\n  0x00\n  return\nstop\n\nsub_0: assembly {\n        /* \"Documents/GitHub/XRC-Credit/contracts/XRC-Credit.sol\":58:272  contract Credit{... */\n      mstore(0x40, 0x80)\n      jumpi(tag_1, lt(calldatasize, 0x04))\n      shr(0xe0, calldataload(0x00))\n      dup1\n      0x0bef3bdc\n      eq\n      tag_2\n      jumpi\n      dup1\n      0x7137780e\n      eq\n      tag_3\n      jumpi\n      dup1\n      0xd5a9111f\n      eq\n      tag_4\n      jumpi\n    tag_1:\n      0x00\n      dup1\n      revert\n        /* \"Documents/GitHub/XRC-Credit/contracts/XRC-Credit.sol\":231:270  function IssuePayment()public payable{} */\n    tag_2:\n      tag_5\n      tag_6\n      jump\t// in\n    tag_5:\n      stop\n        /* \"Documents/GitHub/XRC-Credit/contracts/XRC-Credit.sol\":194:226  function RedeemCredit()public {} */\n    tag_3:\n      callvalue\n      dup1\n      iszero\n      tag_7\n      jumpi\n      0x00\n      dup1\n      revert\n    tag_7:\n      pop\n      tag_8\n      tag_9\n      jump\t// in\n    tag_8:\n      stop\n        /* \"Documents/GitHub/XRC-Credit/contracts/XRC-Credit.sol\":157:189  function Issue_Credit()public {} */\n    tag_4:\n      callvalue\n      dup1\n      iszero\n      tag_10\n      jumpi\n      0x00\n      dup1\n      revert\n    tag_10:\n      pop\n      tag_11\n      tag_12\n      jump\t// in\n    tag_11:\n      stop\n        /* \"Documents/GitHub/XRC-Credit/contracts/XRC-Credit.sol\":231:270  function IssuePayment()public payable{} */\n    tag_6:\n      jump\t// out\n        /* \"Documents/GitHub/XRC-Credit/contracts/XRC-Credit.sol\":194:226  function RedeemCredit()public {} */\n    tag_9:\n      jump\t// out\n        /* \"Documents/GitHub/XRC-Credit/contracts/XRC-Credit.sol\":157:189  function Issue_Credit()public {} */\n    tag_12:\n      jump\t// out\n\n    auxdata: 0xa2646970667358221220327b1712759cce3c3d61fefee3b560cc7649cd67fa5b9c801f1620960a822ba064736f6c634300080d0033\n}\n",
				"bytecode": {
					"linkReferences": {},
					"object": "6080604052348015600f57600080fd5b5060a18061001e6000396000f3fe60806040526004361060305760003560e01c80630bef3bdc1460355780637137780e14603d578063d5a9111f146051575b600080fd5b603b6065565b005b348015604857600080fd5b50604f6067565b005b348015605c57600080fd5b5060636069565b005b565b565b56fea2646970667358221220327b1712759cce3c3d61fefee3b560cc7649cd67fa5b9c801f1620960a822ba064736f6c634300080d0033",
					"opcodes": "PUSH1 0x80 PUSH1 0x40 MSTORE CALLVALUE DUP1 ISZERO PUSH1 0xF JUMPI PUSH1 0x0 DUP1 REVERT JUMPDEST POP PUSH1 0xA1 DUP1 PUSH2 0x1E PUSH1 0x0 CODECOPY PUSH1 0x0 RETURN INVALID PUSH1 0x80 PUSH1 0x40 MSTORE PUSH1 0x4 CALLDATASIZE LT PUSH1 0x30 JUMPI PUSH1 0x0 CALLDATALOAD PUSH1 0xE0 SHR DUP1 PUSH4 0xBEF3BDC EQ PUSH1 0x35 JUMPI DUP1 PUSH4 0x7137780E EQ PUSH1 0x3D JUMPI DUP1 PUSH4 0xD5A9111F EQ PUSH1 0x51 JUMPI JUMPDEST PUSH1 0x0 DUP1 REVERT JUMPDEST PUSH1 0x3B PUSH1 0x65 JUMP JUMPDEST STOP JUMPDEST CALLVALUE DUP1 ISZERO PUSH1 0x48 JUMPI PUSH1 0x0 DUP1 REVERT JUMPDEST POP PUSH1 0x4F PUSH1 0x67 JUMP JUMPDEST STOP JUMPDEST CALLVALUE DUP1 ISZERO PUSH1 0x5C JUMPI PUSH1 0x0 DUP1 REVERT JUMPDEST POP PUSH1 0x63 PUSH1 0x69 JUMP JUMPDEST STOP JUMPDEST JUMP JUMPDEST JUMP JUMPDEST JUMP INVALID LOG2 PUSH5 0x6970667358 0x22 SLT KECCAK256 ORIGIN PUSH28 0x1712759CCE3C3D61FEFEE3B560CC7649CD67FA5B9C801F1620960A82 0x2B LOG0 PUSH5 0x736F6C6343 STOP ADDMOD 0xD STOP CALLER "
				},
				"gasEstimates": {
					"creation": {
						"codeDepositCost": "32200",
						"executionCost": "87",
						"totalCost": "32287"
					},
					"external": {
						"IssuePayment()": "98",
						"Issue_Credit()": "166",
						"RedeemCredit()": "144"
					}
				},
				"methodIdentifiers": {
					"IssuePayment()": "0bef3bdc",
					"Issue_Credit()": "d5a9111f",
					"RedeemCredit()": "7137780e"
				}
			},
			"userdoc": {
				"kind": "user",
				"methods": {},
				"version": 1
			}
		}
	}
}