{
	"Documents/GitHub/XRC-Credit/contracts/XRC-Credit.sol": {
		"Credit": {
			"abi": [
				{
					"inputs": [],
					"stateMutability": "nonpayable",
					"type": "constructor"
				},
				{
					"inputs": [],
					"name": "IssuPayments",
					"outputs": [],
					"stateMutability": "payable",
					"type": "function"
				},
				{
					"inputs": [],
					"name": "Issue_Credit",
					"outputs": [],
					"stateMutability": "nonpayable",
					"type": "function"
				},
				{
					"inputs": [],
					"name": "RedeemCredit",
					"outputs": [],
					"stateMutability": "nonpayable",
					"type": "function"
				}
			],
			"devdoc": {
				"kind": "dev",
				"methods": {},
				"version": 1
			},
			"evm": {
				"assembly": "    /* \"Documents/GitHub/XRC-Credit/contracts/XRC-Credit.sol\":58:215  contract Credit{... */\n  mstore(0x40, 0x80)\n    /* \"Documents/GitHub/XRC-Credit/contracts/XRC-Credit.sol\":79:94  constructor(){} */\n  callvalue\n  dup1\n  iszero\n  tag_1\n  jumpi\n  0x00\n  dup1\n  revert\ntag_1:\n  pop\n    /* \"Documents/GitHub/XRC-Credit/contracts/XRC-Credit.sol\":58:215  contract Credit{... */\n  dataSize(sub_0)\n  dup1\n  dataOffset(sub_0)\n  0x00\n  codecopy\n  0x00\n  return\nstop\n\nsub_0: assembly {\n        /* \"Documents/GitHub/XRC-Credit/contracts/XRC-Credit.sol\":58:215  contract Credit{... */\n      mstore(0x40, 0x80)\n      jumpi(tag_1, lt(calldatasize, 0x04))\n      shr(0xe0, calldataload(0x00))\n      dup1\n      0x7137780e\n      eq\n      tag_2\n      jumpi\n      dup1\n      0x8f52834b\n      eq\n      tag_3\n      jumpi\n      dup1\n      0xd5a9111f\n      eq\n      tag_4\n      jumpi\n    tag_1:\n      0x00\n      dup1\n      revert\n        /* \"Documents/GitHub/XRC-Credit/contracts/XRC-Credit.sol\":137:169  function RedeemCredit()public {} */\n    tag_2:\n      callvalue\n      dup1\n      iszero\n      tag_5\n      jumpi\n      0x00\n      dup1\n      revert\n    tag_5:\n      pop\n      tag_6\n      tag_7\n      jump\t// in\n    tag_6:\n      stop\n        /* \"Documents/GitHub/XRC-Credit/contracts/XRC-Credit.sol\":174:213  function IssuPayments()public payable{} */\n    tag_3:\n      tag_8\n      tag_9\n      jump\t// in\n    tag_8:\n      stop\n        /* \"Documents/GitHub/XRC-Credit/contracts/XRC-Credit.sol\":100:132  function Issue_Credit()public {} */\n    tag_4:\n      callvalue\n      dup1\n      iszero\n      tag_10\n      jumpi\n      0x00\n      dup1\n      revert\n    tag_10:\n      pop\n      tag_11\n      tag_12\n      jump\t// in\n    tag_11:\n      stop\n        /* \"Documents/GitHub/XRC-Credit/contracts/XRC-Credit.sol\":137:169  function RedeemCredit()public {} */\n    tag_7:\n      jump\t// out\n        /* \"Documents/GitHub/XRC-Credit/contracts/XRC-Credit.sol\":174:213  function IssuPayments()public payable{} */\n    tag_9:\n      jump\t// out\n        /* \"Documents/GitHub/XRC-Credit/contracts/XRC-Credit.sol\":100:132  function Issue_Credit()public {} */\n    tag_12:\n      jump\t// out\n\n    auxdata: 0xa264697066735822122060b5476288fd28bd1846ee04225e8024881e5badb0885fafa998bbae40f99a8664736f6c634300080d0033\n}\n",
				"bytecode": {
					"linkReferences": {},
					"object": "6080604052348015600f57600080fd5b5060a18061001e6000396000f3fe60806040526004361060305760003560e01c80637137780e1460355780638f52834b146049578063d5a9111f146051575b600080fd5b348015604057600080fd5b5060476065565b005b604f6067565b005b348015605c57600080fd5b5060636069565b005b565b565b56fea264697066735822122060b5476288fd28bd1846ee04225e8024881e5badb0885fafa998bbae40f99a8664736f6c634300080d0033",
					"opcodes": "PUSH1 0x80 PUSH1 0x40 MSTORE CALLVALUE DUP1 ISZERO PUSH1 0xF JUMPI PUSH1 0x0 DUP1 REVERT JUMPDEST POP PUSH1 0xA1 DUP1 PUSH2 0x1E PUSH1 0x0 CODECOPY PUSH1 0x0 RETURN INVALID PUSH1 0x80 PUSH1 0x40 MSTORE PUSH1 0x4 CALLDATASIZE LT PUSH1 0x30 JUMPI PUSH1 0x0 CALLDATALOAD PUSH1 0xE0 SHR DUP1 PUSH4 0x7137780E EQ PUSH1 0x35 JUMPI DUP1 PUSH4 0x8F52834B EQ PUSH1 0x49 JUMPI DUP1 PUSH4 0xD5A9111F EQ PUSH1 0x51 JUMPI JUMPDEST PUSH1 0x0 DUP1 REVERT JUMPDEST CALLVALUE DUP1 ISZERO PUSH1 0x40 JUMPI PUSH1 0x0 DUP1 REVERT JUMPDEST POP PUSH1 0x47 PUSH1 0x65 JUMP JUMPDEST STOP JUMPDEST PUSH1 0x4F PUSH1 0x67 JUMP JUMPDEST STOP JUMPDEST CALLVALUE DUP1 ISZERO PUSH1 0x5C JUMPI PUSH1 0x0 DUP1 REVERT JUMPDEST POP PUSH1 0x63 PUSH1 0x69 JUMP JUMPDEST STOP JUMPDEST JUMP JUMPDEST JUMP JUMPDEST JUMP INVALID LOG2 PUSH5 0x6970667358 0x22 SLT KECCAK256 PUSH1 0xB5 SELFBALANCE PUSH3 0x88FD28 0xBD XOR CHAINID 0xEE DIV 0x22 0x5E DUP1 0x24 DUP9 0x1E JUMPDEST 0xAD 0xB0 DUP9 0x5F 0xAF 0xA9 SWAP9 0xBB 0xAE BLOCKHASH 0xF9 SWAP11 DUP7 PUSH5 0x736F6C6343 STOP ADDMOD 0xD STOP CALLER "
				},
				"gasEstimates": {
					"creation": {
						"codeDepositCost": "32200",
						"executionCost": "87",
						"totalCost": "32287"
					},
					"external": {
						"IssuPayments()": "120",
						"Issue_Credit()": "166",
						"RedeemCredit()": "122"
					}
				},
				"methodIdentifiers": {
					"IssuPayments()": "8f52834b",
					"Issue_Credit()": "d5a9111f",
					"RedeemCredit()": "7137780e"
				}
			},
			"userdoc": {
				"kind": "user",
				"methods": {},
				"version": 1
			}
		}
	}
}