{
	"data": {
		"bytecode": {
			"linkReferences": {},
			"object": "6080604052348015600f57600080fd5b50606180601d6000396000f3fe608060405260043610601c5760003560e01c8063d5a9111f146021575b600080fd5b60276029565b005b56fea26469706673582212204fcd2d5ce10dd8d5778674e0b01ee5d9908ca497e56598482a9c40aca91959f964736f6c634300080d0033",
			"opcodes": "PUSH1 0x80 PUSH1 0x40 MSTORE CALLVALUE DUP1 ISZERO PUSH1 0xF JUMPI PUSH1 0x0 DUP1 REVERT JUMPDEST POP PUSH1 0x61 DUP1 PUSH1 0x1D PUSH1 0x0 CODECOPY PUSH1 0x0 RETURN INVALID PUSH1 0x80 PUSH1 0x40 MSTORE PUSH1 0x4 CALLDATASIZE LT PUSH1 0x1C JUMPI PUSH1 0x0 CALLDATALOAD PUSH1 0xE0 SHR DUP1 PUSH4 0xD5A9111F EQ PUSH1 0x21 JUMPI JUMPDEST PUSH1 0x0 DUP1 REVERT JUMPDEST PUSH1 0x27 PUSH1 0x29 JUMP JUMPDEST STOP JUMPDEST JUMP INVALID LOG2 PUSH5 0x6970667358 0x22 SLT KECCAK256 0x4F 0xCD 0x2D 0x5C 0xE1 0xD 0xD8 0xD5 PUSH24 0x8674E0B01EE5D9908CA497E56598482A9C40ACA91959F964 PUSH20 0x6F6C634300080D00330000000000000000000000 "
		},
		"deployedBytecode": {
			"immutableReferences": {},
			"linkReferences": {},
			"object": "608060405260043610601c5760003560e01c8063d5a9111f146021575b600080fd5b60276029565b005b56fea26469706673582212204fcd2d5ce10dd8d5778674e0b01ee5d9908ca497e56598482a9c40aca91959f964736f6c634300080d0033",
			"opcodes": "PUSH1 0x80 PUSH1 0x40 MSTORE PUSH1 0x4 CALLDATASIZE LT PUSH1 0x1C JUMPI PUSH1 0x0 CALLDATALOAD PUSH1 0xE0 SHR DUP1 PUSH4 0xD5A9111F EQ PUSH1 0x21 JUMPI JUMPDEST PUSH1 0x0 DUP1 REVERT JUMPDEST PUSH1 0x27 PUSH1 0x29 JUMP JUMPDEST STOP JUMPDEST JUMP INVALID LOG2 PUSH5 0x6970667358 0x22 SLT KECCAK256 0x4F 0xCD 0x2D 0x5C 0xE1 0xD 0xD8 0xD5 PUSH24 0x8674E0B01EE5D9908CA497E56598482A9C40ACA91959F964 PUSH20 0x6F6C634300080D00330000000000000000000000 "
		},
		"gasEstimates": {
			"creation": {
				"codeDepositCost": "19400",
				"executionCost": "75",
				"totalCost": "19475"
			},
			"external": {
				"Issue_Credit()": "98"
			}
		},
		"methodIdentifiers": {
			"Issue_Credit()": "d5a9111f"
		}
	},
	"abi": [
		{
			"inputs": [],
			"stateMutability": "nonpayable",
			"type": "constructor"
		},
		{
			"inputs": [],
			"name": "Issue_Credit",
			"outputs": [],
			"stateMutability": "payable",
			"type": "function"
		}
	]
}